{
  "address": "0x0dE07E76d71a332E02ee300199B67d963505c5e2",
  "abi": [
    {
      "anonymous": false,
      "inputs": [
        {
          "indexed": true,
          "internalType": "address",
          "name": "owner",
          "type": "address"
        },
        {
          "indexed": true,
          "internalType": "address",
          "name": "approved",
          "type": "address"
        },
        {
          "indexed": true,
          "internalType": "uint256",
          "name": "tokenId",
          "type": "uint256"
        }
      ],
      "name": "Approval",
      "type": "event"
    },
    {
      "anonymous": false,
      "inputs": [
        {
          "indexed": true,
          "internalType": "address",
          "name": "owner",
          "type": "address"
        },
        {
          "indexed": true,
          "internalType": "address",
          "name": "operator",
          "type": "address"
        },
        {
          "indexed": false,
          "internalType": "bool",
          "name": "approved",
          "type": "bool"
        }
      ],
      "name": "ApprovalForAll",
      "type": "event"
    },
    {
      "anonymous": false,
      "inputs": [
        {
          "indexed": true,
          "internalType": "address",
          "name": "previousOwner",
          "type": "address"
        },
        {
          "indexed": true,
          "internalType": "address",
          "name": "newOwner",
          "type": "address"
        }
      ],
      "name": "OwnershipTransferred",
      "type": "event"
    },
    {
      "anonymous": false,
      "inputs": [
        {
          "indexed": false,
          "internalType": "address",
          "name": "account",
          "type": "address"
        }
      ],
      "name": "Paused",
      "type": "event"
    },
    {
      "anonymous": false,
      "inputs": [
        {
          "indexed": true,
          "internalType": "bytes32",
          "name": "role",
          "type": "bytes32"
        },
        {
          "indexed": true,
          "internalType": "bytes32",
          "name": "previousAdminRole",
          "type": "bytes32"
        },
        {
          "indexed": true,
          "internalType": "bytes32",
          "name": "newAdminRole",
          "type": "bytes32"
        }
      ],
      "name": "RoleAdminChanged",
      "type": "event"
    },
    {
      "anonymous": false,
      "inputs": [
        {
          "indexed": true,
          "internalType": "bytes32",
          "name": "role",
          "type": "bytes32"
        },
        {
          "indexed": true,
          "internalType": "address",
          "name": "account",
          "type": "address"
        },
        {
          "indexed": true,
          "internalType": "address",
          "name": "sender",
          "type": "address"
        }
      ],
      "name": "RoleGranted",
      "type": "event"
    },
    {
      "anonymous": false,
      "inputs": [
        {
          "indexed": true,
          "internalType": "bytes32",
          "name": "role",
          "type": "bytes32"
        },
        {
          "indexed": true,
          "internalType": "address",
          "name": "account",
          "type": "address"
        },
        {
          "indexed": true,
          "internalType": "address",
          "name": "sender",
          "type": "address"
        }
      ],
      "name": "RoleRevoked",
      "type": "event"
    },
    {
      "anonymous": false,
      "inputs": [
        {
          "indexed": true,
          "internalType": "address",
          "name": "from",
          "type": "address"
        },
        {
          "indexed": true,
          "internalType": "address",
          "name": "to",
          "type": "address"
        },
        {
          "indexed": true,
          "internalType": "uint256",
          "name": "tokenId",
          "type": "uint256"
        }
      ],
      "name": "Transfer",
      "type": "event"
    },
    {
      "anonymous": false,
      "inputs": [
        {
          "indexed": false,
          "internalType": "address",
          "name": "account",
          "type": "address"
        }
      ],
      "name": "Unpaused",
      "type": "event"
    },
    {
      "inputs": [],
      "name": "DEFAULT_ADMIN_ROLE",
      "outputs": [
        {
          "internalType": "bytes32",
          "name": "",
          "type": "bytes32"
        }
      ],
      "stateMutability": "view",
      "type": "function"
    },
    {
      "inputs": [],
      "name": "LAUNCH_PRICE",
      "outputs": [
        {
          "internalType": "uint256",
          "name": "",
          "type": "uint256"
        }
      ],
      "stateMutability": "view",
      "type": "function"
    },
    {
      "inputs": [],
      "name": "MAX_QUANTITY",
      "outputs": [
        {
          "internalType": "uint8",
          "name": "",
          "type": "uint8"
        }
      ],
      "stateMutability": "view",
      "type": "function"
    },
    {
      "inputs": [],
      "name": "MAX_SUPPLY",
      "outputs": [
        {
          "internalType": "uint256",
          "name": "",
          "type": "uint256"
        }
      ],
      "stateMutability": "view",
      "type": "function"
    },
    {
      "inputs": [],
      "name": "PARTNER_SALE_PRICE",
      "outputs": [
        {
          "internalType": "uint256",
          "name": "",
          "type": "uint256"
        }
      ],
      "stateMutability": "view",
      "type": "function"
    },
    {
      "inputs": [
        {
          "internalType": "uint256",
          "name": "",
          "type": "uint256"
        }
      ],
      "name": "PRIVATE_SALE_PRICES",
      "outputs": [
        {
          "internalType": "uint256",
          "name": "",
          "type": "uint256"
        }
      ],
      "stateMutability": "view",
      "type": "function"
    },
    {
      "inputs": [],
      "name": "PRIVATE_SALE_START",
      "outputs": [
        {
          "internalType": "uint256",
          "name": "",
          "type": "uint256"
        }
      ],
      "stateMutability": "view",
      "type": "function"
    },
    {
      "inputs": [],
      "name": "PUBLIC_SALE_START",
      "outputs": [
        {
          "internalType": "uint256",
          "name": "",
          "type": "uint256"
        }
      ],
      "stateMutability": "view",
      "type": "function"
    },
    {
      "inputs": [],
      "name": "RESERVED",
      "outputs": [
        {
          "internalType": "uint256",
          "name": "",
          "type": "uint256"
        }
      ],
      "stateMutability": "view",
      "type": "function"
    },
    {
      "inputs": [],
      "name": "TREASURY",
      "outputs": [
        {
          "internalType": "address payable",
          "name": "",
          "type": "address"
        }
      ],
      "stateMutability": "view",
      "type": "function"
    },
    {
      "inputs": [],
      "name": "WALLET_LIMIT_PUBLIC",
      "outputs": [
        {
          "internalType": "uint8",
          "name": "",
          "type": "uint8"
        }
      ],
      "stateMutability": "view",
      "type": "function"
    },
    {
      "inputs": [
        {
          "internalType": "string",
          "name": "_notRevealedUri",
          "type": "string"
        },
        {
          "internalType": "address",
          "name": "_owner",
          "type": "address"
        },
        {
          "internalType": "address",
          "name": "_treasury",
          "type": "address"
        },
        {
          "internalType": "uint256",
          "name": "_privateSaleStart",
          "type": "uint256"
        },
        {
          "internalType": "uint256",
          "name": "_publicSaleStart",
          "type": "uint256"
        },
        {
          "internalType": "address",
          "name": "_vrfCoordinator",
          "type": "address"
        },
        {
          "internalType": "address",
          "name": "_link",
          "type": "address"
        },
        {
          "internalType": "bytes32",
          "name": "_keyHash",
          "type": "bytes32"
        },
        {
          "internalType": "uint256",
          "name": "_fee",
          "type": "uint256"
        },
        {
          "internalType": "address",
          "name": "_signerAddress",
          "type": "address"
        }
      ],
      "name": "__BobbyFischer_init",
      "outputs": [],
      "stateMutability": "nonpayable",
      "type": "function"
    },
    {
      "inputs": [
        {
          "internalType": "address",
          "name": "_vrfCoordinator",
          "type": "address"
        },
        {
          "internalType": "address",
          "name": "_link",
          "type": "address"
        }
      ],
      "name": "__VRFConsumableBase_init",
      "outputs": [],
      "stateMutability": "nonpayable",
      "type": "function"
    },
    {
      "inputs": [
        {
          "internalType": "address[]",
          "name": "addressList",
          "type": "address[]"
        }
      ],
      "name": "airdrop",
      "outputs": [],
      "stateMutability": "nonpayable",
      "type": "function"
    },
    {
      "inputs": [
        {
          "internalType": "address",
          "name": "to",
          "type": "address"
        },
        {
          "internalType": "uint256",
          "name": "tokenId",
          "type": "uint256"
        }
      ],
      "name": "approve",
      "outputs": [],
      "stateMutability": "nonpayable",
      "type": "function"
    },
    {
      "inputs": [
        {
          "internalType": "address",
          "name": "owner",
          "type": "address"
        }
      ],
      "name": "balanceOf",
      "outputs": [
        {
          "internalType": "uint256",
          "name": "",
          "type": "uint256"
        }
      ],
      "stateMutability": "view",
      "type": "function"
    },
    {
      "inputs": [],
      "name": "baseTokenURI",
      "outputs": [
        {
          "internalType": "string",
          "name": "",
          "type": "string"
        }
      ],
      "stateMutability": "view",
      "type": "function"
    },
    {
      "inputs": [
        {
          "internalType": "uint256",
          "name": "tokenId",
          "type": "uint256"
        }
      ],
      "name": "getApproved",
      "outputs": [
        {
          "internalType": "address",
          "name": "",
          "type": "address"
        }
      ],
      "stateMutability": "view",
      "type": "function"
    },
    {
      "inputs": [],
      "name": "getAvailable",
      "outputs": [
        {
          "internalType": "uint32[]",
          "name": "",
          "type": "uint32[]"
        }
      ],
      "stateMutability": "view",
      "type": "function"
    },
    {
      "inputs": [
        {
          "internalType": "uint32",
          "name": "tokenId",
          "type": "uint32"
        }
      ],
      "name": "getPostalCode",
      "outputs": [
        {
          "internalType": "bytes",
          "name": "",
          "type": "bytes"
        }
      ],
      "stateMutability": "pure",
      "type": "function"
    },
    {
      "inputs": [
        {
          "internalType": "bytes32",
          "name": "role",
          "type": "bytes32"
        }
      ],
      "name": "getRoleAdmin",
      "outputs": [
        {
          "internalType": "bytes32",
          "name": "",
          "type": "bytes32"
        }
      ],
      "stateMutability": "view",
      "type": "function"
    },
    {
      "inputs": [
        {
          "internalType": "bytes32",
          "name": "role",
          "type": "bytes32"
        },
        {
          "internalType": "uint256",
          "name": "index",
          "type": "uint256"
        }
      ],
      "name": "getRoleMember",
      "outputs": [
        {
          "internalType": "address",
          "name": "",
          "type": "address"
        }
      ],
      "stateMutability": "view",
      "type": "function"
    },
    {
      "inputs": [
        {
          "internalType": "bytes32",
          "name": "role",
          "type": "bytes32"
        }
      ],
      "name": "getRoleMemberCount",
      "outputs": [
        {
          "internalType": "uint256",
          "name": "",
          "type": "uint256"
        }
      ],
      "stateMutability": "view",
      "type": "function"
    },
    {
      "inputs": [
        {
          "internalType": "uint8",
          "name": "tier",
          "type": "uint8"
        }
      ],
      "name": "getWhitelistPrice",
      "outputs": [
        {
          "internalType": "uint256",
          "name": "",
          "type": "uint256"
        }
      ],
      "stateMutability": "view",
      "type": "function"
    },
    {
      "inputs": [
        {
          "internalType": "bytes32",
          "name": "role",
          "type": "bytes32"
        },
        {
          "internalType": "address",
          "name": "account",
          "type": "address"
        }
      ],
      "name": "grantRole",
      "outputs": [],
      "stateMutability": "nonpayable",
      "type": "function"
    },
    {
      "inputs": [
        {
          "internalType": "bytes32",
          "name": "role",
          "type": "bytes32"
        },
        {
          "internalType": "address",
          "name": "account",
          "type": "address"
        }
      ],
      "name": "hasRole",
      "outputs": [
        {
          "internalType": "bool",
          "name": "",
          "type": "bool"
        }
      ],
      "stateMutability": "view",
      "type": "function"
    },
    {
      "inputs": [],
      "name": "initializeRandomness",
      "outputs": [
        {
          "internalType": "bytes32",
          "name": "requestId",
          "type": "bytes32"
        }
      ],
      "stateMutability": "nonpayable",
      "type": "function"
    },
    {
      "inputs": [
        {
          "internalType": "address",
          "name": "owner",
          "type": "address"
        },
        {
          "internalType": "address",
          "name": "operator",
          "type": "address"
        }
      ],
      "name": "isApprovedForAll",
      "outputs": [
        {
          "internalType": "bool",
          "name": "",
          "type": "bool"
        }
      ],
      "stateMutability": "view",
      "type": "function"
    },
    {
      "inputs": [],
      "name": "isPresaleOpen",
      "outputs": [
        {
          "internalType": "bool",
          "name": "",
          "type": "bool"
        }
      ],
      "stateMutability": "view",
      "type": "function"
    },
    {
      "inputs": [],
      "name": "isPublicSaleOpen",
      "outputs": [
        {
          "internalType": "bool",
          "name": "",
          "type": "bool"
        }
      ],
      "stateMutability": "view",
      "type": "function"
    },
    {
      "inputs": [
        {
          "internalType": "uint256",
          "name": "randomness",
          "type": "uint256"
        }
      ],
      "name": "mockfulfillRandomness",
      "outputs": [],
      "stateMutability": "nonpayable",
      "type": "function"
    },
    {
      "inputs": [],
      "name": "name",
      "outputs": [
        {
          "internalType": "string",
          "name": "",
          "type": "string"
        }
      ],
      "stateMutability": "view",
      "type": "function"
    },
    {
      "inputs": [],
      "name": "notRevealedURI",
      "outputs": [
        {
          "internalType": "string",
          "name": "",
          "type": "string"
        }
      ],
      "stateMutability": "view",
      "type": "function"
    },
    {
      "inputs": [],
      "name": "owner",
      "outputs": [
        {
          "internalType": "address",
          "name": "",
          "type": "address"
        }
      ],
      "stateMutability": "view",
      "type": "function"
    },
    {
      "inputs": [
        {
          "internalType": "uint256",
          "name": "tokenId",
          "type": "uint256"
        }
      ],
      "name": "ownerOf",
      "outputs": [
        {
          "internalType": "address",
          "name": "",
          "type": "address"
        }
      ],
      "stateMutability": "view",
      "type": "function"
    },
    {
      "inputs": [
        {
          "internalType": "bytes",
          "name": "postalCode",
          "type": "bytes"
        }
      ],
      "name": "parsePostalCode",
      "outputs": [
        {
          "internalType": "uint8[4]",
          "name": "",
          "type": "uint8[4]"
        }
      ],
      "stateMutability": "pure",
      "type": "function"
    },
    {
      "inputs": [
        {
          "internalType": "bytes",
          "name": "nonce",
          "type": "bytes"
        },
        {
          "internalType": "bytes",
          "name": "signature",
          "type": "bytes"
        }
      ],
      "name": "partnerMint",
      "outputs": [],
      "stateMutability": "payable",
      "type": "function"
    },
    {
      "inputs": [],
      "name": "pause",
      "outputs": [],
      "stateMutability": "nonpayable",
      "type": "function"
    },
    {
      "inputs": [],
      "name": "paused",
      "outputs": [
        {
          "internalType": "bool",
          "name": "",
          "type": "bool"
        }
      ],
      "stateMutability": "view",
      "type": "function"
    },
    {
      "inputs": [
        {
          "internalType": "uint8",
          "name": "_mintAmount",
          "type": "uint8"
        },
        {
          "internalType": "uint8",
          "name": "tier",
          "type": "uint8"
        },
        {
          "internalType": "bytes",
          "name": "nonce",
          "type": "bytes"
        },
        {
          "internalType": "bytes",
          "name": "signature",
          "type": "bytes"
        }
      ],
      "name": "presaleMint",
      "outputs": [],
      "stateMutability": "payable",
      "type": "function"
    },
    {
      "inputs": [
        {
          "internalType": "address",
          "name": "user",
          "type": "address"
        }
      ],
      "name": "privateSaleMintCount",
      "outputs": [
        {
          "internalType": "uint256",
          "name": "",
          "type": "uint256"
        }
      ],
      "stateMutability": "view",
      "type": "function"
    },
    {
      "inputs": [
        {
          "internalType": "uint8",
          "name": "_mintAmount",
          "type": "uint8"
        }
      ],
      "name": "publicMint",
      "outputs": [],
      "stateMutability": "payable",
      "type": "function"
    },
    {
      "inputs": [
        {
          "internalType": "uint32[]",
          "name": "_available",
          "type": "uint32[]"
        }
      ],
      "name": "pushAvailable",
      "outputs": [],
      "stateMutability": "nonpayable",
      "type": "function"
    },
    {
      "inputs": [
        {
          "internalType": "bytes32",
          "name": "requestId",
          "type": "bytes32"
        },
        {
          "internalType": "uint256",
          "name": "randomness",
          "type": "uint256"
        }
      ],
      "name": "rawFulfillRandomness",
      "outputs": [],
      "stateMutability": "nonpayable",
      "type": "function"
    },
    {
      "inputs": [],
      "name": "renounceOwnership",
      "outputs": [],
      "stateMutability": "nonpayable",
      "type": "function"
    },
    {
      "inputs": [
        {
          "internalType": "bytes32",
          "name": "role",
          "type": "bytes32"
        },
        {
          "internalType": "address",
          "name": "account",
          "type": "address"
        }
      ],
      "name": "renounceRole",
      "outputs": [],
      "stateMutability": "nonpayable",
      "type": "function"
    },
    {
      "inputs": [],
      "name": "revealed",
      "outputs": [
        {
          "internalType": "bool",
          "name": "",
          "type": "bool"
        }
      ],
      "stateMutability": "view",
      "type": "function"
    },
    {
      "inputs": [
        {
          "internalType": "bytes32",
          "name": "role",
          "type": "bytes32"
        },
        {
          "internalType": "address",
          "name": "account",
          "type": "address"
        }
      ],
      "name": "revokeRole",
      "outputs": [],
      "stateMutability": "nonpayable",
      "type": "function"
    },
    {
      "inputs": [
        {
          "internalType": "address",
          "name": "from",
          "type": "address"
        },
        {
          "internalType": "address",
          "name": "to",
          "type": "address"
        },
        {
          "internalType": "uint256",
          "name": "tokenId",
          "type": "uint256"
        }
      ],
      "name": "safeTransferFrom",
      "outputs": [],
      "stateMutability": "nonpayable",
      "type": "function"
    },
    {
      "inputs": [
        {
          "internalType": "address",
          "name": "from",
          "type": "address"
        },
        {
          "internalType": "address",
          "name": "to",
          "type": "address"
        },
        {
          "internalType": "uint256",
          "name": "tokenId",
          "type": "uint256"
        },
        {
          "internalType": "bytes",
          "name": "_data",
          "type": "bytes"
        }
      ],
      "name": "safeTransferFrom",
      "outputs": [],
      "stateMutability": "nonpayable",
      "type": "function"
    },
    {
      "inputs": [
        {
          "internalType": "address",
          "name": "operator",
          "type": "address"
        },
        {
          "internalType": "bool",
          "name": "approved",
          "type": "bool"
        }
      ],
      "name": "setApprovalForAll",
      "outputs": [],
      "stateMutability": "nonpayable",
      "type": "function"
    },
    {
      "inputs": [
        {
          "internalType": "bytes4",
          "name": "interfaceId",
          "type": "bytes4"
        }
      ],
      "name": "supportsInterface",
      "outputs": [
        {
          "internalType": "bool",
          "name": "",
          "type": "bool"
        }
      ],
      "stateMutability": "view",
      "type": "function"
    },
    {
      "inputs": [],
      "name": "symbol",
      "outputs": [
        {
          "internalType": "string",
          "name": "",
          "type": "string"
        }
      ],
      "stateMutability": "view",
      "type": "function"
    },
    {
      "inputs": [
        {
          "internalType": "uint256",
          "name": "index",
          "type": "uint256"
        }
      ],
      "name": "tokenByIndex",
      "outputs": [
        {
          "internalType": "uint256",
          "name": "",
          "type": "uint256"
        }
      ],
      "stateMutability": "view",
      "type": "function"
    },
    {
      "inputs": [
        {
          "internalType": "address",
          "name": "owner",
          "type": "address"
        },
        {
          "internalType": "uint256",
          "name": "index",
          "type": "uint256"
        }
      ],
      "name": "tokenOfOwnerByIndex",
      "outputs": [
        {
          "internalType": "uint256",
          "name": "",
          "type": "uint256"
        }
      ],
      "stateMutability": "view",
      "type": "function"
    },
    {
      "inputs": [
        {
          "internalType": "uint256",
          "name": "tokenId",
          "type": "uint256"
        }
      ],
      "name": "tokenURI",
      "outputs": [
        {
          "internalType": "string",
          "name": "",
          "type": "string"
        }
      ],
      "stateMutability": "view",
      "type": "function"
    },
    {
      "inputs": [],
      "name": "totalSupply",
      "outputs": [
        {
          "internalType": "uint256",
          "name": "",
          "type": "uint256"
        }
      ],
      "stateMutability": "view",
      "type": "function"
    },
    {
      "inputs": [
        {
          "internalType": "address",
          "name": "from",
          "type": "address"
        },
        {
          "internalType": "address",
          "name": "to",
          "type": "address"
        },
        {
          "internalType": "uint256",
          "name": "tokenId",
          "type": "uint256"
        }
      ],
      "name": "transferFrom",
      "outputs": [],
      "stateMutability": "nonpayable",
      "type": "function"
    },
    {
      "inputs": [
        {
          "internalType": "address",
          "name": "newOwner",
          "type": "address"
        }
      ],
      "name": "transferOwnership",
      "outputs": [],
      "stateMutability": "nonpayable",
      "type": "function"
    },
    {
      "inputs": [],
      "name": "unpause",
      "outputs": [],
      "stateMutability": "nonpayable",
      "type": "function"
    },
    {
      "inputs": [
        {
          "internalType": "string",
          "name": "_newBaseURI",
          "type": "string"
        }
      ],
      "name": "updateBaseURI",
      "outputs": [],
      "stateMutability": "nonpayable",
      "type": "function"
    },
    {
      "inputs": [
        {
          "internalType": "uint256",
          "name": "_startTime",
          "type": "uint256"
        }
      ],
      "name": "updatePresaleStart",
      "outputs": [],
      "stateMutability": "nonpayable",
      "type": "function"
    },
    {
      "inputs": [
        {
          "internalType": "uint256",
          "name": "_startTime",
          "type": "uint256"
        }
      ],
      "name": "updatePublicSaleStart",
      "outputs": [],
      "stateMutability": "nonpayable",
      "type": "function"
    },
    {
      "inputs": [
        {
          "internalType": "address",
          "name": "_owner",
          "type": "address"
        }
      ],
      "name": "walletOfOwner",
      "outputs": [
        {
          "internalType": "uint256[]",
          "name": "",
          "type": "uint256[]"
        }
      ],
      "stateMutability": "view",
      "type": "function"
    },
    {
      "inputs": [
        {
          "internalType": "address",
          "name": "",
          "type": "address"
        }
      ],
      "name": "whitelistedAddresses",
      "outputs": [
        {
          "internalType": "uint8",
          "name": "tier",
          "type": "uint8"
        },
        {
          "internalType": "uint8",
          "name": "cap",
          "type": "uint8"
        }
      ],
      "stateMutability": "view",
      "type": "function"
    },
    {
      "inputs": [
        {
          "internalType": "address",
          "name": "",
          "type": "address"
        }
      ],
      "name": "whitelistedPartners",
      "outputs": [
        {
          "internalType": "bool",
          "name": "",
          "type": "bool"
        }
      ],
      "stateMutability": "view",
      "type": "function"
    },
    {
      "inputs": [],
      "name": "withdrawToTreasury",
      "outputs": [],
      "stateMutability": "nonpayable",
      "type": "function"
    }
  ],
  "transactionHash": "0x7dfefc5267539f7a83b843a92dcccfe8c2fbd2dbc9bdc519cbb4fe67008ff790",
  "args": [],
  "solcInputHash": "7eee40750a16122f4c9004a5ea1bc095",
  "bytecode": "0x608060405234801561001057600080fd5b50615184806100206000396000f3fe6080604052600436106103e45760003560e01c8063729ad39e11610208578063a22cb46511610118578063d547741f116100ab578063e985e9c51161007a578063e985e9c514610bbd578063eb4f847b14610c07578063ed1088a414610c1c578063f2fde38b14610c3c578063f9cc060514610c5c57600080fd5b8063d547741f14610b53578063d547cfb714610b73578063e41ee46a14610b88578063e821f77214610b9d57600080fd5b8063c87b56dd116100e7578063c87b56dd14610ade578063ca15c87314610afe578063d2e2a4ff14610b1e578063d430fbb214610b3357600080fd5b8063a22cb46514610a6d578063a4a482cb14610a8d578063aa592f2514610aa9578063b88d4fde14610abe57600080fd5b80639010d07c1161019b57806394985ddd1161016a57806394985ddd146109e557806395d89b4114610a055780639616a05f14610a1a5780639b11503e14610a41578063a217fddf14610a5857600080fd5b80639010d07c1461096557806391d1485414610985578063931688cb146109a557806393ce660d146109c557600080fd5b8063857b3f03116101d7578063857b3f03146108da578063858e83b5146109145780638967112c146109275780638da5cb5b1461094757600080fd5b8063729ad39e146108795780637620de2f146108995780637e80c186146108b05780638456cb59146108c557600080fd5b80632f745c5911610303578063472e7eb4116102965780636352211e116102655780636352211e146107c75780636c10efc3146107e757806370a082311461082f578063715018a61461084f578063722503801461086457600080fd5b8063472e7eb4146107475780634f6ccce71461077457806351830227146107945780635c975abb146107af57600080fd5b80633f4ba83a116102d25780633f4ba83a146106b4578063419c2d73146106c957806342842e0e146106fa578063438b63001461071a57600080fd5b80632f745c591461063e57806332cb6b0c1461065e57806336568abe146106745780633a74f0321461069457600080fd5b80631a6949e31161037b578063248a9ca31161034a578063248a9ca3146105ad57806326e8a929146105dd5780632d2c5565146105fd5780632f2ff15d1461061e57600080fd5b80631a6949e3146105415780632009a43d1461055a578063233a51671461057a57806323b872dd1461058d57600080fd5b8063081812fc116103b7578063081812fc146104be578063095ea7b3146104f6578063177819501461051857806318160ddd1461052b57600080fd5b806301ffc9a7146103e95780630214aef01461041e57806306c933d81461044857806306fdde031461049c575b600080fd5b3480156103f557600080fd5b5061040961040436600461443e565b610c7e565b60405190151581526020015b60405180910390f35b34801561042a57600080fd5b5061043a67011c37937e08000081565b604051908152602001610415565b34801561045457600080fd5b50610482610463366004614477565b6101c76020526000908152604090205460ff8082169161010090041682565b6040805160ff938416815292909116602083015201610415565b3480156104a857600080fd5b506104b1610cc4565b60405161041591906144ea565b3480156104ca57600080fd5b506104de6104d93660046144fd565b610d57565b6040516001600160a01b039091168152602001610415565b34801561050257600080fd5b50610516610511366004614516565b610df3565b005b6105166105263660046145f5565b610f09565b34801561053757600080fd5b506101615461043a565b34801561054d57600080fd5b506101ca54421015610409565b34801561056657600080fd5b50610516610575366004614658565b6111b0565b610516610588366004614721565b61135e565b34801561059957600080fd5b506105166105a83660046147a5565b611750565b3480156105b957600080fd5b5061043a6105c83660046144fd565b60009081526065602052604090206001015490565b3480156105e957600080fd5b506105166105f8366004614818565b611781565b34801561060957600080fd5b506101cb546104de906001600160a01b031681565b34801561062a57600080fd5b506105166106393660046148b4565b611807565b34801561064a57600080fd5b5061043a610659366004614516565b611829565b34801561066a57600080fd5b5061043a61177081565b34801561068057600080fd5b5061051661068f3660046148b4565b6118c0565b3480156106a057600080fd5b5061043a6106af3660046148e0565b6118e2565b3480156106c057600080fd5b50610516611917565b3480156106d557600080fd5b506104096106e4366004614477565b6101c86020526000908152604090205460ff1681565b34801561070657600080fd5b506105166107153660046147a5565b61192e565b34801561072657600080fd5b5061073a610735366004614477565b611949565b60405161041591906148fb565b34801561075357600080fd5b5061076761076236600461493f565b6119ea565b6040516104159190614973565b34801561078057600080fd5b5061043a61078f3660046144fd565b611a8c565b3480156107a057600080fd5b506101ce546104099060ff1681565b3480156107bb57600080fd5b5060c95460ff16610409565b3480156107d357600080fd5b506104de6107e23660046144fd565b611b0f565b3480156107f357600080fd5b506104b16108023660046149a7565b6040805160e09290921b6001600160e01b0319166020830152805160048184030181526024909201905290565b34801561083b57600080fd5b5061043a61084a366004614477565b611b87565b34801561085b57600080fd5b50610516611c0f565b34801561087057600080fd5b506104b1611c75565b34801561088557600080fd5b506105166108943660046149c2565b611d04565b3480156108a557600080fd5b5061043a6101c95481565b3480156108bc57600080fd5b50610516611d50565b3480156108d157600080fd5b50610516611dc1565b3480156108e657600080fd5b5061043a6108f5366004614477565b6001600160a01b031660009081526101d2602052604090205460ff1690565b6105166109223660046148e0565b611dd5565b34801561093357600080fd5b506105166109423660046144fd565b6120d0565b34801561095357600080fd5b5060fb546001600160a01b03166104de565b34801561097157600080fd5b506104de610980366004614a4e565b6120e3565b34801561099157600080fd5b506104096109a03660046148b4565b612102565b3480156109b157600080fd5b506105166109c036600461493f565b61212d565b3480156109d157600080fd5b506105166109e03660046144fd565b612155565b3480156109f157600080fd5b50610516610a00366004614a4e565b612168565b348015610a1157600080fd5b506104b16121ca565b348015610a2657600080fd5b50610a2f601081565b60405160ff9091168152602001610415565b348015610a4d57600080fd5b5061043a6101ca5481565b348015610a6457600080fd5b5061043a600081565b348015610a7957600080fd5b50610516610a88366004614a7e565b6121da565b348015610a9957600080fd5b5061043a67013fbe85edc9000081565b348015610ab557600080fd5b5061043a60c881565b348015610aca57600080fd5b50610516610ad9366004614ab5565b6122a0565b348015610aea57600080fd5b506104b1610af93660046144fd565b6122d8565b348015610b0a57600080fd5b5061043a610b193660046144fd565b612459565b348015610b2a57600080fd5b5061043a612470565b348015610b3f57600080fd5b50610516610b4e3660046144fd565b612576565b348015610b5f57600080fd5b50610516610b6e3660046148b4565b612589565b348015610b7f57600080fd5b506104b1612593565b348015610b9457600080fd5b50610a2f600881565b348015610ba957600080fd5b50610516610bb8366004614b10565b6125a1565b348015610bc957600080fd5b50610409610bd8366004614b10565b6001600160a01b0391821660009081526101326020908152604080832093909416825291909152205460ff1690565b348015610c1357600080fd5b506104096125d1565b348015610c2857600080fd5b5061043a610c373660046144fd565b6125ed565b348015610c4857600080fd5b50610516610c57366004614477565b61260f565b348015610c6857600080fd5b50610c716126d7565b6040516104159190614b3a565b60006001600160e01b03198216635a05180f60e01b1480610caf57506001600160e01b0319821663780e9d6360e01b145b80610cbe5750610cbe82612769565b92915050565b606061012d8054610cd490614b78565b80601f0160208091040260200160405190810160405280929190818152602001828054610d0090614b78565b8015610d4d5780601f10610d2257610100808354040283529160200191610d4d565b820191906000526020600020905b815481529060010190602001808311610d3057829003601f168201915b5050505050905090565b600081815261012f60205260408120546001600160a01b0316610dd65760405162461bcd60e51b815260206004820152602c60248201527f4552433732313a20617070726f76656420717565727920666f72206e6f6e657860448201526b34b9ba32b73a103a37b5b2b760a11b60648201526084015b60405180910390fd5b50600090815261013160205260409020546001600160a01b031690565b6000610dfe82611b0f565b9050806001600160a01b0316836001600160a01b03161415610e6c5760405162461bcd60e51b815260206004820152602160248201527f4552433732313a20617070726f76616c20746f2063757272656e74206f776e656044820152603960f91b6064820152608401610dcd565b336001600160a01b0382161480610e885750610e888133610bd8565b610efa5760405162461bcd60e51b815260206004820152603860248201527f4552433732313a20617070726f76652063616c6c6572206973206e6f74206f7760448201527f6e6572206e6f7220617070726f76656420666f7220616c6c00000000000000006064820152608401610dcd565b610f04838361278e565b505050565b333214610f285760405162461bcd60e51b8152600401610dcd90614bad565b60c95460ff1615610f4b5760405162461bcd60e51b8152600401610dcd90614bdd565b610f536125d1565b610f6f5760405162461bcd60e51b8152600401610dcd90614c07565b6101d382604051610f809190614c4b565b9081526040519081900360200190205460ff1615610fe05760405162461bcd60e51b815260206004820152601c60248201527f426f626279466973636865723a204e6f6e6365207761732075736564000000006044820152606401610dcd565b6101d454610fff903390849084906001600160a01b03166000806127fd565b61104b5760405162461bcd60e51b815260206004820152601f60248201527f426f626279466973636865723a20496e76616c6964207369676e6174757265006044820152606401610dcd565b3360009081526101c8602052604090205460ff16156110bb5760405162461bcd60e51b815260206004820152602660248201527f426f626279466973636865723a20596f75206861766520616c7265616479206d604482015265696e7465642160d01b6064820152608401610dcd565b67011c37937e08000034146110e25760405162461bcd60e51b8152600401610dcd90614c67565b6117706110ef6101615490565b6110fa906001614cb4565b11156111185760405162461bcd60e51b8152600401610dcd90614ccc565b6101cb546040516000916001600160a01b03169034908381818185875af1925050503d8060008114611166576040519150601f19603f3d011682016040523d82523d6000602084013e61116b565b606091505b505090508061118c5760405162461bcd60e51b8152600401610dcd90614d11565b3360008181526101c860205260409020805460ff19166001179055610f049061285c565b600054610100900460ff16806111c9575060005460ff16155b6111e55760405162461bcd60e51b8152600401610dcd90614d65565b600054610100900460ff16158015611207576000805461ffff19166101011790555b61120f612942565b6112176129cd565b61121f612a34565b6112676040518060400160405280600c81526020016b2137b1313ca334b9b1b432b960a11b81525060405180604001604052806002815260200161212160f11b815250612a9b565b61126f612b32565b61127986866125a1565b611284600033612b90565b61128f60008a611807565b8a516112a3906101cd9060208e019061432f565b506101cb80546001600160a01b0319166001600160a01b038b161790556101c98890556101ca8790556040805160608101825267011c37937e0800008152670101925daa374000602082015266e6ed27d66680009181019190915261130d906101c69060036143af565b506101cf8490556101d08390556101d480546001600160a01b0319166001600160a01b03841617905561133f8a61260f565b8015611351576000805461ff00191690555b5050505050505050505050565b33321461137d5760405162461bcd60e51b8152600401610dcd90614bad565b60c95460ff16156113a05760405162461bcd60e51b8152600401610dcd90614bdd565b6113a86125d1565b6113c45760405162461bcd60e51b8152600401610dcd90614c07565b6101d3826040516113d59190614c4b565b9081526040519081900360200190205460ff16156114355760405162461bcd60e51b815260206004820152601c60248201527f426f626279466973636865723a204e6f6e6365207761732075736564000000006044820152606401610dcd565b6101d454611459903390849084906001600160a01b031660ff808a169089166127fd565b6114a55760405162461bcd60e51b815260206004820152601f60248201527f426f626279466973636865723a20496e76616c6964207369676e6174757265006044820152606401610dcd565b60008360ff16116115025760405162461bcd60e51b815260206004820152602160248201527f426f626279466973636865723a2057686974656c6973742054696572203c20316044820152601760f91b6064820152608401610dcd565b60038360ff1611156115605760405162461bcd60e51b815260206004820152602160248201527f426f626279466973636865723a2057686974656c6973742054696572203e20336044820152601760f91b6064820152608401610dcd565b3360009081526101d2602052604090205460ff8085169161158391879116614db3565b60ff1611156115e25760405162461bcd60e51b815260206004820152602560248201527f426f626279466973636865723a2050726573616c65204c696d69742045786365604482015264656465642160d81b6064820152608401610dcd565b60ff84166101c66115f4600186614dd8565b60ff168154811061160757611607614dfb565b906000526020600020015461161c9190614e11565b341461163a5760405162461bcd60e51b8152600401610dcd90614c67565b6117708460ff1661164b6101615490565b6116559190614cb4565b11156116735760405162461bcd60e51b8152600401610dcd90614ccc565b6101cb546040516000916001600160a01b03169034908381818185875af1925050503d80600081146116c1576040519150601f19603f3d011682016040523d82523d6000602084013e6116c6565b606091505b50509050806116e75760405162461bcd60e51b8152600401610dcd90614d11565b60005b8560ff16811015611748573360009081526101d260205260408120805460ff169161171483614e30565b91906101000a81548160ff021916908360ff160217905550506117363361285c565b8061174081614e50565b9150506116ea565b505050505050565b61175a3382612b9a565b6117765760405162461bcd60e51b8152600401610dcd90614e6b565b610f04838383612c93565b600061178d8133612e41565b60005b8251811015610f04576101d58382815181106117ae576117ae614dfb565b60209081029190910181015182546001810184556000938452919092206008820401805460079092166004026101000a63ffffffff818102199093169290931692909202179055806117ff81614e50565b915050611790565b6118118282612ea5565b6000828152609760205260409020610f049082612ecb565b600061183483611b87565b82106118965760405162461bcd60e51b815260206004820152602b60248201527f455243373231456e756d657261626c653a206f776e657220696e646578206f7560448201526a74206f6620626f756e647360a81b6064820152608401610dcd565b506001600160a01b0391909116600090815261015f60209081526040808320938352929052205490565b6118ca8282612ee0565b6000828152609760205260409020610f049082612f5a565b60006101c66118f2600184614dd8565b60ff168154811061190557611905614dfb565b90600052602060002001549050919050565b60006119238133612e41565b61192b612f6f565b50565b610f04838383604051806020016040528060008152506122a0565b6060600061195683611b87565b90506000816001600160401b0381111561197257611972614540565b60405190808252806020026020018201604052801561199b578160200160208202803683370190505b50905060005b828110156119e2576119b38582611829565b8282815181106119c5576119c5614dfb565b6020908102919091010152806119da81614e50565b9150506119a1565b509392505050565b6119f26143f5565b604051806080016040528083600081518110611a1057611a10614dfb565b0160209081015160f81c8252845191019084906001908110611a3457611a34614dfb565b0160209081015160f81c8252845191019084906002908110611a5857611a58614dfb565b0160209081015160f81c8252845191019084906003908110611a7c57611a7c614dfb565b016020015160f81c905292915050565b6000611a986101615490565b8210611afb5760405162461bcd60e51b815260206004820152602c60248201527f455243373231456e756d657261626c653a20676c6f62616c20696e646578206f60448201526b7574206f6620626f756e647360a01b6064820152608401610dcd565b610161828154811061190557611905614dfb565b600081815261012f60205260408120546001600160a01b031680610cbe5760405162461bcd60e51b815260206004820152602960248201527f4552433732313a206f776e657220717565727920666f72206e6f6e657869737460448201526832b73a103a37b5b2b760b91b6064820152608401610dcd565b60006001600160a01b038216611bf25760405162461bcd60e51b815260206004820152602a60248201527f4552433732313a2062616c616e636520717565727920666f7220746865207a65604482015269726f206164647265737360b01b6064820152608401610dcd565b506001600160a01b03166000908152610130602052604090205490565b60fb546001600160a01b03163314611c695760405162461bcd60e51b815260206004820181905260248201527f4f776e61626c653a2063616c6c6572206973206e6f7420746865206f776e65726044820152606401610dcd565b611c736000613002565b565b6101cd8054611c8390614b78565b80601f0160208091040260200160405190810160405280929190818152602001828054611caf90614b78565b8015611cfc5780601f10611cd157610100808354040283529160200191611cfc565b820191906000526020600020905b815481529060010190602001808311611cdf57829003601f168201915b505050505081565b6000611d108133612e41565b60005b8251811015610f0457611d3e838281518110611d3157611d31614dfb565b602002602001015161285c565b80611d4881614e50565b915050611d13565b6000611d5c8133612e41565b6101cb546040516000916001600160a01b03169047908381818185875af1925050503d8060008114611daa576040519150601f19603f3d011682016040523d82523d6000602084013e611daf565b606091505b5050905080611dbd57600080fd5b5050565b6000611dcd8133612e41565b61192b613054565b333214611df45760405162461bcd60e51b8152600401610dcd90614bad565b60c95460ff1615611e175760405162461bcd60e51b8152600401610dcd90614bdd565b6101ca54421015611e7d5760405162461bcd60e51b815260206004820152602a60248201527f426f626279466973636865723a205075626c69632073616c6520686173206e6f6044820152697420737461727465642160b01b6064820152608401610dcd565b3360009081526101d16020526040902054601090611e9f90839060ff16614db3565b60ff161115611f085760405162461bcd60e51b815260206004820152602f60248201527f426f626279466973636865723a204d6178696d756d20616d6f756e74206f662060448201526e6d696e74732065786365656465642160881b6064820152608401610dcd565b611f1460c86008614ebc565b8160ff161115611f8c5760405162461bcd60e51b815260206004820152603b60248201527f426f626279466973636865723a204d6178696d756d206d696e7420616d6f756e60448201527f7420706572207472616e73616374696f6e2065786365656465642100000000006064820152608401610dcd565b6117708160ff16611f9d6101615490565b611fa79190614cb4565b1115611fc55760405162461bcd60e51b8152600401610dcd90614ccc565b611fda60ff821667013fbe85edc90000614e11565b3414611ff85760405162461bcd60e51b8152600401610dcd90614c67565b6101cb546040516000916001600160a01b03169034908381818185875af1925050503d8060008114612046576040519150601f19603f3d011682016040523d82523d6000602084013e61204b565b606091505b505090508061206c5760405162461bcd60e51b8152600401610dcd90614d11565b3360009081526101d160205260408120805484929061208f90849060ff16614db3565b92506101000a81548160ff021916908360ff16021790555060005b8260ff16811015610f04576120be3361285c565b806120c881614e50565b9150506120aa565b60006120dc8133612e41565b506101c955565b60008281526097602052604081206120fb90836130ac565b9392505050565b60009182526065602090815260408084206001600160a01b0393909316845291905290205460ff1690565b60006121398133612e41565b61214c6101ce805460ff19166001179055565b611dbd826130b8565b60006121618133612e41565b506101ca55565b610192546001600160a01b031633146121c35760405162461bcd60e51b815260206004820152601f60248201527f4f6e6c7920565246436f6f7264696e61746f722063616e2066756c66696c6c006044820152606401610dcd565b6101d75550565b606061012e8054610cd490614b78565b6001600160a01b0382163314156122335760405162461bcd60e51b815260206004820152601960248201527f4552433732313a20617070726f766520746f2063616c6c6572000000000000006044820152606401610dcd565b336000818152610132602090815260408083206001600160a01b03871680855290835292819020805460ff191686151590811790915590519081529192917f17307eab39ab6107e8899845ad3d59bd9653f200f220920489ca2b5937696c31910160405180910390a35050565b6122aa3383612b9a565b6122c65760405162461bcd60e51b8152600401610dcd90614e6b565b6122d2848484846130cc565b50505050565b600081815261012f60205260409020546060906001600160a01b03166123585760405162461bcd60e51b815260206004820152602f60248201527f4552433732314d657461646174613a2055524920717565727920666f72206e6f60448201526e3732bc34b9ba32b73a103a37b5b2b760891b6064820152608401610dcd565b60006123626130ff565b6101ce5490915060ff16612404576101cd805461237e90614b78565b80601f01602080910402602001604051908101604052809291908181526020018280546123aa90614b78565b80156123f75780601f106123cc576101008083540402835291602001916123f7565b820191906000526020600020905b8154815290600101906020018083116123da57829003601f168201915b5050505050915050919050565b600081511161242257604051806020016040528060008152506120fb565b8061242c8461310f565b60405160200161243d929190614ed3565b6040516020818303038152906040529392505050565b50919050565b6000818152609760205260408120610cbe9061320c565b60008061247d8133612e41565b6101d054610191546040516370a0823160e01b81523060048201526001600160a01b03909116906370a082319060240160206040518083038186803b1580156124c557600080fd5b505afa1580156124d9573d6000803e3d6000fd5b505050506040513d601f19601f820116820180604052508101906124fd9190614f02565b101561255f5760405162461bcd60e51b815260206004820152602b60248201527f4e6f7420656e6f756768204c494e4b202d2066696c6c20636f6e74726163742060448201526a1dda5d1a0819985d58d95d60aa1b6064820152608401610dcd565b61256f6101cf546101d054613216565b91505b5090565b60006125828133612e41565b506101d755565b6118ca8282613364565b6101cc8054611c8390614b78565b61019280546001600160a01b039384166001600160a01b0319918216179091556101918054929093169116179055565b60006101c95442101580156125e857506101ca5442105b905090565b6101c681815481106125fe57600080fd5b600091825260209091200154905081565b60fb546001600160a01b031633146126695760405162461bcd60e51b815260206004820181905260248201527f4f776e61626c653a2063616c6c6572206973206e6f7420746865206f776e65726044820152606401610dcd565b6001600160a01b0381166126ce5760405162461bcd60e51b815260206004820152602660248201527f4f776e61626c653a206e6577206f776e657220697320746865207a65726f206160448201526564647265737360d01b6064820152608401610dcd565b61192b81613002565b606060006126e58133612e41565b6101d580548060200260200160405190810160405280929190818152602001828054801561275e57602002820191906000526020600020906000905b82829054906101000a900463ffffffff1663ffffffff16815260200190600401906020826003010492830192600103820291508084116127215790505b505050505091505090565b60006001600160e01b0319821663780e9d6360e01b1480610cbe5750610cbe8261338a565b60008181526101316020526040902080546001600160a01b0319166001600160a01b03841690811790915581906127c482611b0f565b6001600160a01b03167f8c5be1e5ebec7d5bd14f71427d1e84f3dd0314c0f7b2291e5b200ac8c7c3b92560405160405180910390a45050565b600080878785856040516020016128179493929190614f1b565b60408051601f198184030181529190528051602090910120905061283b81876133ca565b6001600160a01b0316856001600160a01b0316149150509695505050505050565b6101d5546128be5760405162461bcd60e51b815260206004820152602960248201527f426f626279466973636865723a204e6f206d6f726520617661696c61626c652060448201526850726f70657274797360b81b6064820152608401610dcd565b60006128cb6101d66133e6565b6101d580549192506000916128e09084614f75565b815481106128f0576128f0614dfb565b90600052602060002090600891828204019190066004029054906101000a900463ffffffff1663ffffffff1690506129386101d580549050836129339190614f75565b61348e565b610f04838261356e565b600054610100900460ff168061295b575060005460ff16155b6129775760405162461bcd60e51b8152600401610dcd90614d65565b600054610100900460ff16158015612999576000805461ffff19166101011790555b6129a16136bf565b6129a96136bf565b6129b16136bf565b6129b96136bf565b801561192b576000805461ff001916905550565b600054610100900460ff16806129e6575060005460ff16155b612a025760405162461bcd60e51b8152600401610dcd90614d65565b600054610100900460ff16158015612a24576000805461ffff19166101011790555b612a2c6136bf565b6129b9613729565b600054610100900460ff1680612a4d575060005460ff16155b612a695760405162461bcd60e51b8152600401610dcd90614d65565b600054610100900460ff16158015612a8b576000805461ffff19166101011790555b612a936136bf565b6129b9613789565b600054610100900460ff1680612ab4575060005460ff16155b612ad05760405162461bcd60e51b8152600401610dcd90614d65565b600054610100900460ff16158015612af2576000805461ffff19166101011790555b8251612b069061012d90602086019061432f565b508151612b1b9061012e90602085019061432f565b508015610f04576000805461ff0019169055505050565b600054610100900460ff1680612b4b575060005460ff16155b612b675760405162461bcd60e51b8152600401610dcd90614d65565b600054610100900460ff161580156129a1576000805461ffff19166101011790556129a96136bf565b61181182826137fe565b600081815261012f60205260408120546001600160a01b0316612c145760405162461bcd60e51b815260206004820152602c60248201527f4552433732313a206f70657261746f7220717565727920666f72206e6f6e657860448201526b34b9ba32b73a103a37b5b2b760a11b6064820152608401610dcd565b6000612c1f83611b0f565b9050806001600160a01b0316846001600160a01b03161480612c5a5750836001600160a01b0316612c4f84610d57565b6001600160a01b0316145b80612c8b57506001600160a01b038082166000908152610132602090815260408083209388168352929052205460ff165b949350505050565b826001600160a01b0316612ca682611b0f565b6001600160a01b031614612d0e5760405162461bcd60e51b815260206004820152602960248201527f4552433732313a207472616e73666572206f6620746f6b656e2074686174206960448201526839903737ba1037bbb760b91b6064820152608401610dcd565b6001600160a01b038216612d705760405162461bcd60e51b8152602060048201526024808201527f4552433732313a207472616e7366657220746f20746865207a65726f206164646044820152637265737360e01b6064820152608401610dcd565b612d7b838383613808565b612d8660008261278e565b6001600160a01b038316600090815261013060205260408120805460019290612db0908490614ebc565b90915550506001600160a01b038216600090815261013060205260408120805460019290612ddf908490614cb4565b9091555050600081815261012f602052604080822080546001600160a01b0319166001600160a01b0386811691821790925591518493918716917fddf252ad1be2c89b69c2b068fc378daa952ba7f163c4a11628f55a4df523b3ef91a4505050565b612e4b8282612102565b611dbd57612e63816001600160a01b03166014613836565b612e6e836020613836565b604051602001612e7f929190614f89565b60408051601f198184030181529082905262461bcd60e51b8252610dcd916004016144ea565b600082815260656020526040902060010154612ec18133612e41565b610f0483836139d1565b60006120fb836001600160a01b038416613a57565b6001600160a01b0381163314612f505760405162461bcd60e51b815260206004820152602f60248201527f416363657373436f6e74726f6c3a2063616e206f6e6c792072656e6f756e636560448201526e103937b632b9903337b91039b2b63360891b6064820152608401610dcd565b611dbd8282613aa6565b60006120fb836001600160a01b038416613b0d565b60c95460ff16612fb85760405162461bcd60e51b815260206004820152601460248201527314185d5cd8589b194e881b9bdd081c185d5cd95960621b6044820152606401610dcd565b60c9805460ff191690557f5db9ee0a495bf2e6ff9c91a7834c1ba4fdd244a5e8aa4e537bd38aeae4b073aa335b6040516001600160a01b03909116815260200160405180910390a1565b60fb80546001600160a01b038381166001600160a01b0319831681179093556040519116919082907f8be0079c531659141344cd1fd0a4f28419497f9722a3daafe3b4186f6b6457e090600090a35050565b60c95460ff16156130775760405162461bcd60e51b8152600401610dcd90614bdd565b60c9805460ff191660011790557f62e78cea01bee320cd4e420270b5ea74000d11b0c9f74754ebdbfc544b05a258612fe53390565b60006120fb8383613c00565b8051611dbd906101cc90602084019061432f565b6130d7848484612c93565b6130e384848484613c2a565b6122d25760405162461bcd60e51b8152600401610dcd90614ffe565b60606101cc8054610cd490614b78565b6060816131335750506040805180820190915260018152600360fc1b602082015290565b8160005b811561315d578061314781614e50565b91506131569050600a83615050565b9150613137565b6000816001600160401b0381111561317757613177614540565b6040519080825280601f01601f1916602001820160405280156131a1576020820181803683370190505b5090505b8415612c8b576131b6600183614ebc565b91506131c3600a86614f75565b6131ce906030614cb4565b60f81b8183815181106131e3576131e3614dfb565b60200101906001600160f81b031916908160001a905350613205600a86615050565b94506131a5565b6000610cbe825490565b6101915461019254604080516020810186905260008183018190528251808303840181526060830193849052630200057560e51b909352936001600160a01b0390811693634000aea093613274939290911691879190606401615064565b602060405180830381600087803b15801561328e57600080fd5b505af11580156132a2573d6000803e3d6000fd5b505050506040513d601f19601f820116820180604052508101906132c69190615094565b5060008381526101936020818152604080842054815180840189905280830186905230606082015260808082018390528351808303909101815260a090910190925281519183019190912093879052919052613323906001614cb4565b60008581526101936020526040902055612c8b8482604080516020808201949094528082019290925280518083038201815260609092019052805191012090565b6000828152606560205260409020600101546133808133612e41565b610f048383613aa6565b60006001600160e01b031982166380ac58cd60e01b14806133bb57506001600160e01b03198216635b5e139f60e01b145b80610cbe5750610cbe82613d37565b60008060006133d98585613d5c565b915091506119e281613dcc565b600033325a845460018601546040516bffffffffffffffffffffffff19606096871b811660208301529490951b90931660348501526048840191909152606883015260888201524260a88201524360c88201819052804060e883015260631901406101088201526101280160408051601f198184030181528282528051602091820120908301520160408051601f198184030181529190528051602090910120918290555090565b6101d554811061349d57600080fd5b6101d580546134ae90600190614ebc565b815481106134be576134be614dfb565b90600052602060002090600891828204019190066004029054906101000a900463ffffffff166101d582815481106134f8576134f8614dfb565b90600052602060002090600891828204019190066004026101000a81548163ffffffff021916908363ffffffff1602179055506101d580548061353d5761353d6150b1565b600082815260209020600860001990920191820401805463ffffffff600460078516026101000a0219169055905550565b6001600160a01b0382166135c45760405162461bcd60e51b815260206004820181905260248201527f4552433732313a206d696e7420746f20746865207a65726f20616464726573736044820152606401610dcd565b600081815261012f60205260409020546001600160a01b03161561362a5760405162461bcd60e51b815260206004820152601c60248201527f4552433732313a20746f6b656e20616c7265616479206d696e746564000000006044820152606401610dcd565b61363660008383613808565b6001600160a01b038216600090815261013060205260408120805460019290613660908490614cb4565b9091555050600081815261012f602052604080822080546001600160a01b0319166001600160a01b03861690811790915590518392907fddf252ad1be2c89b69c2b068fc378daa952ba7f163c4a11628f55a4df523b3ef908290a45050565b600054610100900460ff16806136d8575060005460ff16155b6136f45760405162461bcd60e51b8152600401610dcd90614d65565b600054610100900460ff161580156129b9576000805461ffff1916610101179055801561192b576000805461ff001916905550565b600054610100900460ff1680613742575060005460ff16155b61375e5760405162461bcd60e51b8152600401610dcd90614d65565b600054610100900460ff16158015613780576000805461ffff19166101011790555b6129b933613002565b600054610100900460ff16806137a2575060005460ff16155b6137be5760405162461bcd60e51b8152600401610dcd90614d65565b600054610100900460ff161580156137e0576000805461ffff19166101011790555b60c9805460ff19169055801561192b576000805461ff001916905550565b611dbd82826139d1565b60c95460ff161561382b5760405162461bcd60e51b8152600401610dcd90614bdd565b610f04838383613f87565b60606000613845836002614e11565b613850906002614cb4565b6001600160401b0381111561386757613867614540565b6040519080825280601f01601f191660200182016040528015613891576020820181803683370190505b509050600360fc1b816000815181106138ac576138ac614dfb565b60200101906001600160f81b031916908160001a905350600f60fb1b816001815181106138db576138db614dfb565b60200101906001600160f81b031916908160001a90535060006138ff846002614e11565b61390a906001614cb4565b90505b6001811115613982576f181899199a1a9b1b9c1cb0b131b232b360811b85600f166010811061393e5761393e614dfb565b1a60f81b82828151811061395457613954614dfb565b60200101906001600160f81b031916908160001a90535060049490941c9361397b816150c7565b905061390d565b5083156120fb5760405162461bcd60e51b815260206004820181905260248201527f537472696e67733a20686578206c656e67746820696e73756666696369656e746044820152606401610dcd565b6139db8282612102565b611dbd5760008281526065602090815260408083206001600160a01b03851684529091529020805460ff19166001179055613a133390565b6001600160a01b0316816001600160a01b0316837f2f8788117e7eff1d82e926ec794901d17c78024a50270940304540a733656f0d60405160405180910390a45050565b6000818152600183016020526040812054613a9e57508154600181810184556000848152602080822090930184905584548482528286019093526040902091909155610cbe565b506000610cbe565b613ab08282612102565b15611dbd5760008281526065602090815260408083206001600160a01b0385168085529252808320805460ff1916905551339285917ff6391f5c32d9c69d2a47ea670b442974b53935d1edc7fd64eb21e047a839171b9190a45050565b60008181526001830160205260408120548015613bf6576000613b31600183614ebc565b8554909150600090613b4590600190614ebc565b9050818114613baa576000866000018281548110613b6557613b65614dfb565b9060005260206000200154905080876000018481548110613b8857613b88614dfb565b6000918252602080832090910192909255918252600188019052604090208390555b8554869080613bbb57613bbb6150b1565b600190038181906000526020600020016000905590558560010160008681526020019081526020016000206000905560019350505050610cbe565b6000915050610cbe565b6000826000018281548110613c1757613c17614dfb565b9060005260206000200154905092915050565b60006001600160a01b0384163b15613d2c57604051630a85bd0160e11b81526001600160a01b0385169063150b7a0290613c6e9033908990889088906004016150de565b602060405180830381600087803b158015613c8857600080fd5b505af1925050508015613cb8575060408051601f3d908101601f19168201909252613cb59181019061511b565b60015b613d12573d808015613ce6576040519150601f19603f3d011682016040523d82523d6000602084013e613ceb565b606091505b508051613d0a5760405162461bcd60e51b8152600401610dcd90614ffe565b805181602001fd5b6001600160e01b031916630a85bd0160e11b149050612c8b565b506001949350505050565b60006001600160e01b03198216635a05180f60e01b1480610cbe5750610cbe82614041565b600080825160411415613d935760208301516040840151606085015160001a613d8787828585614076565b94509450505050613dc5565b825160401415613dbd5760208301516040840151613db2868383614163565b935093505050613dc5565b506000905060025b9250929050565b6000816004811115613de057613de0615138565b1415613de95750565b6001816004811115613dfd57613dfd615138565b1415613e4b5760405162461bcd60e51b815260206004820152601860248201527f45434453413a20696e76616c6964207369676e617475726500000000000000006044820152606401610dcd565b6002816004811115613e5f57613e5f615138565b1415613ead5760405162461bcd60e51b815260206004820152601f60248201527f45434453413a20696e76616c6964207369676e6174757265206c656e677468006044820152606401610dcd565b6003816004811115613ec157613ec1615138565b1415613f1a5760405162461bcd60e51b815260206004820152602260248201527f45434453413a20696e76616c6964207369676e6174757265202773272076616c604482015261756560f01b6064820152608401610dcd565b6004816004811115613f2e57613f2e615138565b141561192b5760405162461bcd60e51b815260206004820152602260248201527f45434453413a20696e76616c6964207369676e6174757265202776272076616c604482015261756560f01b6064820152608401610dcd565b6001600160a01b038316613fe457613fdf816101618054600083815261016260205260408120829055600182018355919091527fafbb1c043347995df017ce3291b765e028ad5f784d2aa00c3f5e073760a4de8b0155565b614007565b816001600160a01b0316836001600160a01b031614614007576140078382614192565b6001600160a01b03821661401e57610f0481614234565b826001600160a01b0316826001600160a01b031614610f0457610f0482826142e9565b60006001600160e01b03198216637965db0b60e01b1480610cbe57506301ffc9a760e01b6001600160e01b0319831614610cbe565b6000807f7fffffffffffffffffffffffffffffff5d576e7357a4501ddfe92f46681b20a08311156140ad575060009050600361415a565b8460ff16601b141580156140c557508460ff16601c14155b156140d6575060009050600461415a565b6040805160008082526020820180845289905260ff881692820192909252606081018690526080810185905260019060a0016020604051602081039080840390855afa15801561412a573d6000803e3d6000fd5b5050604051601f1901519150506001600160a01b0381166141535760006001925092505061415a565b9150600090505b94509492505050565b6000806001600160ff1b03831660ff84901c601b0161418487828885614076565b935093505050935093915050565b6000600161419f84611b87565b6141a99190614ebc565b600083815261016060205260409020549091508082146141ff576001600160a01b038416600090815261015f60209081526040808320858452825280832054848452818420819055835261016090915290208190555b506000918252610160602090815260408084208490556001600160a01b03909416835261015f81528383209183525290812055565b6101615460009061424790600190614ebc565b60008381526101626020526040812054610161805493945090928490811061427157614271614dfb565b9060005260206000200154905080610161838154811061429357614293614dfb565b600091825260208083209091019290925582815261016290915260408082208490558582528120556101618054806142cd576142cd6150b1565b6001900381819060005260206000200160009055905550505050565b60006142f483611b87565b6001600160a01b03909316600090815261015f6020908152604080832086845282528083208590559382526101609052919091209190915550565b82805461433b90614b78565b90600052602060002090601f01602090048101928261435d57600085556143a3565b82601f1061437657805160ff19168380011785556143a3565b828001600101855582156143a3579182015b828111156143a3578251825591602001919060010190614388565b50612572929150614413565b8280548282559060005260206000209081019282156143a3579160200282015b828111156143a357825182906001600160401b03169055916020019190600101906143cf565b60405180608001604052806004906020820280368337509192915050565b5b808211156125725760008155600101614414565b6001600160e01b03198116811461192b57600080fd5b60006020828403121561445057600080fd5b81356120fb81614428565b80356001600160a01b038116811461447257600080fd5b919050565b60006020828403121561448957600080fd5b6120fb8261445b565b60005b838110156144ad578181015183820152602001614495565b838111156122d25750506000910152565b600081518084526144d6816020860160208601614492565b601f01601f19169290920160200192915050565b6020815260006120fb60208301846144be565b60006020828403121561450f57600080fd5b5035919050565b6000806040838503121561452957600080fd5b6145328361445b565b946020939093013593505050565b634e487b7160e01b600052604160045260246000fd5b604051601f8201601f191681016001600160401b038111828210171561457e5761457e614540565b604052919050565b600082601f83011261459757600080fd5b81356001600160401b038111156145b0576145b0614540565b6145c3601f8201601f1916602001614556565b8181528460208386010111156145d857600080fd5b816020850160208301376000918101602001919091529392505050565b6000806040838503121561460857600080fd5b82356001600160401b038082111561461f57600080fd5b61462b86838701614586565b9350602085013591508082111561464157600080fd5b5061464e85828601614586565b9150509250929050565b6000806000806000806000806000806101408b8d03121561467857600080fd5b8a356001600160401b0381111561468e57600080fd5b61469a8d828e01614586565b9a50506146a960208c0161445b565b98506146b760408c0161445b565b975060608b0135965060808b013595506146d360a08c0161445b565b94506146e160c08c0161445b565b935060e08b013592506101008b013591506146ff6101208c0161445b565b90509295989b9194979a5092959850565b803560ff8116811461447257600080fd5b6000806000806080858703121561473757600080fd5b61474085614710565b935061474e60208601614710565b925060408501356001600160401b038082111561476a57600080fd5b61477688838901614586565b9350606087013591508082111561478c57600080fd5b5061479987828801614586565b91505092959194509250565b6000806000606084860312156147ba57600080fd5b6147c38461445b565b92506147d16020850161445b565b9150604084013590509250925092565b60006001600160401b038211156147fa576147fa614540565b5060051b60200190565b803563ffffffff8116811461447257600080fd5b6000602080838503121561482b57600080fd5b82356001600160401b0381111561484157600080fd5b8301601f8101851361485257600080fd5b8035614865614860826147e1565b614556565b81815260059190911b8201830190838101908783111561488457600080fd5b928401925b828410156148a95761489a84614804565b82529284019290840190614889565b979650505050505050565b600080604083850312156148c757600080fd5b823591506148d76020840161445b565b90509250929050565b6000602082840312156148f257600080fd5b6120fb82614710565b6020808252825182820181905260009190848201906040850190845b8181101561493357835183529284019291840191600101614917565b50909695505050505050565b60006020828403121561495157600080fd5b81356001600160401b0381111561496757600080fd5b612c8b84828501614586565b60808101818360005b600481101561499e57815160ff1683526020928301929091019060010161497c565b50505092915050565b6000602082840312156149b957600080fd5b6120fb82614804565b600060208083850312156149d557600080fd5b82356001600160401b038111156149eb57600080fd5b8301601f810185136149fc57600080fd5b8035614a0a614860826147e1565b81815260059190911b82018301908381019087831115614a2957600080fd5b928401925b828410156148a957614a3f8461445b565b82529284019290840190614a2e565b60008060408385031215614a6157600080fd5b50508035926020909101359150565b801515811461192b57600080fd5b60008060408385031215614a9157600080fd5b614a9a8361445b565b91506020830135614aaa81614a70565b809150509250929050565b60008060008060808587031215614acb57600080fd5b614ad48561445b565b9350614ae26020860161445b565b92506040850135915060608501356001600160401b03811115614b0457600080fd5b61479987828801614586565b60008060408385031215614b2357600080fd5b614b2c8361445b565b91506148d76020840161445b565b6020808252825182820181905260009190848201906040850190845b8181101561493357835163ffffffff1683529284019291840191600101614b56565b600181811c90821680614b8c57607f821691505b6020821081141561245357634e487b7160e01b600052602260045260246000fd5b602080825260169082015275426f626279466973636865723a204f6e6c7920454f4160501b604082015260600190565b60208082526010908201526f14185d5cd8589b194e881c185d5cd95960821b604082015260600190565b60208082526024908201527f426f626279466973636865723a2050726573616c65204d696e74206e6f74206f60408201526370656e2160e01b606082015260800190565b60008251614c5d818460208701614492565b9190910192915050565b6020808252601f908201527f426f626279466973636865723a20496e73756666696369656e74204554482100604082015260600190565b634e487b7160e01b600052601160045260246000fd5b60008219821115614cc757614cc7614c9e565b500190565b60208082526025908201527f426f626279466973636865723a204d6178696d756d20537570706c7920526561604082015264636865642160d81b606082015260800190565b60208082526034908201527f426f626279466973636865723a20556e61626c6520746f20666f7277617264206040820152736d65737361676520746f2074726561737572792160601b606082015260800190565b6020808252602e908201527f496e697469616c697a61626c653a20636f6e747261637420697320616c72656160408201526d191e481a5b9a5d1a585b1a5e995960921b606082015260800190565b600060ff821660ff84168060ff03821115614dd057614dd0614c9e565b019392505050565b600060ff821660ff841680821015614df257614df2614c9e565b90039392505050565b634e487b7160e01b600052603260045260246000fd5b6000816000190483118215151615614e2b57614e2b614c9e565b500290565b600060ff821660ff811415614e4757614e47614c9e565b60010192915050565b6000600019821415614e6457614e64614c9e565b5060010190565b60208082526031908201527f4552433732313a207472616e736665722063616c6c6572206973206e6f74206f6040820152701ddb995c881b9bdc88185c1c1c9bdd9959607a1b606082015260800190565b600082821015614ece57614ece614c9e565b500390565b60008351614ee5818460208801614492565b835190830190614ef9818360208801614492565b01949350505050565b600060208284031215614f1457600080fd5b5051919050565b6bffffffffffffffffffffffff198560601b16815260008451614f45816014850160208901614492565b909101601481019390935250603482015260540192915050565b634e487b7160e01b600052601260045260246000fd5b600082614f8457614f84614f5f565b500690565b7f416363657373436f6e74726f6c3a206163636f756e7420000000000000000000815260008351614fc1816017850160208801614492565b7001034b99036b4b9b9b4b733903937b6329607d1b6017918401918201528351614ff2816028840160208801614492565b01602801949350505050565b60208082526032908201527f4552433732313a207472616e7366657220746f206e6f6e20455243373231526560408201527131b2b4bb32b91034b6b83632b6b2b73a32b960711b606082015260800190565b60008261505f5761505f614f5f565b500490565b60018060a01b038416815282602082015260606040820152600061508b60608301846144be565b95945050505050565b6000602082840312156150a657600080fd5b81516120fb81614a70565b634e487b7160e01b600052603160045260246000fd5b6000816150d6576150d6614c9e565b506000190190565b6001600160a01b0385811682528416602082015260408101839052608060608201819052600090615111908301846144be565b9695505050505050565b60006020828403121561512d57600080fd5b81516120fb81614428565b634e487b7160e01b600052602160045260246000fdfea2646970667358221220e9deb5da17d5de78a0cca63803318f800b7816587407fc344aa833559e85a66364736f6c63430008090033",
  "devdoc": {
    "kind": "dev",
    "methods": {
      "airdrop(address[])": {
        "details": "Reserve some NFTS"
      },
      "approve(address,uint256)": {
        "details": "See {IERC721-approve}."
      },
      "balanceOf(address)": {
        "details": "See {IERC721-balanceOf}."
      },
      "getApproved(uint256)": {
        "details": "See {IERC721-getApproved}."
      },
      "getPostalCode(uint32)": {
        "details": "Parse token id"
      },
      "getRoleAdmin(bytes32)": {
        "details": "Returns the admin role that controls `role`. See {grantRole} and {revokeRole}. To change a role's admin, use {_setRoleAdmin}."
      },
      "getRoleMember(bytes32,uint256)": {
        "details": "Returns one of the accounts that have `role`. `index` must be a value between 0 and {getRoleMemberCount}, non-inclusive. Role bearers are not sorted in any particular way, and their ordering may change at any point. WARNING: When using {getRoleMember} and {getRoleMemberCount}, make sure you perform all queries on the same block. See the following https://forum.openzeppelin.com/t/iterating-over-elements-on-enumerableset-in-openzeppelin-contracts/2296[forum post] for more information."
      },
      "getRoleMemberCount(bytes32)": {
        "details": "Returns the number of accounts that have `role`. Can be used together with {getRoleMember} to enumerate all bearers of a role."
      },
      "getWhitelistPrice(uint8)": {
        "details": "Get Whitelist Price"
      },
      "grantRole(bytes32,address)": {
        "details": "Overload {grantRole} to track enumerable memberships"
      },
      "hasRole(bytes32,address)": {
        "details": "Returns `true` if `account` has been granted `role`."
      },
      "initializeRandomness()": {
        "details": "Initialize Randomness using chainlink"
      },
      "isApprovedForAll(address,address)": {
        "details": "See {IERC721-isApprovedForAll}."
      },
      "isPresaleOpen()": {
        "details": "Check if Presale is Open"
      },
      "isPublicSaleOpen()": {
        "details": "Check if Public Sale is Open"
      },
      "mockfulfillRandomness(uint256)": {
        "details": "For local testing"
      },
      "name()": {
        "details": "See {IERC721Metadata-name}."
      },
      "owner()": {
        "details": "Returns the address of the current owner."
      },
      "ownerOf(uint256)": {
        "details": "See {IERC721-ownerOf}."
      },
      "parsePostalCode(bytes)": {
        "details": "Parse postal code"
      },
      "partnerMint(bytes,bytes)": {
        "details": "partner Mint"
      },
      "pause()": {
        "details": "Pauses all token transfers."
      },
      "paused()": {
        "details": "Returns true if the contract is paused, and false otherwise."
      },
      "presaleMint(uint8,uint8,bytes,bytes)": {
        "details": "Presale Mint"
      },
      "privateSaleMintCount(address)": {
        "details": "Returns mint count during private sale"
      },
      "publicMint(uint8)": {
        "details": "Public sale"
      },
      "pushAvailable(uint32[])": {
        "details": "Set Available mints"
      },
      "renounceOwnership()": {
        "details": "Leaves the contract without owner. It will not be possible to call `onlyOwner` functions anymore. Can only be called by the current owner. NOTE: Renouncing ownership will leave the contract without an owner, thereby removing any functionality that is only available to the owner."
      },
      "renounceRole(bytes32,address)": {
        "details": "Overload {renounceRole} to track enumerable memberships"
      },
      "revokeRole(bytes32,address)": {
        "details": "Overload {revokeRole} to track enumerable memberships"
      },
      "safeTransferFrom(address,address,uint256)": {
        "details": "See {IERC721-safeTransferFrom}."
      },
      "safeTransferFrom(address,address,uint256,bytes)": {
        "details": "See {IERC721-safeTransferFrom}."
      },
      "setApprovalForAll(address,bool)": {
        "details": "See {IERC721-setApprovalForAll}."
      },
      "symbol()": {
        "details": "See {IERC721Metadata-symbol}."
      },
      "tokenByIndex(uint256)": {
        "details": "See {IERC721Enumerable-tokenByIndex}."
      },
      "tokenOfOwnerByIndex(address,uint256)": {
        "details": "See {IERC721Enumerable-tokenOfOwnerByIndex}."
      },
      "tokenURI(uint256)": {
        "details": "See {IERC721Metadata-tokenURI}."
      },
      "totalSupply()": {
        "details": "See {IERC721Enumerable-totalSupply}."
      },
      "transferFrom(address,address,uint256)": {
        "details": "See {IERC721-transferFrom}."
      },
      "transferOwnership(address)": {
        "details": "Transfers ownership of the contract to a new account (`newOwner`). Can only be called by the current owner."
      },
      "unpause()": {
        "details": "Unpauses all token transfers."
      },
      "updatePresaleStart(uint256)": {
        "details": "Updates presale Start Time"
      },
      "updatePublicSaleStart(uint256)": {
        "details": "Emergency Function to withdraw ETH from this contract"
      },
      "withdrawToTreasury()": {
        "details": "Emergency Function to withdraw ETH from this contract"
      }
    },
    "version": 1
  },
  "userdoc": {
    "kind": "user",
    "methods": {},
    "version": 1
  },
  "storageLayout": {
    "storage": [
      {
        "astId": 868,
        "contract": "contracts/BobbyFischer.sol:BobbyFischer",
        "label": "_initialized",
        "offset": 0,
        "slot": "0",
        "type": "t_bool"
      },
      {
        "astId": 871,
        "contract": "contracts/BobbyFischer.sol:BobbyFischer",
        "label": "_initializing",
        "offset": 1,
        "slot": "0",
        "type": "t_bool"
      },
      {
        "astId": 2713,
        "contract": "contracts/BobbyFischer.sol:BobbyFischer",
        "label": "__gap",
        "offset": 0,
        "slot": "1",
        "type": "t_array(t_uint256)50_storage"
      },
      {
        "astId": 3403,
        "contract": "contracts/BobbyFischer.sol:BobbyFischer",
        "label": "__gap",
        "offset": 0,
        "slot": "51",
        "type": "t_array(t_uint256)50_storage"
      },
      {
        "astId": 353,
        "contract": "contracts/BobbyFischer.sol:BobbyFischer",
        "label": "_roles",
        "offset": 0,
        "slot": "101",
        "type": "t_mapping(t_bytes32,t_struct(RoleData)348_storage)"
      },
      {
        "astId": 638,
        "contract": "contracts/BobbyFischer.sol:BobbyFischer",
        "label": "__gap",
        "offset": 0,
        "slot": "102",
        "type": "t_array(t_uint256)49_storage"
      },
      {
        "astId": 140,
        "contract": "contracts/BobbyFischer.sol:BobbyFischer",
        "label": "_roleMembers",
        "offset": 0,
        "slot": "151",
        "type": "t_mapping(t_bytes32,t_struct(AddressSet)4040_storage)"
      },
      {
        "astId": 303,
        "contract": "contracts/BobbyFischer.sol:BobbyFischer",
        "label": "__gap",
        "offset": 0,
        "slot": "152",
        "type": "t_array(t_uint256)49_storage"
      },
      {
        "astId": 929,
        "contract": "contracts/BobbyFischer.sol:BobbyFischer",
        "label": "_paused",
        "offset": 0,
        "slot": "201",
        "type": "t_bool"
      },
      {
        "astId": 1020,
        "contract": "contracts/BobbyFischer.sol:BobbyFischer",
        "label": "__gap",
        "offset": 0,
        "slot": "202",
        "type": "t_array(t_uint256)49_storage"
      },
      {
        "astId": 748,
        "contract": "contracts/BobbyFischer.sol:BobbyFischer",
        "label": "_owner",
        "offset": 0,
        "slot": "251",
        "type": "t_address"
      },
      {
        "astId": 861,
        "contract": "contracts/BobbyFischer.sol:BobbyFischer",
        "label": "__gap",
        "offset": 0,
        "slot": "252",
        "type": "t_array(t_uint256)49_storage"
      },
      {
        "astId": 1050,
        "contract": "contracts/BobbyFischer.sol:BobbyFischer",
        "label": "_name",
        "offset": 0,
        "slot": "301",
        "type": "t_string_storage"
      },
      {
        "astId": 1052,
        "contract": "contracts/BobbyFischer.sol:BobbyFischer",
        "label": "_symbol",
        "offset": 0,
        "slot": "302",
        "type": "t_string_storage"
      },
      {
        "astId": 1056,
        "contract": "contracts/BobbyFischer.sol:BobbyFischer",
        "label": "_owners",
        "offset": 0,
        "slot": "303",
        "type": "t_mapping(t_uint256,t_address)"
      },
      {
        "astId": 1060,
        "contract": "contracts/BobbyFischer.sol:BobbyFischer",
        "label": "_balances",
        "offset": 0,
        "slot": "304",
        "type": "t_mapping(t_address,t_uint256)"
      },
      {
        "astId": 1064,
        "contract": "contracts/BobbyFischer.sol:BobbyFischer",
        "label": "_tokenApprovals",
        "offset": 0,
        "slot": "305",
        "type": "t_mapping(t_uint256,t_address)"
      },
      {
        "astId": 1070,
        "contract": "contracts/BobbyFischer.sol:BobbyFischer",
        "label": "_operatorApprovals",
        "offset": 0,
        "slot": "306",
        "type": "t_mapping(t_address,t_mapping(t_address,t_bool))"
      },
      {
        "astId": 1866,
        "contract": "contracts/BobbyFischer.sol:BobbyFischer",
        "label": "__gap",
        "offset": 0,
        "slot": "307",
        "type": "t_array(t_uint256)44_storage"
      },
      {
        "astId": 2040,
        "contract": "contracts/BobbyFischer.sol:BobbyFischer",
        "label": "_ownedTokens",
        "offset": 0,
        "slot": "351",
        "type": "t_mapping(t_address,t_mapping(t_uint256,t_uint256))"
      },
      {
        "astId": 2044,
        "contract": "contracts/BobbyFischer.sol:BobbyFischer",
        "label": "_ownedTokensIndex",
        "offset": 0,
        "slot": "352",
        "type": "t_mapping(t_uint256,t_uint256)"
      },
      {
        "astId": 2047,
        "contract": "contracts/BobbyFischer.sol:BobbyFischer",
        "label": "_allTokens",
        "offset": 0,
        "slot": "353",
        "type": "t_array(t_uint256)dyn_storage"
      },
      {
        "astId": 2051,
        "contract": "contracts/BobbyFischer.sol:BobbyFischer",
        "label": "_allTokensIndex",
        "offset": 0,
        "slot": "354",
        "type": "t_mapping(t_uint256,t_uint256)"
      },
      {
        "astId": 2366,
        "contract": "contracts/BobbyFischer.sol:BobbyFischer",
        "label": "__gap",
        "offset": 0,
        "slot": "355",
        "type": "t_array(t_uint256)46_storage"
      },
      {
        "astId": 10715,
        "contract": "contracts/BobbyFischer.sol:BobbyFischer",
        "label": "LINK",
        "offset": 0,
        "slot": "401",
        "type": "t_contract(LinkTokenInterface)94"
      },
      {
        "astId": 10717,
        "contract": "contracts/BobbyFischer.sol:BobbyFischer",
        "label": "vrfCoordinator",
        "offset": 0,
        "slot": "402",
        "type": "t_address"
      },
      {
        "astId": 10721,
        "contract": "contracts/BobbyFischer.sol:BobbyFischer",
        "label": "nonces",
        "offset": 0,
        "slot": "403",
        "type": "t_mapping(t_bytes32,t_uint256)"
      },
      {
        "astId": 10725,
        "contract": "contracts/BobbyFischer.sol:BobbyFischer",
        "label": "______gap",
        "offset": 0,
        "slot": "404",
        "type": "t_array(t_uint256)50_storage"
      },
      {
        "astId": 7795,
        "contract": "contracts/BobbyFischer.sol:BobbyFischer",
        "label": "PRIVATE_SALE_PRICES",
        "offset": 0,
        "slot": "454",
        "type": "t_array(t_uint256)dyn_storage"
      },
      {
        "astId": 7809,
        "contract": "contracts/BobbyFischer.sol:BobbyFischer",
        "label": "whitelistedAddresses",
        "offset": 0,
        "slot": "455",
        "type": "t_mapping(t_address,t_struct(Whitelist)7783_storage)"
      },
      {
        "astId": 7813,
        "contract": "contracts/BobbyFischer.sol:BobbyFischer",
        "label": "whitelistedPartners",
        "offset": 0,
        "slot": "456",
        "type": "t_mapping(t_address,t_bool)"
      },
      {
        "astId": 7815,
        "contract": "contracts/BobbyFischer.sol:BobbyFischer",
        "label": "PRIVATE_SALE_START",
        "offset": 0,
        "slot": "457",
        "type": "t_uint256"
      },
      {
        "astId": 7817,
        "contract": "contracts/BobbyFischer.sol:BobbyFischer",
        "label": "PUBLIC_SALE_START",
        "offset": 0,
        "slot": "458",
        "type": "t_uint256"
      },
      {
        "astId": 7819,
        "contract": "contracts/BobbyFischer.sol:BobbyFischer",
        "label": "TREASURY",
        "offset": 0,
        "slot": "459",
        "type": "t_address_payable"
      },
      {
        "astId": 7821,
        "contract": "contracts/BobbyFischer.sol:BobbyFischer",
        "label": "baseTokenURI",
        "offset": 0,
        "slot": "460",
        "type": "t_string_storage"
      },
      {
        "astId": 7823,
        "contract": "contracts/BobbyFischer.sol:BobbyFischer",
        "label": "notRevealedURI",
        "offset": 0,
        "slot": "461",
        "type": "t_string_storage"
      },
      {
        "astId": 7825,
        "contract": "contracts/BobbyFischer.sol:BobbyFischer",
        "label": "revealed",
        "offset": 0,
        "slot": "462",
        "type": "t_bool"
      },
      {
        "astId": 7827,
        "contract": "contracts/BobbyFischer.sol:BobbyFischer",
        "label": "keyHash",
        "offset": 0,
        "slot": "463",
        "type": "t_bytes32"
      },
      {
        "astId": 7829,
        "contract": "contracts/BobbyFischer.sol:BobbyFischer",
        "label": "fee",
        "offset": 0,
        "slot": "464",
        "type": "t_uint256"
      },
      {
        "astId": 7833,
        "contract": "contracts/BobbyFischer.sol:BobbyFischer",
        "label": "publicSaleMintedAmount",
        "offset": 0,
        "slot": "465",
        "type": "t_mapping(t_address,t_uint8)"
      },
      {
        "astId": 7837,
        "contract": "contracts/BobbyFischer.sol:BobbyFischer",
        "label": "privateSaleMintedAmount",
        "offset": 0,
        "slot": "466",
        "type": "t_mapping(t_address,t_uint8)"
      },
      {
        "astId": 7841,
        "contract": "contracts/BobbyFischer.sol:BobbyFischer",
        "label": "_nonceUsed",
        "offset": 0,
        "slot": "467",
        "type": "t_mapping(t_bytes_memory_ptr,t_bool)"
      },
      {
        "astId": 7843,
        "contract": "contracts/BobbyFischer.sol:BobbyFischer",
        "label": "signerAddress",
        "offset": 0,
        "slot": "468",
        "type": "t_address"
      },
      {
        "astId": 7846,
        "contract": "contracts/BobbyFischer.sol:BobbyFischer",
        "label": "available",
        "offset": 0,
        "slot": "469",
        "type": "t_array(t_uint32)dyn_storage"
      },
      {
        "astId": 7849,
        "contract": "contracts/BobbyFischer.sol:BobbyFischer",
        "label": "random",
        "offset": 0,
        "slot": "470",
        "type": "t_struct(Random)11013_storage"
      },
      {
        "astId": 7853,
        "contract": "contracts/BobbyFischer.sol:BobbyFischer",
        "label": "______gap",
        "offset": 0,
        "slot": "472",
        "type": "t_array(t_uint256)50_storage"
      }
    ],
    "types": {
      "t_address": {
        "encoding": "inplace",
        "label": "address",
        "numberOfBytes": "20"
      },
      "t_address_payable": {
        "encoding": "inplace",
        "label": "address payable",
        "numberOfBytes": "20"
      },
      "t_array(t_bytes32)dyn_storage": {
        "base": "t_bytes32",
        "encoding": "dynamic_array",
        "label": "bytes32[]",
        "numberOfBytes": "32"
      },
      "t_array(t_uint256)44_storage": {
        "base": "t_uint256",
        "encoding": "inplace",
        "label": "uint256[44]",
        "numberOfBytes": "1408"
      },
      "t_array(t_uint256)46_storage": {
        "base": "t_uint256",
        "encoding": "inplace",
        "label": "uint256[46]",
        "numberOfBytes": "1472"
      },
      "t_array(t_uint256)49_storage": {
        "base": "t_uint256",
        "encoding": "inplace",
        "label": "uint256[49]",
        "numberOfBytes": "1568"
      },
      "t_array(t_uint256)50_storage": {
        "base": "t_uint256",
        "encoding": "inplace",
        "label": "uint256[50]",
        "numberOfBytes": "1600"
      },
      "t_array(t_uint256)dyn_storage": {
        "base": "t_uint256",
        "encoding": "dynamic_array",
        "label": "uint256[]",
        "numberOfBytes": "32"
      },
      "t_array(t_uint32)dyn_storage": {
        "base": "t_uint32",
        "encoding": "dynamic_array",
        "label": "uint32[]",
        "numberOfBytes": "32"
      },
      "t_bool": {
        "encoding": "inplace",
        "label": "bool",
        "numberOfBytes": "1"
      },
      "t_bytes32": {
        "encoding": "inplace",
        "label": "bytes32",
        "numberOfBytes": "32"
      },
      "t_bytes_memory_ptr": {
        "encoding": "bytes",
        "label": "bytes",
        "numberOfBytes": "32"
      },
      "t_contract(LinkTokenInterface)94": {
        "encoding": "inplace",
        "label": "contract LinkTokenInterface",
        "numberOfBytes": "20"
      },
      "t_mapping(t_address,t_bool)": {
        "encoding": "mapping",
        "key": "t_address",
        "label": "mapping(address => bool)",
        "numberOfBytes": "32",
        "value": "t_bool"
      },
      "t_mapping(t_address,t_mapping(t_address,t_bool))": {
        "encoding": "mapping",
        "key": "t_address",
        "label": "mapping(address => mapping(address => bool))",
        "numberOfBytes": "32",
        "value": "t_mapping(t_address,t_bool)"
      },
      "t_mapping(t_address,t_mapping(t_uint256,t_uint256))": {
        "encoding": "mapping",
        "key": "t_address",
        "label": "mapping(address => mapping(uint256 => uint256))",
        "numberOfBytes": "32",
        "value": "t_mapping(t_uint256,t_uint256)"
      },
      "t_mapping(t_address,t_struct(Whitelist)7783_storage)": {
        "encoding": "mapping",
        "key": "t_address",
        "label": "mapping(address => struct BobbyFischer.Whitelist)",
        "numberOfBytes": "32",
        "value": "t_struct(Whitelist)7783_storage"
      },
      "t_mapping(t_address,t_uint256)": {
        "encoding": "mapping",
        "key": "t_address",
        "label": "mapping(address => uint256)",
        "numberOfBytes": "32",
        "value": "t_uint256"
      },
      "t_mapping(t_address,t_uint8)": {
        "encoding": "mapping",
        "key": "t_address",
        "label": "mapping(address => uint8)",
        "numberOfBytes": "32",
        "value": "t_uint8"
      },
      "t_mapping(t_bytes32,t_struct(AddressSet)4040_storage)": {
        "encoding": "mapping",
        "key": "t_bytes32",
        "label": "mapping(bytes32 => struct EnumerableSetUpgradeable.AddressSet)",
        "numberOfBytes": "32",
        "value": "t_struct(AddressSet)4040_storage"
      },
      "t_mapping(t_bytes32,t_struct(RoleData)348_storage)": {
        "encoding": "mapping",
        "key": "t_bytes32",
        "label": "mapping(bytes32 => struct AccessControlUpgradeable.RoleData)",
        "numberOfBytes": "32",
        "value": "t_struct(RoleData)348_storage"
      },
      "t_mapping(t_bytes32,t_uint256)": {
        "encoding": "mapping",
        "key": "t_bytes32",
        "label": "mapping(bytes32 => uint256)",
        "numberOfBytes": "32",
        "value": "t_uint256"
      },
      "t_mapping(t_bytes_memory_ptr,t_bool)": {
        "encoding": "mapping",
        "key": "t_bytes_memory_ptr",
        "label": "mapping(bytes => bool)",
        "numberOfBytes": "32",
        "value": "t_bool"
      },
      "t_mapping(t_uint256,t_address)": {
        "encoding": "mapping",
        "key": "t_uint256",
        "label": "mapping(uint256 => address)",
        "numberOfBytes": "32",
        "value": "t_address"
      },
      "t_mapping(t_uint256,t_uint256)": {
        "encoding": "mapping",
        "key": "t_uint256",
        "label": "mapping(uint256 => uint256)",
        "numberOfBytes": "32",
        "value": "t_uint256"
      },
      "t_string_storage": {
        "encoding": "bytes",
        "label": "string",
        "numberOfBytes": "32"
      },
      "t_struct(AddressSet)4040_storage": {
        "encoding": "inplace",
        "label": "struct EnumerableSetUpgradeable.AddressSet",
        "members": [
          {
            "astId": 4039,
            "contract": "contracts/BobbyFischer.sol:BobbyFischer",
            "label": "_inner",
            "offset": 0,
            "slot": "0",
            "type": "t_struct(Set)3739_storage"
          }
        ],
        "numberOfBytes": "64"
      },
      "t_struct(Random)11013_storage": {
        "encoding": "inplace",
        "label": "struct RandomLib.Random",
        "members": [
          {
            "astId": 11010,
            "contract": "contracts/BobbyFischer.sol:BobbyFischer",
            "label": "lastRandom",
            "offset": 0,
            "slot": "0",
            "type": "t_uint256"
          },
          {
            "astId": 11012,
            "contract": "contracts/BobbyFischer.sol:BobbyFischer",
            "label": "initialRandom",
            "offset": 0,
            "slot": "1",
            "type": "t_uint256"
          }
        ],
        "numberOfBytes": "64"
      },
      "t_struct(RoleData)348_storage": {
        "encoding": "inplace",
        "label": "struct AccessControlUpgradeable.RoleData",
        "members": [
          {
            "astId": 345,
            "contract": "contracts/BobbyFischer.sol:BobbyFischer",
            "label": "members",
            "offset": 0,
            "slot": "0",
            "type": "t_mapping(t_address,t_bool)"
          },
          {
            "astId": 347,
            "contract": "contracts/BobbyFischer.sol:BobbyFischer",
            "label": "adminRole",
            "offset": 0,
            "slot": "1",
            "type": "t_bytes32"
          }
        ],
        "numberOfBytes": "64"
      },
      "t_struct(Set)3739_storage": {
        "encoding": "inplace",
        "label": "struct EnumerableSetUpgradeable.Set",
        "members": [
          {
            "astId": 3734,
            "contract": "contracts/BobbyFischer.sol:BobbyFischer",
            "label": "_values",
            "offset": 0,
            "slot": "0",
            "type": "t_array(t_bytes32)dyn_storage"
          },
          {
            "astId": 3738,
            "contract": "contracts/BobbyFischer.sol:BobbyFischer",
            "label": "_indexes",
            "offset": 0,
            "slot": "1",
            "type": "t_mapping(t_bytes32,t_uint256)"
          }
        ],
        "numberOfBytes": "64"
      },
      "t_struct(Whitelist)7783_storage": {
        "encoding": "inplace",
        "label": "struct BobbyFischer.Whitelist",
        "members": [
          {
            "astId": 7780,
            "contract": "contracts/BobbyFischer.sol:BobbyFischer",
            "label": "tier",
            "offset": 0,
            "slot": "0",
            "type": "t_uint8"
          },
          {
            "astId": 7782,
            "contract": "contracts/BobbyFischer.sol:BobbyFischer",
            "label": "cap",
            "offset": 1,
            "slot": "0",
            "type": "t_uint8"
          }
        ],
        "numberOfBytes": "32"
      },
      "t_uint256": {
        "encoding": "inplace",
        "label": "uint256",
        "numberOfBytes": "32"
      },
      "t_uint32": {
        "encoding": "inplace",
        "label": "uint32",
        "numberOfBytes": "4"
      },
      "t_uint8": {
        "encoding": "inplace",
        "label": "uint8",
        "numberOfBytes": "1"
      }
    }
  }
}