{
  "address": "0xFE9C3270812687F623d9A58F20914FFF258004F4",
  "abi": [
    {
      "anonymous": false,
      "inputs": [
        {
          "indexed": true,
          "internalType": "bytes32",
          "name": "role",
          "type": "bytes32"
        },
        {
          "indexed": true,
          "internalType": "bytes32",
          "name": "previousAdminRole",
          "type": "bytes32"
        },
        {
          "indexed": true,
          "internalType": "bytes32",
          "name": "newAdminRole",
          "type": "bytes32"
        }
      ],
      "name": "RoleAdminChanged",
      "type": "event"
    },
    {
      "anonymous": false,
      "inputs": [
        {
          "indexed": true,
          "internalType": "bytes32",
          "name": "role",
          "type": "bytes32"
        },
        {
          "indexed": true,
          "internalType": "address",
          "name": "account",
          "type": "address"
        },
        {
          "indexed": true,
          "internalType": "address",
          "name": "sender",
          "type": "address"
        }
      ],
      "name": "RoleGranted",
      "type": "event"
    },
    {
      "anonymous": false,
      "inputs": [
        {
          "indexed": true,
          "internalType": "bytes32",
          "name": "role",
          "type": "bytes32"
        },
        {
          "indexed": true,
          "internalType": "address",
          "name": "account",
          "type": "address"
        },
        {
          "indexed": true,
          "internalType": "address",
          "name": "sender",
          "type": "address"
        }
      ],
      "name": "RoleRevoked",
      "type": "event"
    },
    {
      "inputs": [],
      "name": "DEFAULT_ADMIN_ROLE",
      "outputs": [
        {
          "internalType": "bytes32",
          "name": "",
          "type": "bytes32"
        }
      ],
      "stateMutability": "view",
      "type": "function"
    },
    {
      "inputs": [
        {
          "internalType": "address",
          "name": "_vrfCoordinator",
          "type": "address"
        },
        {
          "internalType": "address",
          "name": "_link",
          "type": "address"
        },
        {
          "internalType": "bytes32",
          "name": "_keyHash",
          "type": "bytes32"
        },
        {
          "internalType": "uint256",
          "name": "_fee",
          "type": "uint256"
        }
      ],
      "name": "__PostalCodeProvider_init",
      "outputs": [],
      "stateMutability": "nonpayable",
      "type": "function"
    },
    {
      "inputs": [
        {
          "internalType": "address",
          "name": "_vrfCoordinator",
          "type": "address"
        },
        {
          "internalType": "address",
          "name": "_link",
          "type": "address"
        }
      ],
      "name": "__VRFConsumableBase_init",
      "outputs": [],
      "stateMutability": "nonpayable",
      "type": "function"
    },
    {
      "inputs": [],
      "name": "_randomSeed",
      "outputs": [
        {
          "internalType": "uint256",
          "name": "",
          "type": "uint256"
        }
      ],
      "stateMutability": "view",
      "type": "function"
    },
    {
      "inputs": [],
      "name": "_requestId",
      "outputs": [
        {
          "internalType": "bytes32",
          "name": "",
          "type": "bytes32"
        }
      ],
      "stateMutability": "view",
      "type": "function"
    },
    {
      "inputs": [],
      "name": "getAvailable",
      "outputs": [
        {
          "internalType": "uint32[]",
          "name": "",
          "type": "uint32[]"
        }
      ],
      "stateMutability": "view",
      "type": "function"
    },
    {
      "inputs": [
        {
          "internalType": "bytes32",
          "name": "role",
          "type": "bytes32"
        }
      ],
      "name": "getRoleAdmin",
      "outputs": [
        {
          "internalType": "bytes32",
          "name": "",
          "type": "bytes32"
        }
      ],
      "stateMutability": "view",
      "type": "function"
    },
    {
      "inputs": [
        {
          "internalType": "bytes32",
          "name": "role",
          "type": "bytes32"
        },
        {
          "internalType": "uint256",
          "name": "index",
          "type": "uint256"
        }
      ],
      "name": "getRoleMember",
      "outputs": [
        {
          "internalType": "address",
          "name": "",
          "type": "address"
        }
      ],
      "stateMutability": "view",
      "type": "function"
    },
    {
      "inputs": [
        {
          "internalType": "bytes32",
          "name": "role",
          "type": "bytes32"
        }
      ],
      "name": "getRoleMemberCount",
      "outputs": [
        {
          "internalType": "uint256",
          "name": "",
          "type": "uint256"
        }
      ],
      "stateMutability": "view",
      "type": "function"
    },
    {
      "inputs": [
        {
          "internalType": "uint256",
          "name": "tokenId",
          "type": "uint256"
        }
      ],
      "name": "getTokenId",
      "outputs": [
        {
          "internalType": "uint256",
          "name": "",
          "type": "uint256"
        }
      ],
      "stateMutability": "view",
      "type": "function"
    },
    {
      "inputs": [
        {
          "internalType": "bytes32",
          "name": "role",
          "type": "bytes32"
        },
        {
          "internalType": "address",
          "name": "account",
          "type": "address"
        }
      ],
      "name": "grantRole",
      "outputs": [],
      "stateMutability": "nonpayable",
      "type": "function"
    },
    {
      "inputs": [
        {
          "internalType": "bytes32",
          "name": "role",
          "type": "bytes32"
        },
        {
          "internalType": "address",
          "name": "account",
          "type": "address"
        }
      ],
      "name": "hasRole",
      "outputs": [
        {
          "internalType": "bool",
          "name": "",
          "type": "bool"
        }
      ],
      "stateMutability": "view",
      "type": "function"
    },
    {
      "inputs": [
        {
          "internalType": "uint32[]",
          "name": "_available",
          "type": "uint32[]"
        }
      ],
      "name": "pushAvailable",
      "outputs": [],
      "stateMutability": "nonpayable",
      "type": "function"
    },
    {
      "inputs": [],
      "name": "randomizeTokenIds",
      "outputs": [
        {
          "internalType": "bytes32",
          "name": "requestId",
          "type": "bytes32"
        }
      ],
      "stateMutability": "nonpayable",
      "type": "function"
    },
    {
      "inputs": [
        {
          "internalType": "bytes32",
          "name": "requestId",
          "type": "bytes32"
        },
        {
          "internalType": "uint256",
          "name": "randomness",
          "type": "uint256"
        }
      ],
      "name": "rawFulfillRandomness",
      "outputs": [],
      "stateMutability": "nonpayable",
      "type": "function"
    },
    {
      "inputs": [
        {
          "internalType": "bytes32",
          "name": "role",
          "type": "bytes32"
        },
        {
          "internalType": "address",
          "name": "account",
          "type": "address"
        }
      ],
      "name": "renounceRole",
      "outputs": [],
      "stateMutability": "nonpayable",
      "type": "function"
    },
    {
      "inputs": [
        {
          "internalType": "bytes32",
          "name": "role",
          "type": "bytes32"
        },
        {
          "internalType": "address",
          "name": "account",
          "type": "address"
        }
      ],
      "name": "revokeRole",
      "outputs": [],
      "stateMutability": "nonpayable",
      "type": "function"
    },
    {
      "inputs": [],
      "name": "shuffle",
      "outputs": [],
      "stateMutability": "nonpayable",
      "type": "function"
    },
    {
      "inputs": [
        {
          "internalType": "bytes4",
          "name": "interfaceId",
          "type": "bytes4"
        }
      ],
      "name": "supportsInterface",
      "outputs": [
        {
          "internalType": "bool",
          "name": "",
          "type": "bool"
        }
      ],
      "stateMutability": "view",
      "type": "function"
    }
  ],
  "transactionHash": "0x61ad1b0b76e9bc79eb1b06eaa80058c9dc09d780bb796a634884df9b4804b86f",
  "args": [],
  "solcInputHash": "c014dd30afe69bb6e30a7cef8e7cc185",
  "bytecode": "0x608060405234801561001057600080fd5b506117d3806100206000396000f3fe608060405234801561001057600080fd5b50600436106101215760003560e01c80639010d07c116100ad578063ca15c87311610071578063ca15c87314610255578063d547741f14610268578063d7c230fd1461027b578063e821f77214610283578063f9cc06051461029657600080fd5b80639010d07c146101f257806391d148541461021d57806394985ddd14610230578063a217fddf14610243578063c1540de71461024b57600080fd5b806326e8a929116100f457806326e8a9291461019c5780632f2ff15d146101af57806336568abe146101c25780635b4425d5146101d55780635e33bdda146101df57600080fd5b806301ffc9a71461012657806314ff5ea31461014e578063248a9ca31461016f5780632520bf0414610192575b600080fd5b6101396101343660046112a7565b6102ab565b60405190151581526020015b60405180910390f35b61016161015c3660046112d1565b6102d6565b604051908152602001610145565b61016161017d3660046112d1565b60009081526065602052604090206001015490565b61019a610338565b005b61019a6101aa366004611319565b610510565b61019a6101bd3660046113f5565b61060a565b61019a6101d03660046113f5565b61062c565b6101616101025481565b61019a6101ed366004611421565b61064e565b610205610200366004611463565b6106ee565b6040516001600160a01b039091168152602001610145565b61013961022b3660046113f5565b61070d565b61019a61023e366004611463565b610738565b610161600081565b6101616101035481565b6101616102633660046112d1565b6107a3565b61019a6102763660046113f5565b6107ba565b6101616107c4565b61019a610291366004611485565b6108c5565b61029e6108f3565b60405161014591906114af565b60006001600160e01b03198216635a05180f60e01b14806102d057506102d082610985565b92915050565b6000806102f760006001610100805490506102f1919061150f565b856109ba565b9050610101818154811061030d5761030d611526565b6000918252602090912060088204015460079091166004026101000a900463ffffffff169392505050565b60006103448133610aec565b6101035460005b6101015461035b9060029061150f565b8161ffff16101561050b576101015460009061ffff83169081906103819060019061150f565b61038b919061150f565b61039690600161153c565b6103a0908561156a565b6103aa919061153c565b905060006101018361ffff16815481106103c6576103c6611526565b90600052602060002090600891828204019190066004029054906101000a900463ffffffff169050610101828154811061040257610402611526565b90600052602060002090600891828204019190066004029054906101000a900463ffffffff166101018461ffff168154811061044057610440611526565b90600052602060002090600891828204019190066004026101000a81548163ffffffff021916908363ffffffff16021790555080610101838154811061048857610488611526565b90600052602060002090600891828204019190066004026101000a81548163ffffffff021916908363ffffffff16021790555083836040516020016104db92919091825261ffff16602082015260400190565b6040516020818303038152906040528051906020012060001c9350505080806105039061157e565b91505061034b565b505050565b600061051c8133610aec565b60005b82518161ffff16101561050b57610100838261ffff168151811061054557610545611526565b602002602001015190806001815401808255809150506001900390600052602060002090600891828204019190066004029091909190916101000a81548163ffffffff021916908363ffffffff160217905550610101838261ffff16815181106105b1576105b1611526565b60209081029190910181015182546001810184556000938452919092206008820401805460079092166004026101000a63ffffffff818102199093169290931692909202179055806106028161157e565b91505061051f565b6106148282610b50565b600082815260976020526040902061050b9082610b76565b6106368282610b8b565b600082815260976020526040902061050b9082610c05565b600054610100900460ff1680610667575060005460ff16155b61068c5760405162461bcd60e51b8152600401610683906115a0565b60405180910390fd5b600054610100900460ff161580156106ae576000805461ffff19166101011790555b6106b6610c1a565b6106c085856108c5565b6106cb600033610ca6565b60fe83905560ff82905580156106e7576000805461ff00191690555b5050505050565b60008281526097602052604081206107069083610cb0565b9392505050565b60009182526065602090815260408084206001600160a01b0393909316845291905290205460ff1690565b60ca546001600160a01b031633146107925760405162461bcd60e51b815260206004820152601f60248201527f4f6e6c7920565246436f6f7264696e61746f722063616e2066756c66696c6c006044820152606401610683565b6101029190915561010355565b5050565b60008181526097602052604081206102d090610cbc565b6106368282610cc6565b6000806107d18133610aec565b60ff5460c9546040516370a0823160e01b81523060048201526001600160a01b03909116906370a082319060240160206040518083038186803b15801561081757600080fd5b505afa15801561082b573d6000803e3d6000fd5b505050506040513d601f19601f8201168201806040525081019061084f91906115ee565b10156108b15760405162461bcd60e51b815260206004820152602b60248201527f4e6f7420656e6f756768204c494e4b202d2066696c6c20636f6e74726163742060448201526a1dda5d1a0819985d58d95d60aa1b6064820152608401610683565b6108bf60fe5460ff54610cec565b91505090565b60ca80546001600160a01b039384166001600160a01b03199182161790915560c98054929093169116179055565b606060006109018133610aec565b61010180548060200260200160405190810160405280929190818152602001828054801561097a57602002820191906000526020600020906000905b82829054906101000a900463ffffffff1663ffffffff168152602001906004019060208260030104928301926001038202915080841161093d5790505b505050505091505090565b60006001600160e01b03198216637965db0b60e01b14806102d057506301ffc9a760e01b6001600160e01b03198316146102d0565b6000838310610a9857600060026109d1868661150f565b6109db9190611607565b6109e5908661153c565b90508261010082815481106109fc576109fc611526565b6000918252602090912060088204015460079091166004026101000a900463ffffffff161415610a2d579050610706565b826101008281548110610a4257610a42611526565b6000918252602090912060088204015460079091166004026101000a900463ffffffff161115610a8357610a7b856102f160018461150f565b915050610706565b610a7b610a9182600161153c565b85856109ba565b60405162461bcd60e51b815260206004820152602360248201527f456c656d656e74206973206e6f742070726573656e7420696e2074686520617260448201526272617960e81b6064820152608401610683565b610af6828261070d565b61079f57610b0e816001600160a01b03166014610e3e565b610b19836020610e3e565b604051602001610b2a92919061164b565b60408051601f198184030181529082905262461bcd60e51b8252610683916004016116ec565b600082815260656020526040902060010154610b6c8133610aec565b61050b8383610fda565b6000610706836001600160a01b038416611060565b6001600160a01b0381163314610bfb5760405162461bcd60e51b815260206004820152602f60248201527f416363657373436f6e74726f6c3a2063616e206f6e6c792072656e6f756e636560448201526e103937b632b9903337b91039b2b63360891b6064820152608401610683565b61079f82826110af565b6000610706836001600160a01b038416611116565b600054610100900460ff1680610c33575060005460ff16155b610c4f5760405162461bcd60e51b8152600401610683906115a0565b600054610100900460ff16158015610c71576000805461ffff19166101011790555b610c79611209565b610c81611209565b610c89611209565b610c91611209565b8015610ca3576000805461ff00191690555b50565b6106148282611273565b6000610706838361127d565b60006102d0825490565b600082815260656020526040902060010154610ce28133610aec565b61050b83836110af565b60c95460ca54604080516020810186905260008183018190528251808303840181526060830193849052630200057560e51b909352936001600160a01b0390811693634000aea093610d489392909116918791906064016116ff565b602060405180830381600087803b158015610d6257600080fd5b505af1158015610d76573d6000803e3d6000fd5b505050506040513d601f19601f82011682018060405250810190610d9a919061172f565b50600083815260cb6020818152604080842054815180840189905280830186905230606082015260808082018390528351808303909101815260a090910190925281519183019190912093879052919052610df690600161153c565b600085815260cb6020526040902055610e368482604080516020808201949094528082019290925280518083038201815260609092019052805191012090565b949350505050565b60606000610e4d836002611751565b610e5890600261153c565b67ffffffffffffffff811115610e7057610e706112ea565b6040519080825280601f01601f191660200182016040528015610e9a576020820181803683370190505b509050600360fc1b81600081518110610eb557610eb5611526565b60200101906001600160f81b031916908160001a905350600f60fb1b81600181518110610ee457610ee4611526565b60200101906001600160f81b031916908160001a9053506000610f08846002611751565b610f1390600161153c565b90505b6001811115610f8b576f181899199a1a9b1b9c1cb0b131b232b360811b85600f1660108110610f4757610f47611526565b1a60f81b828281518110610f5d57610f5d611526565b60200101906001600160f81b031916908160001a90535060049490941c93610f8481611770565b9050610f16565b5083156107065760405162461bcd60e51b815260206004820181905260248201527f537472696e67733a20686578206c656e67746820696e73756666696369656e746044820152606401610683565b610fe4828261070d565b61079f5760008281526065602090815260408083206001600160a01b03851684529091529020805460ff1916600117905561101c3390565b6001600160a01b0316816001600160a01b0316837f2f8788117e7eff1d82e926ec794901d17c78024a50270940304540a733656f0d60405160405180910390a45050565b60008181526001830160205260408120546110a7575081546001818101845560008481526020808220909301849055845484825282860190935260409020919091556102d0565b5060006102d0565b6110b9828261070d565b1561079f5760008281526065602090815260408083206001600160a01b0385168085529252808320805460ff1916905551339285917ff6391f5c32d9c69d2a47ea670b442974b53935d1edc7fd64eb21e047a839171b9190a45050565b600081815260018301602052604081205480156111ff57600061113a60018361150f565b855490915060009061114e9060019061150f565b90508181146111b357600086600001828154811061116e5761116e611526565b906000526020600020015490508087600001848154811061119157611191611526565b6000918252602080832090910192909255918252600188019052604090208390555b85548690806111c4576111c4611787565b6001900381819060005260206000200160009055905585600101600086815260200190815260200160002060009055600193505050506102d0565b60009150506102d0565b600054610100900460ff1680611222575060005460ff16155b61123e5760405162461bcd60e51b8152600401610683906115a0565b600054610100900460ff16158015610c91576000805461ffff19166101011790558015610ca3576000805461ff001916905550565b61079f8282610fda565b600082600001828154811061129457611294611526565b9060005260206000200154905092915050565b6000602082840312156112b957600080fd5b81356001600160e01b03198116811461070657600080fd5b6000602082840312156112e357600080fd5b5035919050565b634e487b7160e01b600052604160045260246000fd5b803563ffffffff8116811461131457600080fd5b919050565b6000602080838503121561132c57600080fd5b823567ffffffffffffffff8082111561134457600080fd5b818501915085601f83011261135857600080fd5b81358181111561136a5761136a6112ea565b8060051b604051601f19603f8301168101818110858211171561138f5761138f6112ea565b6040529182528482019250838101850191888311156113ad57600080fd5b938501935b828510156113d2576113c385611300565b845293850193928501926113b2565b98975050505050505050565b80356001600160a01b038116811461131457600080fd5b6000806040838503121561140857600080fd5b82359150611418602084016113de565b90509250929050565b6000806000806080858703121561143757600080fd5b611440856113de565b935061144e602086016113de565b93969395505050506040820135916060013590565b6000806040838503121561147657600080fd5b50508035926020909101359150565b6000806040838503121561149857600080fd5b6114a1836113de565b9150611418602084016113de565b6020808252825182820181905260009190848201906040850190845b818110156114ed57835163ffffffff16835292840192918401916001016114cb565b50909695505050505050565b634e487b7160e01b600052601160045260246000fd5b600082821015611521576115216114f9565b500390565b634e487b7160e01b600052603260045260246000fd5b6000821982111561154f5761154f6114f9565b500190565b634e487b7160e01b600052601260045260246000fd5b60008261157957611579611554565b500690565b600061ffff80831681811415611596576115966114f9565b6001019392505050565b6020808252602e908201527f496e697469616c697a61626c653a20636f6e747261637420697320616c72656160408201526d191e481a5b9a5d1a585b1a5e995960921b606082015260800190565b60006020828403121561160057600080fd5b5051919050565b60008261161657611616611554565b500490565b60005b8381101561163657818101518382015260200161161e565b83811115611645576000848401525b50505050565b7f416363657373436f6e74726f6c3a206163636f756e742000000000000000000081526000835161168381601785016020880161161b565b7001034b99036b4b9b9b4b733903937b6329607d1b60179184019182015283516116b481602884016020880161161b565b01602801949350505050565b600081518084526116d881602086016020860161161b565b601f01601f19169290920160200192915050565b60208152600061070660208301846116c0565b60018060a01b038416815282602082015260606040820152600061172660608301846116c0565b95945050505050565b60006020828403121561174157600080fd5b8151801515811461070657600080fd5b600081600019048311821515161561176b5761176b6114f9565b500290565b60008161177f5761177f6114f9565b506000190190565b634e487b7160e01b600052603160045260246000fdfea26469706673582212206116df70e1a07c7d50510e887be4f170c5ec1ef4e4e60280d63523473d0da54764736f6c63430008090033",
  "devdoc": {
    "kind": "dev",
    "methods": {
      "getRoleAdmin(bytes32)": {
        "details": "Returns the admin role that controls `role`. See {grantRole} and {revokeRole}. To change a role's admin, use {_setRoleAdmin}."
      },
      "getRoleMember(bytes32,uint256)": {
        "details": "Returns one of the accounts that have `role`. `index` must be a value between 0 and {getRoleMemberCount}, non-inclusive. Role bearers are not sorted in any particular way, and their ordering may change at any point. WARNING: When using {getRoleMember} and {getRoleMemberCount}, make sure you perform all queries on the same block. See the following https://forum.openzeppelin.com/t/iterating-over-elements-on-enumerableset-in-openzeppelin-contracts/2296[forum post] for more information."
      },
      "getRoleMemberCount(bytes32)": {
        "details": "Returns the number of accounts that have `role`. Can be used together with {getRoleMember} to enumerate all bearers of a role."
      },
      "grantRole(bytes32,address)": {
        "details": "Overload {grantRole} to track enumerable memberships"
      },
      "hasRole(bytes32,address)": {
        "details": "Returns `true` if `account` has been granted `role`."
      },
      "pushAvailable(uint32[])": {
        "details": "Set Available mints"
      },
      "randomizeTokenIds()": {
        "details": "Initialize Randomness using chainlink"
      },
      "renounceRole(bytes32,address)": {
        "details": "Overload {renounceRole} to track enumerable memberships"
      },
      "revokeRole(bytes32,address)": {
        "details": "Overload {revokeRole} to track enumerable memberships"
      },
      "supportsInterface(bytes4)": {
        "details": "See {IERC165-supportsInterface}."
      }
    },
    "version": 1
  },
  "userdoc": {
    "kind": "user",
    "methods": {},
    "notice": "Manage PostalCodes of Propertys",
    "version": 1
  },
  "storageLayout": {
    "storage": [
      {
        "astId": 868,
        "contract": "contracts/PostalCodeProvider.sol:PostalCodeProvider",
        "label": "_initialized",
        "offset": 0,
        "slot": "0",
        "type": "t_bool"
      },
      {
        "astId": 871,
        "contract": "contracts/PostalCodeProvider.sol:PostalCodeProvider",
        "label": "_initializing",
        "offset": 1,
        "slot": "0",
        "type": "t_bool"
      },
      {
        "astId": 2713,
        "contract": "contracts/PostalCodeProvider.sol:PostalCodeProvider",
        "label": "__gap",
        "offset": 0,
        "slot": "1",
        "type": "t_array(t_uint256)50_storage"
      },
      {
        "astId": 3403,
        "contract": "contracts/PostalCodeProvider.sol:PostalCodeProvider",
        "label": "__gap",
        "offset": 0,
        "slot": "51",
        "type": "t_array(t_uint256)50_storage"
      },
      {
        "astId": 353,
        "contract": "contracts/PostalCodeProvider.sol:PostalCodeProvider",
        "label": "_roles",
        "offset": 0,
        "slot": "101",
        "type": "t_mapping(t_bytes32,t_struct(RoleData)348_storage)"
      },
      {
        "astId": 638,
        "contract": "contracts/PostalCodeProvider.sol:PostalCodeProvider",
        "label": "__gap",
        "offset": 0,
        "slot": "102",
        "type": "t_array(t_uint256)49_storage"
      },
      {
        "astId": 140,
        "contract": "contracts/PostalCodeProvider.sol:PostalCodeProvider",
        "label": "_roleMembers",
        "offset": 0,
        "slot": "151",
        "type": "t_mapping(t_bytes32,t_struct(AddressSet)4040_storage)"
      },
      {
        "astId": 303,
        "contract": "contracts/PostalCodeProvider.sol:PostalCodeProvider",
        "label": "__gap",
        "offset": 0,
        "slot": "152",
        "type": "t_array(t_uint256)49_storage"
      },
      {
        "astId": 12261,
        "contract": "contracts/PostalCodeProvider.sol:PostalCodeProvider",
        "label": "LINK",
        "offset": 0,
        "slot": "201",
        "type": "t_contract(LinkTokenInterface)94"
      },
      {
        "astId": 12263,
        "contract": "contracts/PostalCodeProvider.sol:PostalCodeProvider",
        "label": "vrfCoordinator",
        "offset": 0,
        "slot": "202",
        "type": "t_address"
      },
      {
        "astId": 12267,
        "contract": "contracts/PostalCodeProvider.sol:PostalCodeProvider",
        "label": "nonces",
        "offset": 0,
        "slot": "203",
        "type": "t_mapping(t_bytes32,t_uint256)"
      },
      {
        "astId": 12271,
        "contract": "contracts/PostalCodeProvider.sol:PostalCodeProvider",
        "label": "______gap",
        "offset": 0,
        "slot": "204",
        "type": "t_array(t_uint256)50_storage"
      },
      {
        "astId": 9501,
        "contract": "contracts/PostalCodeProvider.sol:PostalCodeProvider",
        "label": "keyHash",
        "offset": 0,
        "slot": "254",
        "type": "t_bytes32"
      },
      {
        "astId": 9503,
        "contract": "contracts/PostalCodeProvider.sol:PostalCodeProvider",
        "label": "fee",
        "offset": 0,
        "slot": "255",
        "type": "t_uint256"
      },
      {
        "astId": 9506,
        "contract": "contracts/PostalCodeProvider.sol:PostalCodeProvider",
        "label": "o",
        "offset": 0,
        "slot": "256",
        "type": "t_array(t_uint32)dyn_storage"
      },
      {
        "astId": 9509,
        "contract": "contracts/PostalCodeProvider.sol:PostalCodeProvider",
        "label": "s",
        "offset": 0,
        "slot": "257",
        "type": "t_array(t_uint32)dyn_storage"
      },
      {
        "astId": 9511,
        "contract": "contracts/PostalCodeProvider.sol:PostalCodeProvider",
        "label": "_requestId",
        "offset": 0,
        "slot": "258",
        "type": "t_bytes32"
      },
      {
        "astId": 9513,
        "contract": "contracts/PostalCodeProvider.sol:PostalCodeProvider",
        "label": "_randomSeed",
        "offset": 0,
        "slot": "259",
        "type": "t_uint256"
      },
      {
        "astId": 9517,
        "contract": "contracts/PostalCodeProvider.sol:PostalCodeProvider",
        "label": "__gap",
        "offset": 0,
        "slot": "260",
        "type": "t_array(t_uint256)48_storage"
      }
    ],
    "types": {
      "t_address": {
        "encoding": "inplace",
        "label": "address",
        "numberOfBytes": "20"
      },
      "t_array(t_bytes32)dyn_storage": {
        "base": "t_bytes32",
        "encoding": "dynamic_array",
        "label": "bytes32[]",
        "numberOfBytes": "32"
      },
      "t_array(t_uint256)48_storage": {
        "base": "t_uint256",
        "encoding": "inplace",
        "label": "uint256[48]",
        "numberOfBytes": "1536"
      },
      "t_array(t_uint256)49_storage": {
        "base": "t_uint256",
        "encoding": "inplace",
        "label": "uint256[49]",
        "numberOfBytes": "1568"
      },
      "t_array(t_uint256)50_storage": {
        "base": "t_uint256",
        "encoding": "inplace",
        "label": "uint256[50]",
        "numberOfBytes": "1600"
      },
      "t_array(t_uint32)dyn_storage": {
        "base": "t_uint32",
        "encoding": "dynamic_array",
        "label": "uint32[]",
        "numberOfBytes": "32"
      },
      "t_bool": {
        "encoding": "inplace",
        "label": "bool",
        "numberOfBytes": "1"
      },
      "t_bytes32": {
        "encoding": "inplace",
        "label": "bytes32",
        "numberOfBytes": "32"
      },
      "t_contract(LinkTokenInterface)94": {
        "encoding": "inplace",
        "label": "contract LinkTokenInterface",
        "numberOfBytes": "20"
      },
      "t_mapping(t_address,t_bool)": {
        "encoding": "mapping",
        "key": "t_address",
        "label": "mapping(address => bool)",
        "numberOfBytes": "32",
        "value": "t_bool"
      },
      "t_mapping(t_bytes32,t_struct(AddressSet)4040_storage)": {
        "encoding": "mapping",
        "key": "t_bytes32",
        "label": "mapping(bytes32 => struct EnumerableSetUpgradeable.AddressSet)",
        "numberOfBytes": "32",
        "value": "t_struct(AddressSet)4040_storage"
      },
      "t_mapping(t_bytes32,t_struct(RoleData)348_storage)": {
        "encoding": "mapping",
        "key": "t_bytes32",
        "label": "mapping(bytes32 => struct AccessControlUpgradeable.RoleData)",
        "numberOfBytes": "32",
        "value": "t_struct(RoleData)348_storage"
      },
      "t_mapping(t_bytes32,t_uint256)": {
        "encoding": "mapping",
        "key": "t_bytes32",
        "label": "mapping(bytes32 => uint256)",
        "numberOfBytes": "32",
        "value": "t_uint256"
      },
      "t_struct(AddressSet)4040_storage": {
        "encoding": "inplace",
        "label": "struct EnumerableSetUpgradeable.AddressSet",
        "members": [
          {
            "astId": 4039,
            "contract": "contracts/PostalCodeProvider.sol:PostalCodeProvider",
            "label": "_inner",
            "offset": 0,
            "slot": "0",
            "type": "t_struct(Set)3739_storage"
          }
        ],
        "numberOfBytes": "64"
      },
      "t_struct(RoleData)348_storage": {
        "encoding": "inplace",
        "label": "struct AccessControlUpgradeable.RoleData",
        "members": [
          {
            "astId": 345,
            "contract": "contracts/PostalCodeProvider.sol:PostalCodeProvider",
            "label": "members",
            "offset": 0,
            "slot": "0",
            "type": "t_mapping(t_address,t_bool)"
          },
          {
            "astId": 347,
            "contract": "contracts/PostalCodeProvider.sol:PostalCodeProvider",
            "label": "adminRole",
            "offset": 0,
            "slot": "1",
            "type": "t_bytes32"
          }
        ],
        "numberOfBytes": "64"
      },
      "t_struct(Set)3739_storage": {
        "encoding": "inplace",
        "label": "struct EnumerableSetUpgradeable.Set",
        "members": [
          {
            "astId": 3734,
            "contract": "contracts/PostalCodeProvider.sol:PostalCodeProvider",
            "label": "_values",
            "offset": 0,
            "slot": "0",
            "type": "t_array(t_bytes32)dyn_storage"
          },
          {
            "astId": 3738,
            "contract": "contracts/PostalCodeProvider.sol:PostalCodeProvider",
            "label": "_indexes",
            "offset": 0,
            "slot": "1",
            "type": "t_mapping(t_bytes32,t_uint256)"
          }
        ],
        "numberOfBytes": "64"
      },
      "t_uint256": {
        "encoding": "inplace",
        "label": "uint256",
        "numberOfBytes": "32"
      },
      "t_uint32": {
        "encoding": "inplace",
        "label": "uint32",
        "numberOfBytes": "4"
      }
    }
  }
}