{
  "address": "0xF7ed97E6B97fa2F54c15E1ba355F9B457829c083",
  "abi": [
    {
      "inputs": [
        {
          "internalType": "address",
          "name": "_vrfCoordinator",
          "type": "address"
        },
        {
          "internalType": "address",
          "name": "_link",
          "type": "address"
        },
        {
          "internalType": "bytes32",
          "name": "_keyHash",
          "type": "bytes32"
        },
        {
          "internalType": "uint256",
          "name": "_fee",
          "type": "uint256"
        }
      ],
      "stateMutability": "nonpayable",
      "type": "constructor"
    },
    {
      "anonymous": false,
      "inputs": [
        {
          "indexed": true,
          "internalType": "bytes32",
          "name": "role",
          "type": "bytes32"
        },
        {
          "indexed": true,
          "internalType": "bytes32",
          "name": "previousAdminRole",
          "type": "bytes32"
        },
        {
          "indexed": true,
          "internalType": "bytes32",
          "name": "newAdminRole",
          "type": "bytes32"
        }
      ],
      "name": "RoleAdminChanged",
      "type": "event"
    },
    {
      "anonymous": false,
      "inputs": [
        {
          "indexed": true,
          "internalType": "bytes32",
          "name": "role",
          "type": "bytes32"
        },
        {
          "indexed": true,
          "internalType": "address",
          "name": "account",
          "type": "address"
        },
        {
          "indexed": true,
          "internalType": "address",
          "name": "sender",
          "type": "address"
        }
      ],
      "name": "RoleGranted",
      "type": "event"
    },
    {
      "anonymous": false,
      "inputs": [
        {
          "indexed": true,
          "internalType": "bytes32",
          "name": "role",
          "type": "bytes32"
        },
        {
          "indexed": true,
          "internalType": "address",
          "name": "account",
          "type": "address"
        },
        {
          "indexed": true,
          "internalType": "address",
          "name": "sender",
          "type": "address"
        }
      ],
      "name": "RoleRevoked",
      "type": "event"
    },
    {
      "inputs": [],
      "name": "DEFAULT_ADMIN_ROLE",
      "outputs": [
        {
          "internalType": "bytes32",
          "name": "",
          "type": "bytes32"
        }
      ],
      "stateMutability": "view",
      "type": "function"
    },
    {
      "inputs": [],
      "name": "_randomSeed",
      "outputs": [
        {
          "internalType": "uint256",
          "name": "",
          "type": "uint256"
        }
      ],
      "stateMutability": "view",
      "type": "function"
    },
    {
      "inputs": [],
      "name": "_requestId",
      "outputs": [
        {
          "internalType": "bytes32",
          "name": "",
          "type": "bytes32"
        }
      ],
      "stateMutability": "view",
      "type": "function"
    },
    {
      "inputs": [],
      "name": "getAvailable",
      "outputs": [
        {
          "internalType": "uint32[]",
          "name": "",
          "type": "uint32[]"
        }
      ],
      "stateMutability": "view",
      "type": "function"
    },
    {
      "inputs": [
        {
          "internalType": "bytes32",
          "name": "role",
          "type": "bytes32"
        }
      ],
      "name": "getRoleAdmin",
      "outputs": [
        {
          "internalType": "bytes32",
          "name": "",
          "type": "bytes32"
        }
      ],
      "stateMutability": "view",
      "type": "function"
    },
    {
      "inputs": [
        {
          "internalType": "bytes32",
          "name": "role",
          "type": "bytes32"
        },
        {
          "internalType": "uint256",
          "name": "index",
          "type": "uint256"
        }
      ],
      "name": "getRoleMember",
      "outputs": [
        {
          "internalType": "address",
          "name": "",
          "type": "address"
        }
      ],
      "stateMutability": "view",
      "type": "function"
    },
    {
      "inputs": [
        {
          "internalType": "bytes32",
          "name": "role",
          "type": "bytes32"
        }
      ],
      "name": "getRoleMemberCount",
      "outputs": [
        {
          "internalType": "uint256",
          "name": "",
          "type": "uint256"
        }
      ],
      "stateMutability": "view",
      "type": "function"
    },
    {
      "inputs": [
        {
          "internalType": "uint256",
          "name": "tokenId",
          "type": "uint256"
        }
      ],
      "name": "getTokenId",
      "outputs": [
        {
          "internalType": "uint256",
          "name": "",
          "type": "uint256"
        }
      ],
      "stateMutability": "view",
      "type": "function"
    },
    {
      "inputs": [
        {
          "internalType": "bytes32",
          "name": "role",
          "type": "bytes32"
        },
        {
          "internalType": "address",
          "name": "account",
          "type": "address"
        }
      ],
      "name": "grantRole",
      "outputs": [],
      "stateMutability": "nonpayable",
      "type": "function"
    },
    {
      "inputs": [
        {
          "internalType": "bytes32",
          "name": "role",
          "type": "bytes32"
        },
        {
          "internalType": "address",
          "name": "account",
          "type": "address"
        }
      ],
      "name": "hasRole",
      "outputs": [
        {
          "internalType": "bool",
          "name": "",
          "type": "bool"
        }
      ],
      "stateMutability": "view",
      "type": "function"
    },
    {
      "inputs": [
        {
          "internalType": "uint32[]",
          "name": "_available",
          "type": "uint32[]"
        }
      ],
      "name": "pushAvailable",
      "outputs": [],
      "stateMutability": "nonpayable",
      "type": "function"
    },
    {
      "inputs": [],
      "name": "randomizeTokenIds",
      "outputs": [
        {
          "internalType": "bytes32",
          "name": "requestId",
          "type": "bytes32"
        }
      ],
      "stateMutability": "nonpayable",
      "type": "function"
    },
    {
      "inputs": [
        {
          "internalType": "bytes32",
          "name": "requestId",
          "type": "bytes32"
        },
        {
          "internalType": "uint256",
          "name": "randomness",
          "type": "uint256"
        }
      ],
      "name": "rawFulfillRandomness",
      "outputs": [],
      "stateMutability": "nonpayable",
      "type": "function"
    },
    {
      "inputs": [
        {
          "internalType": "bytes32",
          "name": "role",
          "type": "bytes32"
        },
        {
          "internalType": "address",
          "name": "account",
          "type": "address"
        }
      ],
      "name": "renounceRole",
      "outputs": [],
      "stateMutability": "nonpayable",
      "type": "function"
    },
    {
      "inputs": [
        {
          "internalType": "bytes32",
          "name": "role",
          "type": "bytes32"
        },
        {
          "internalType": "address",
          "name": "account",
          "type": "address"
        }
      ],
      "name": "revokeRole",
      "outputs": [],
      "stateMutability": "nonpayable",
      "type": "function"
    },
    {
      "inputs": [],
      "name": "shuffle",
      "outputs": [],
      "stateMutability": "nonpayable",
      "type": "function"
    },
    {
      "inputs": [
        {
          "internalType": "bytes4",
          "name": "interfaceId",
          "type": "bytes4"
        }
      ],
      "name": "supportsInterface",
      "outputs": [
        {
          "internalType": "bool",
          "name": "",
          "type": "bool"
        }
      ],
      "stateMutability": "view",
      "type": "function"
    }
  ],
  "transactionHash": "0xe1d1eb243af0f67855f95845d98bc251ce8add3ee134ecc75af31fc52af390c2",
  "args": [
    "0xb3dCcb4Cf7a26f6cf6B120Cf5A73875B7BBc655B",
    "0x01BE23585060835E02B77ef475b0Cc51aA1e0709",
    "0x2ed0feb3e7fd2022120aa84fab1945545a9f2ffc9076fd6156fa96eaff4c1311",
    "100000000000000000"
  ],
  "solcInputHash": "7112f3c9426f2e64710077388ec9aff1",
  "bytecode": "0x60c06040523480156200001157600080fd5b50604051620017e3380380620017e38339810160408190526200003491620001e8565b6001600160a01b0384811660a05283166080526200005460003362000066565b60039190915560045550620002309050565b6200007d8282620000a960201b620006fa1760201c565b6000828152600160209081526040909120620000a491839062000704620000b9821b17901c565b505050565b620000b58282620000d9565b5050565b6000620000d0836001600160a01b03841662000179565b90505b92915050565b6000828152602081815260408083206001600160a01b038516845290915290205460ff16620000b5576000828152602081815260408083206001600160a01b03851684529091529020805460ff19166001179055620001353390565b6001600160a01b0316816001600160a01b0316837f2f8788117e7eff1d82e926ec794901d17c78024a50270940304540a733656f0d60405160405180910390a45050565b6000818152600183016020526040812054620001c257508154600181810184556000848152602080822090930184905584548482528286019093526040902091909155620000d3565b506000620000d3565b80516001600160a01b0381168114620001e357600080fd5b919050565b60008060008060808587031215620001ff57600080fd5b6200020a85620001cb565b93506200021a60208601620001cb565b6040860151606090960151949790965092505050565b60805160a05161157f62000264600039600081816104a60152610bc30152600081816105790152610b94015261157f6000f3fe608060405234801561001057600080fd5b506004361061010b5760003560e01c80639010d07c116100a2578063c1540de711610071578063c1540de714610221578063ca15c8731461022a578063d547741f1461023d578063d7c230fd14610250578063f9cc06051461025857600080fd5b80639010d07c146101c857806391d14854146101f357806394985ddd14610206578063a217fddf1461021957600080fd5b806326e8a929116100de57806326e8a929146101865780632f2ff15d1461019957806336568abe146101ac5780635b4425d5146101bf57600080fd5b806301ffc9a71461011057806314ff5ea314610138578063248a9ca3146101595780632520bf041461017c575b600080fd5b61012361011e366004611114565b61026d565b60405190151581526020015b60405180910390f35b61014b61014636600461113e565b610298565b60405190815260200161012f565b61014b61016736600461113e565b60009081526020819052604090206001015490565b6101846102f8565b005b610184610194366004611186565b610312565b6101846101a736600461124b565b61040f565b6101846101ba36600461124b565b610431565b61014b60075481565b6101db6101d6366004611287565b610453565b6040516001600160a01b03909116815260200161012f565b61012361020136600461124b565b610472565b610184610214366004611287565b61049b565b61014b600081565b61014b60085481565b61014b61023836600461113e565b610527565b61018461024b36600461124b565b61053e565b61014b610548565b610260610669565b60405161012f91906112a9565b60006001600160e01b03198216635a05180f60e01b1480610292575061029282610719565b92915050565b6000806102b8600060016005805490506102b29190611309565b8561074e565b9050600681815481106102cd576102cd611320565b6000918252602090912060088204015460079091166004026101000a900463ffffffff169392505050565b6000610304813361087e565b61030f6008546108e2565b50565b600061031e813361087e565b60005b82518161ffff16101561040a576005838261ffff168151811061034657610346611320565b602002602001015190806001815401808255809150506001900390600052602060002090600891828204019190066004029091909190916101000a81548163ffffffff021916908363ffffffff1602179055506006838261ffff16815181106103b1576103b1611320565b60209081029190910181015182546001810184556000938452919092206008820401805460079092166004026101000a63ffffffff8181021990931692909316929092021790558061040281611336565b915050610321565b505050565b6104198282610a9f565b600082815260016020526040902061040a9082610704565b61043b8282610ac5565b600082815260016020526040902061040a9082610b3f565b600082815260016020526040812061046b9083610b54565b9392505050565b6000918252602082815260408084206001600160a01b0393909316845291905290205460ff1690565b336001600160a01b037f000000000000000000000000000000000000000000000000000000000000000016146105185760405162461bcd60e51b815260206004820152601f60248201527f4f6e6c7920565246436f6f7264696e61746f722063616e2066756c66696c6c0060448201526064015b60405180910390fd5b600791909155600855565b5050565b600081815260016020526040812061029290610b60565b61043b8282610b6a565b600080610555813361087e565b600480546040516370a0823160e01b81523092810192909252906001600160a01b037f000000000000000000000000000000000000000000000000000000000000000016906370a082319060240160206040518083038186803b1580156105bb57600080fd5b505afa1580156105cf573d6000803e3d6000fd5b505050506040513d601f19601f820116820180604052508101906105f39190611358565b10156106555760405162461bcd60e51b815260206004820152602b60248201527f4e6f7420656e6f756768204c494e4b202d2066696c6c20636f6e74726163742060448201526a1dda5d1a0819985d58d95d60aa1b606482015260840161050f565b610663600354600454610b90565b91505090565b60606000610677813361087e565b60068054806020026020016040519081016040528092919081815260200182805480156106ef57602002820191906000526020600020906000905b82829054906101000a900463ffffffff1663ffffffff16815260200190600401906020826003010492830192600103820291508084116106b25790505b505050505091505090565b6105238282610d23565b600061046b836001600160a01b038416610da7565b60006001600160e01b03198216637965db0b60e01b148061029257506301ffc9a760e01b6001600160e01b0319831614610292565b600083831061082a57600060026107658686611309565b61076f9190611387565b610779908661139b565b9050826005828154811061078f5761078f611320565b6000918252602090912060088204015460079091166004026101000a900463ffffffff1614156107c057905061046b565b82600582815481106107d4576107d4611320565b6000918252602090912060088204015460079091166004026101000a900463ffffffff1611156108155761080d856102b2600184611309565b91505061046b565b61080d61082382600161139b565b858561074e565b60405162461bcd60e51b815260206004820152602360248201527f456c656d656e74206973206e6f742070726573656e7420696e2074686520617260448201526272617960e81b606482015260840161050f565b6108888282610472565b610523576108a0816001600160a01b03166014610df6565b6108ab836020610df6565b6040516020016108bc9291906113e3565b60408051601f198184030181529082905262461bcd60e51b825261050f91600401611484565b60005b6006546108f490600290611309565b8161ffff1610156105235760065460009061ffff831690819061091990600190611309565b6109239190611309565b61092e90600161139b565b6109389085611497565b610942919061139b565b9050600060068361ffff168154811061095d5761095d611320565b90600052602060002090600891828204019190066004029054906101000a900463ffffffff1690506006828154811061099857610998611320565b90600052602060002090600891828204019190066004029054906101000a900463ffffffff1660068461ffff16815481106109d5576109d5611320565b90600052602060002090600891828204019190066004026101000a81548163ffffffff021916908363ffffffff1602179055508060068381548110610a1c57610a1c611320565b90600052602060002090600891828204019190066004026101000a81548163ffffffff021916908363ffffffff1602179055508383604051602001610a6f92919091825261ffff16602082015260400190565b6040516020818303038152906040528051906020012060001c935050508080610a9790611336565b9150506108e5565b600082815260208190526040902060010154610abb813361087e565b61040a8383610d23565b6001600160a01b0381163314610b355760405162461bcd60e51b815260206004820152602f60248201527f416363657373436f6e74726f6c3a2063616e206f6e6c792072656e6f756e636560448201526e103937b632b9903337b91039b2b63360891b606482015260840161050f565b6105238282610f92565b600061046b836001600160a01b038416610ff7565b600061046b83836110ea565b6000610292825490565b600082815260208190526040902060010154610b86813361087e565b61040a8383610f92565b60007f00000000000000000000000000000000000000000000000000000000000000006001600160a01b0316634000aea07f000000000000000000000000000000000000000000000000000000000000000084866000604051602001610c00929190918252602082015260400190565b6040516020818303038152906040526040518463ffffffff1660e01b8152600401610c2d939291906114ab565b602060405180830381600087803b158015610c4757600080fd5b505af1158015610c5b573d6000803e3d6000fd5b505050506040513d601f19601f82011682018060405250810190610c7f91906114db565b50600083815260026020818152604080842054815180840189905280830186905230606082015260808082018390528351808303909101815260a090910190925281519183019190912093879052919052610cdb90600161139b565b600085815260026020526040902055610d1b8482604080516020808201949094528082019290925280518083038201815260609092019052805191012090565b949350505050565b610d2d8282610472565b610523576000828152602081815260408083206001600160a01b03851684529091529020805460ff19166001179055610d633390565b6001600160a01b0316816001600160a01b0316837f2f8788117e7eff1d82e926ec794901d17c78024a50270940304540a733656f0d60405160405180910390a45050565b6000818152600183016020526040812054610dee57508154600181810184556000848152602080822090930184905584548482528286019093526040902091909155610292565b506000610292565b60606000610e058360026114fd565b610e1090600261139b565b67ffffffffffffffff811115610e2857610e28611157565b6040519080825280601f01601f191660200182016040528015610e52576020820181803683370190505b509050600360fc1b81600081518110610e6d57610e6d611320565b60200101906001600160f81b031916908160001a905350600f60fb1b81600181518110610e9c57610e9c611320565b60200101906001600160f81b031916908160001a9053506000610ec08460026114fd565b610ecb90600161139b565b90505b6001811115610f43576f181899199a1a9b1b9c1cb0b131b232b360811b85600f1660108110610eff57610eff611320565b1a60f81b828281518110610f1557610f15611320565b60200101906001600160f81b031916908160001a90535060049490941c93610f3c8161151c565b9050610ece565b50831561046b5760405162461bcd60e51b815260206004820181905260248201527f537472696e67733a20686578206c656e67746820696e73756666696369656e74604482015260640161050f565b610f9c8282610472565b15610523576000828152602081815260408083206001600160a01b0385168085529252808320805460ff1916905551339285917ff6391f5c32d9c69d2a47ea670b442974b53935d1edc7fd64eb21e047a839171b9190a45050565b600081815260018301602052604081205480156110e057600061101b600183611309565b855490915060009061102f90600190611309565b905081811461109457600086600001828154811061104f5761104f611320565b906000526020600020015490508087600001848154811061107257611072611320565b6000918252602080832090910192909255918252600188019052604090208390555b85548690806110a5576110a5611533565b600190038181906000526020600020016000905590558560010160008681526020019081526020016000206000905560019350505050610292565b6000915050610292565b600082600001828154811061110157611101611320565b9060005260206000200154905092915050565b60006020828403121561112657600080fd5b81356001600160e01b03198116811461046b57600080fd5b60006020828403121561115057600080fd5b5035919050565b634e487b7160e01b600052604160045260246000fd5b803563ffffffff8116811461118157600080fd5b919050565b6000602080838503121561119957600080fd5b823567ffffffffffffffff808211156111b157600080fd5b818501915085601f8301126111c557600080fd5b8135818111156111d7576111d7611157565b8060051b604051601f19603f830116810181811085821117156111fc576111fc611157565b60405291825284820192508381018501918883111561121a57600080fd5b938501935b8285101561123f576112308561116d565b8452938501939285019261121f565b98975050505050505050565b6000806040838503121561125e57600080fd5b8235915060208301356001600160a01b038116811461127c57600080fd5b809150509250929050565b6000806040838503121561129a57600080fd5b50508035926020909101359150565b6020808252825182820181905260009190848201906040850190845b818110156112e757835163ffffffff16835292840192918401916001016112c5565b50909695505050505050565b634e487b7160e01b600052601160045260246000fd5b60008282101561131b5761131b6112f3565b500390565b634e487b7160e01b600052603260045260246000fd5b600061ffff8083168181141561134e5761134e6112f3565b6001019392505050565b60006020828403121561136a57600080fd5b5051919050565b634e487b7160e01b600052601260045260246000fd5b60008261139657611396611371565b500490565b600082198211156113ae576113ae6112f3565b500190565b60005b838110156113ce5781810151838201526020016113b6565b838111156113dd576000848401525b50505050565b7f416363657373436f6e74726f6c3a206163636f756e742000000000000000000081526000835161141b8160178501602088016113b3565b7001034b99036b4b9b9b4b733903937b6329607d1b601791840191820152835161144c8160288401602088016113b3565b01602801949350505050565b600081518084526114708160208601602086016113b3565b601f01601f19169290920160200192915050565b60208152600061046b6020830184611458565b6000826114a6576114a6611371565b500690565b60018060a01b03841681528260208201526060604082015260006114d26060830184611458565b95945050505050565b6000602082840312156114ed57600080fd5b8151801515811461046b57600080fd5b6000816000190483118215151615611517576115176112f3565b500290565b60008161152b5761152b6112f3565b506000190190565b634e487b7160e01b600052603160045260246000fdfea264697066735822122061ae1493e073ffd3426deccbc7c4a657c2e6154f4497bd7ba1f98b99620fd01164736f6c63430008090033",
  "devdoc": {
    "kind": "dev",
    "methods": {
      "getRoleAdmin(bytes32)": {
        "details": "Returns the admin role that controls `role`. See {grantRole} and {revokeRole}. To change a role's admin, use {_setRoleAdmin}."
      },
      "getRoleMember(bytes32,uint256)": {
        "details": "Returns one of the accounts that have `role`. `index` must be a value between 0 and {getRoleMemberCount}, non-inclusive. Role bearers are not sorted in any particular way, and their ordering may change at any point. WARNING: When using {getRoleMember} and {getRoleMemberCount}, make sure you perform all queries on the same block. See the following https://forum.openzeppelin.com/t/iterating-over-elements-on-enumerableset-in-openzeppelin-contracts/2296[forum post] for more information."
      },
      "getRoleMemberCount(bytes32)": {
        "details": "Returns the number of accounts that have `role`. Can be used together with {getRoleMember} to enumerate all bearers of a role."
      },
      "grantRole(bytes32,address)": {
        "details": "Overload {grantRole} to track enumerable memberships"
      },
      "hasRole(bytes32,address)": {
        "details": "Returns `true` if `account` has been granted `role`."
      },
      "pushAvailable(uint32[])": {
        "details": "Set Available mints"
      },
      "randomizeTokenIds()": {
        "details": "Initialize Randomness using chainlink"
      },
      "renounceRole(bytes32,address)": {
        "details": "Overload {renounceRole} to track enumerable memberships"
      },
      "revokeRole(bytes32,address)": {
        "details": "Overload {revokeRole} to track enumerable memberships"
      },
      "supportsInterface(bytes4)": {
        "details": "See {IERC165-supportsInterface}."
      }
    },
    "version": 1
  },
  "userdoc": {
    "kind": "user",
    "methods": {},
    "notice": "Manage PostalCodes of Propertys",
    "version": 1
  },
  "storageLayout": {
    "storage": [
      {
        "astId": 4523,
        "contract": "contracts/PostalCodeProvider.sol:PostalCodeProvider",
        "label": "_roles",
        "offset": 0,
        "slot": "0",
        "type": "t_mapping(t_bytes32,t_struct(RoleData)4518_storage)"
      },
      {
        "astId": 4824,
        "contract": "contracts/PostalCodeProvider.sol:PostalCodeProvider",
        "label": "_roleMembers",
        "offset": 0,
        "slot": "1",
        "type": "t_mapping(t_bytes32,t_struct(AddressSet)8373_storage)"
      },
      {
        "astId": 79,
        "contract": "contracts/PostalCodeProvider.sol:PostalCodeProvider",
        "label": "nonces",
        "offset": 0,
        "slot": "2",
        "type": "t_mapping(t_bytes32,t_uint256)"
      },
      {
        "astId": 10475,
        "contract": "contracts/PostalCodeProvider.sol:PostalCodeProvider",
        "label": "keyHash",
        "offset": 0,
        "slot": "3",
        "type": "t_bytes32"
      },
      {
        "astId": 10477,
        "contract": "contracts/PostalCodeProvider.sol:PostalCodeProvider",
        "label": "fee",
        "offset": 0,
        "slot": "4",
        "type": "t_uint256"
      },
      {
        "astId": 10480,
        "contract": "contracts/PostalCodeProvider.sol:PostalCodeProvider",
        "label": "o",
        "offset": 0,
        "slot": "5",
        "type": "t_array(t_uint32)dyn_storage"
      },
      {
        "astId": 10483,
        "contract": "contracts/PostalCodeProvider.sol:PostalCodeProvider",
        "label": "s",
        "offset": 0,
        "slot": "6",
        "type": "t_array(t_uint32)dyn_storage"
      },
      {
        "astId": 10485,
        "contract": "contracts/PostalCodeProvider.sol:PostalCodeProvider",
        "label": "_requestId",
        "offset": 0,
        "slot": "7",
        "type": "t_bytes32"
      },
      {
        "astId": 10487,
        "contract": "contracts/PostalCodeProvider.sol:PostalCodeProvider",
        "label": "_randomSeed",
        "offset": 0,
        "slot": "8",
        "type": "t_uint256"
      },
      {
        "astId": 10491,
        "contract": "contracts/PostalCodeProvider.sol:PostalCodeProvider",
        "label": "__gap",
        "offset": 0,
        "slot": "9",
        "type": "t_array(t_uint256)48_storage"
      }
    ],
    "types": {
      "t_address": {
        "encoding": "inplace",
        "label": "address",
        "numberOfBytes": "20"
      },
      "t_array(t_bytes32)dyn_storage": {
        "base": "t_bytes32",
        "encoding": "dynamic_array",
        "label": "bytes32[]",
        "numberOfBytes": "32"
      },
      "t_array(t_uint256)48_storage": {
        "base": "t_uint256",
        "encoding": "inplace",
        "label": "uint256[48]",
        "numberOfBytes": "1536"
      },
      "t_array(t_uint32)dyn_storage": {
        "base": "t_uint32",
        "encoding": "dynamic_array",
        "label": "uint32[]",
        "numberOfBytes": "32"
      },
      "t_bool": {
        "encoding": "inplace",
        "label": "bool",
        "numberOfBytes": "1"
      },
      "t_bytes32": {
        "encoding": "inplace",
        "label": "bytes32",
        "numberOfBytes": "32"
      },
      "t_mapping(t_address,t_bool)": {
        "encoding": "mapping",
        "key": "t_address",
        "label": "mapping(address => bool)",
        "numberOfBytes": "32",
        "value": "t_bool"
      },
      "t_mapping(t_bytes32,t_struct(AddressSet)8373_storage)": {
        "encoding": "mapping",
        "key": "t_bytes32",
        "label": "mapping(bytes32 => struct EnumerableSet.AddressSet)",
        "numberOfBytes": "32",
        "value": "t_struct(AddressSet)8373_storage"
      },
      "t_mapping(t_bytes32,t_struct(RoleData)4518_storage)": {
        "encoding": "mapping",
        "key": "t_bytes32",
        "label": "mapping(bytes32 => struct AccessControl.RoleData)",
        "numberOfBytes": "32",
        "value": "t_struct(RoleData)4518_storage"
      },
      "t_mapping(t_bytes32,t_uint256)": {
        "encoding": "mapping",
        "key": "t_bytes32",
        "label": "mapping(bytes32 => uint256)",
        "numberOfBytes": "32",
        "value": "t_uint256"
      },
      "t_struct(AddressSet)8373_storage": {
        "encoding": "inplace",
        "label": "struct EnumerableSet.AddressSet",
        "members": [
          {
            "astId": 8372,
            "contract": "contracts/PostalCodeProvider.sol:PostalCodeProvider",
            "label": "_inner",
            "offset": 0,
            "slot": "0",
            "type": "t_struct(Set)8072_storage"
          }
        ],
        "numberOfBytes": "64"
      },
      "t_struct(RoleData)4518_storage": {
        "encoding": "inplace",
        "label": "struct AccessControl.RoleData",
        "members": [
          {
            "astId": 4515,
            "contract": "contracts/PostalCodeProvider.sol:PostalCodeProvider",
            "label": "members",
            "offset": 0,
            "slot": "0",
            "type": "t_mapping(t_address,t_bool)"
          },
          {
            "astId": 4517,
            "contract": "contracts/PostalCodeProvider.sol:PostalCodeProvider",
            "label": "adminRole",
            "offset": 0,
            "slot": "1",
            "type": "t_bytes32"
          }
        ],
        "numberOfBytes": "64"
      },
      "t_struct(Set)8072_storage": {
        "encoding": "inplace",
        "label": "struct EnumerableSet.Set",
        "members": [
          {
            "astId": 8067,
            "contract": "contracts/PostalCodeProvider.sol:PostalCodeProvider",
            "label": "_values",
            "offset": 0,
            "slot": "0",
            "type": "t_array(t_bytes32)dyn_storage"
          },
          {
            "astId": 8071,
            "contract": "contracts/PostalCodeProvider.sol:PostalCodeProvider",
            "label": "_indexes",
            "offset": 0,
            "slot": "1",
            "type": "t_mapping(t_bytes32,t_uint256)"
          }
        ],
        "numberOfBytes": "64"
      },
      "t_uint256": {
        "encoding": "inplace",
        "label": "uint256",
        "numberOfBytes": "32"
      },
      "t_uint32": {
        "encoding": "inplace",
        "label": "uint32",
        "numberOfBytes": "4"
      }
    }
  }
}