{
  "address": "0x4901857d637409d6EDe0aE1b64D8efA29422Fdd2",
  "abi": [
    {
      "anonymous": false,
      "inputs": [
        {
          "indexed": true,
          "internalType": "address",
          "name": "owner",
          "type": "address"
        },
        {
          "indexed": true,
          "internalType": "address",
          "name": "approved",
          "type": "address"
        },
        {
          "indexed": true,
          "internalType": "uint256",
          "name": "tokenId",
          "type": "uint256"
        }
      ],
      "name": "Approval",
      "type": "event"
    },
    {
      "anonymous": false,
      "inputs": [
        {
          "indexed": true,
          "internalType": "address",
          "name": "owner",
          "type": "address"
        },
        {
          "indexed": true,
          "internalType": "address",
          "name": "operator",
          "type": "address"
        },
        {
          "indexed": false,
          "internalType": "bool",
          "name": "approved",
          "type": "bool"
        }
      ],
      "name": "ApprovalForAll",
      "type": "event"
    },
    {
      "anonymous": false,
      "inputs": [
        {
          "indexed": true,
          "internalType": "address",
          "name": "previousOwner",
          "type": "address"
        },
        {
          "indexed": true,
          "internalType": "address",
          "name": "newOwner",
          "type": "address"
        }
      ],
      "name": "OwnershipTransferred",
      "type": "event"
    },
    {
      "anonymous": false,
      "inputs": [
        {
          "indexed": false,
          "internalType": "address",
          "name": "account",
          "type": "address"
        }
      ],
      "name": "Paused",
      "type": "event"
    },
    {
      "anonymous": false,
      "inputs": [
        {
          "indexed": true,
          "internalType": "bytes32",
          "name": "role",
          "type": "bytes32"
        },
        {
          "indexed": true,
          "internalType": "bytes32",
          "name": "previousAdminRole",
          "type": "bytes32"
        },
        {
          "indexed": true,
          "internalType": "bytes32",
          "name": "newAdminRole",
          "type": "bytes32"
        }
      ],
      "name": "RoleAdminChanged",
      "type": "event"
    },
    {
      "anonymous": false,
      "inputs": [
        {
          "indexed": true,
          "internalType": "bytes32",
          "name": "role",
          "type": "bytes32"
        },
        {
          "indexed": true,
          "internalType": "address",
          "name": "account",
          "type": "address"
        },
        {
          "indexed": true,
          "internalType": "address",
          "name": "sender",
          "type": "address"
        }
      ],
      "name": "RoleGranted",
      "type": "event"
    },
    {
      "anonymous": false,
      "inputs": [
        {
          "indexed": true,
          "internalType": "bytes32",
          "name": "role",
          "type": "bytes32"
        },
        {
          "indexed": true,
          "internalType": "address",
          "name": "account",
          "type": "address"
        },
        {
          "indexed": true,
          "internalType": "address",
          "name": "sender",
          "type": "address"
        }
      ],
      "name": "RoleRevoked",
      "type": "event"
    },
    {
      "anonymous": false,
      "inputs": [
        {
          "indexed": true,
          "internalType": "address",
          "name": "from",
          "type": "address"
        },
        {
          "indexed": true,
          "internalType": "address",
          "name": "to",
          "type": "address"
        },
        {
          "indexed": true,
          "internalType": "uint256",
          "name": "tokenId",
          "type": "uint256"
        }
      ],
      "name": "Transfer",
      "type": "event"
    },
    {
      "anonymous": false,
      "inputs": [
        {
          "indexed": false,
          "internalType": "address",
          "name": "account",
          "type": "address"
        }
      ],
      "name": "Unpaused",
      "type": "event"
    },
    {
      "inputs": [],
      "name": "DEFAULT_ADMIN_ROLE",
      "outputs": [
        {
          "internalType": "bytes32",
          "name": "",
          "type": "bytes32"
        }
      ],
      "stateMutability": "view",
      "type": "function"
    },
    {
      "inputs": [],
      "name": "LAUNCH_PRICE",
      "outputs": [
        {
          "internalType": "uint256",
          "name": "",
          "type": "uint256"
        }
      ],
      "stateMutability": "view",
      "type": "function"
    },
    {
      "inputs": [],
      "name": "MAX_QUANTITY",
      "outputs": [
        {
          "internalType": "uint8",
          "name": "",
          "type": "uint8"
        }
      ],
      "stateMutability": "view",
      "type": "function"
    },
    {
      "inputs": [],
      "name": "MAX_SUPPLY",
      "outputs": [
        {
          "internalType": "uint256",
          "name": "",
          "type": "uint256"
        }
      ],
      "stateMutability": "view",
      "type": "function"
    },
    {
      "inputs": [],
      "name": "PARTNER_SALE_PRICE",
      "outputs": [
        {
          "internalType": "uint256",
          "name": "",
          "type": "uint256"
        }
      ],
      "stateMutability": "view",
      "type": "function"
    },
    {
      "inputs": [
        {
          "internalType": "uint256",
          "name": "",
          "type": "uint256"
        }
      ],
      "name": "PRIVATE_SALE_PRICES",
      "outputs": [
        {
          "internalType": "uint256",
          "name": "",
          "type": "uint256"
        }
      ],
      "stateMutability": "view",
      "type": "function"
    },
    {
      "inputs": [],
      "name": "PRIVATE_SALE_START",
      "outputs": [
        {
          "internalType": "uint256",
          "name": "",
          "type": "uint256"
        }
      ],
      "stateMutability": "view",
      "type": "function"
    },
    {
      "inputs": [],
      "name": "PUBLIC_SALE_START",
      "outputs": [
        {
          "internalType": "uint256",
          "name": "",
          "type": "uint256"
        }
      ],
      "stateMutability": "view",
      "type": "function"
    },
    {
      "inputs": [],
      "name": "RESERVED",
      "outputs": [
        {
          "internalType": "uint256",
          "name": "",
          "type": "uint256"
        }
      ],
      "stateMutability": "view",
      "type": "function"
    },
    {
      "inputs": [],
      "name": "TREASURY",
      "outputs": [
        {
          "internalType": "address payable",
          "name": "",
          "type": "address"
        }
      ],
      "stateMutability": "view",
      "type": "function"
    },
    {
      "inputs": [],
      "name": "WALLET_LIMIT_PUBLIC",
      "outputs": [
        {
          "internalType": "uint8",
          "name": "",
          "type": "uint8"
        }
      ],
      "stateMutability": "view",
      "type": "function"
    },
    {
      "inputs": [
        {
          "internalType": "string",
          "name": "_notRevealedUri",
          "type": "string"
        },
        {
          "internalType": "address",
          "name": "_owner",
          "type": "address"
        },
        {
          "internalType": "address",
          "name": "_treasury",
          "type": "address"
        },
        {
          "internalType": "uint256",
          "name": "_privateSaleStart",
          "type": "uint256"
        },
        {
          "internalType": "uint256",
          "name": "_publicSaleStart",
          "type": "uint256"
        },
        {
          "internalType": "address",
          "name": "_vrfCoordinator",
          "type": "address"
        },
        {
          "internalType": "address",
          "name": "_link",
          "type": "address"
        },
        {
          "internalType": "bytes32",
          "name": "_keyHash",
          "type": "bytes32"
        },
        {
          "internalType": "uint256",
          "name": "_fee",
          "type": "uint256"
        },
        {
          "internalType": "address",
          "name": "_signerAddress",
          "type": "address"
        }
      ],
      "name": "__PropertyNFT_init",
      "outputs": [],
      "stateMutability": "nonpayable",
      "type": "function"
    },
    {
      "inputs": [
        {
          "internalType": "address",
          "name": "_vrfCoordinator",
          "type": "address"
        },
        {
          "internalType": "address",
          "name": "_link",
          "type": "address"
        }
      ],
      "name": "__VRFConsumableBase_init",
      "outputs": [],
      "stateMutability": "nonpayable",
      "type": "function"
    },
    {
      "inputs": [
        {
          "internalType": "address[]",
          "name": "addressList",
          "type": "address[]"
        }
      ],
      "name": "airdrop",
      "outputs": [],
      "stateMutability": "nonpayable",
      "type": "function"
    },
    {
      "inputs": [
        {
          "internalType": "address",
          "name": "to",
          "type": "address"
        },
        {
          "internalType": "uint256",
          "name": "tokenId",
          "type": "uint256"
        }
      ],
      "name": "approve",
      "outputs": [],
      "stateMutability": "nonpayable",
      "type": "function"
    },
    {
      "inputs": [
        {
          "internalType": "address",
          "name": "owner",
          "type": "address"
        }
      ],
      "name": "balanceOf",
      "outputs": [
        {
          "internalType": "uint256",
          "name": "",
          "type": "uint256"
        }
      ],
      "stateMutability": "view",
      "type": "function"
    },
    {
      "inputs": [],
      "name": "baseTokenURI",
      "outputs": [
        {
          "internalType": "string",
          "name": "",
          "type": "string"
        }
      ],
      "stateMutability": "view",
      "type": "function"
    },
    {
      "inputs": [
        {
          "internalType": "uint256",
          "name": "tokenId",
          "type": "uint256"
        }
      ],
      "name": "getApproved",
      "outputs": [
        {
          "internalType": "address",
          "name": "",
          "type": "address"
        }
      ],
      "stateMutability": "view",
      "type": "function"
    },
    {
      "inputs": [],
      "name": "getAvailable",
      "outputs": [
        {
          "internalType": "uint32[]",
          "name": "",
          "type": "uint32[]"
        }
      ],
      "stateMutability": "view",
      "type": "function"
    },
    {
      "inputs": [
        {
          "internalType": "uint256",
          "name": "tokenId",
          "type": "uint256"
        }
      ],
      "name": "getPostalCode",
      "outputs": [
        {
          "internalType": "bytes",
          "name": "",
          "type": "bytes"
        }
      ],
      "stateMutability": "view",
      "type": "function"
    },
    {
      "inputs": [
        {
          "internalType": "bytes32",
          "name": "role",
          "type": "bytes32"
        }
      ],
      "name": "getRoleAdmin",
      "outputs": [
        {
          "internalType": "bytes32",
          "name": "",
          "type": "bytes32"
        }
      ],
      "stateMutability": "view",
      "type": "function"
    },
    {
      "inputs": [
        {
          "internalType": "bytes32",
          "name": "role",
          "type": "bytes32"
        },
        {
          "internalType": "uint256",
          "name": "index",
          "type": "uint256"
        }
      ],
      "name": "getRoleMember",
      "outputs": [
        {
          "internalType": "address",
          "name": "",
          "type": "address"
        }
      ],
      "stateMutability": "view",
      "type": "function"
    },
    {
      "inputs": [
        {
          "internalType": "bytes32",
          "name": "role",
          "type": "bytes32"
        }
      ],
      "name": "getRoleMemberCount",
      "outputs": [
        {
          "internalType": "uint256",
          "name": "",
          "type": "uint256"
        }
      ],
      "stateMutability": "view",
      "type": "function"
    },
    {
      "inputs": [
        {
          "internalType": "uint8",
          "name": "tier",
          "type": "uint8"
        }
      ],
      "name": "getWhitelistPrice",
      "outputs": [
        {
          "internalType": "uint256",
          "name": "",
          "type": "uint256"
        }
      ],
      "stateMutability": "view",
      "type": "function"
    },
    {
      "inputs": [
        {
          "internalType": "bytes32",
          "name": "role",
          "type": "bytes32"
        },
        {
          "internalType": "address",
          "name": "account",
          "type": "address"
        }
      ],
      "name": "grantRole",
      "outputs": [],
      "stateMutability": "nonpayable",
      "type": "function"
    },
    {
      "inputs": [
        {
          "internalType": "bytes32",
          "name": "role",
          "type": "bytes32"
        },
        {
          "internalType": "address",
          "name": "account",
          "type": "address"
        }
      ],
      "name": "hasRole",
      "outputs": [
        {
          "internalType": "bool",
          "name": "",
          "type": "bool"
        }
      ],
      "stateMutability": "view",
      "type": "function"
    },
    {
      "inputs": [],
      "name": "initializeRandomness",
      "outputs": [
        {
          "internalType": "bytes32",
          "name": "requestId",
          "type": "bytes32"
        }
      ],
      "stateMutability": "nonpayable",
      "type": "function"
    },
    {
      "inputs": [
        {
          "internalType": "address",
          "name": "owner",
          "type": "address"
        },
        {
          "internalType": "address",
          "name": "operator",
          "type": "address"
        }
      ],
      "name": "isApprovedForAll",
      "outputs": [
        {
          "internalType": "bool",
          "name": "",
          "type": "bool"
        }
      ],
      "stateMutability": "view",
      "type": "function"
    },
    {
      "inputs": [],
      "name": "isPresaleOpen",
      "outputs": [
        {
          "internalType": "bool",
          "name": "",
          "type": "bool"
        }
      ],
      "stateMutability": "view",
      "type": "function"
    },
    {
      "inputs": [],
      "name": "isPublicSaleOpen",
      "outputs": [
        {
          "internalType": "bool",
          "name": "",
          "type": "bool"
        }
      ],
      "stateMutability": "view",
      "type": "function"
    },
    {
      "inputs": [],
      "name": "name",
      "outputs": [
        {
          "internalType": "string",
          "name": "",
          "type": "string"
        }
      ],
      "stateMutability": "view",
      "type": "function"
    },
    {
      "inputs": [],
      "name": "notRevealedURI",
      "outputs": [
        {
          "internalType": "string",
          "name": "",
          "type": "string"
        }
      ],
      "stateMutability": "view",
      "type": "function"
    },
    {
      "inputs": [],
      "name": "owner",
      "outputs": [
        {
          "internalType": "address",
          "name": "",
          "type": "address"
        }
      ],
      "stateMutability": "view",
      "type": "function"
    },
    {
      "inputs": [
        {
          "internalType": "uint256",
          "name": "tokenId",
          "type": "uint256"
        }
      ],
      "name": "ownerOf",
      "outputs": [
        {
          "internalType": "address",
          "name": "",
          "type": "address"
        }
      ],
      "stateMutability": "view",
      "type": "function"
    },
    {
      "inputs": [
        {
          "internalType": "bytes",
          "name": "postalCode",
          "type": "bytes"
        }
      ],
      "name": "parsePostalCode",
      "outputs": [
        {
          "internalType": "uint8[4]",
          "name": "",
          "type": "uint8[4]"
        }
      ],
      "stateMutability": "pure",
      "type": "function"
    },
    {
      "inputs": [
        {
          "internalType": "bytes",
          "name": "nonce",
          "type": "bytes"
        },
        {
          "internalType": "bytes",
          "name": "signature",
          "type": "bytes"
        }
      ],
      "name": "partnerMint",
      "outputs": [],
      "stateMutability": "payable",
      "type": "function"
    },
    {
      "inputs": [],
      "name": "pause",
      "outputs": [],
      "stateMutability": "nonpayable",
      "type": "function"
    },
    {
      "inputs": [],
      "name": "paused",
      "outputs": [
        {
          "internalType": "bool",
          "name": "",
          "type": "bool"
        }
      ],
      "stateMutability": "view",
      "type": "function"
    },
    {
      "inputs": [
        {
          "internalType": "uint8",
          "name": "_mintAmount",
          "type": "uint8"
        },
        {
          "internalType": "uint8",
          "name": "tier",
          "type": "uint8"
        },
        {
          "internalType": "bytes",
          "name": "nonce",
          "type": "bytes"
        },
        {
          "internalType": "bytes",
          "name": "signature",
          "type": "bytes"
        }
      ],
      "name": "presaleMint",
      "outputs": [],
      "stateMutability": "payable",
      "type": "function"
    },
    {
      "inputs": [
        {
          "internalType": "address",
          "name": "user",
          "type": "address"
        }
      ],
      "name": "privateSaleMintCount",
      "outputs": [
        {
          "internalType": "uint256",
          "name": "",
          "type": "uint256"
        }
      ],
      "stateMutability": "view",
      "type": "function"
    },
    {
      "inputs": [
        {
          "internalType": "uint8",
          "name": "_mintAmount",
          "type": "uint8"
        }
      ],
      "name": "publicMint",
      "outputs": [],
      "stateMutability": "payable",
      "type": "function"
    },
    {
      "inputs": [
        {
          "internalType": "uint32[]",
          "name": "_available",
          "type": "uint32[]"
        }
      ],
      "name": "pushAvailable",
      "outputs": [],
      "stateMutability": "nonpayable",
      "type": "function"
    },
    {
      "inputs": [
        {
          "internalType": "bytes32",
          "name": "requestId",
          "type": "bytes32"
        },
        {
          "internalType": "uint256",
          "name": "randomness",
          "type": "uint256"
        }
      ],
      "name": "rawFulfillRandomness",
      "outputs": [],
      "stateMutability": "nonpayable",
      "type": "function"
    },
    {
      "inputs": [],
      "name": "renounceOwnership",
      "outputs": [],
      "stateMutability": "nonpayable",
      "type": "function"
    },
    {
      "inputs": [
        {
          "internalType": "bytes32",
          "name": "role",
          "type": "bytes32"
        },
        {
          "internalType": "address",
          "name": "account",
          "type": "address"
        }
      ],
      "name": "renounceRole",
      "outputs": [],
      "stateMutability": "nonpayable",
      "type": "function"
    },
    {
      "inputs": [],
      "name": "revealed",
      "outputs": [
        {
          "internalType": "bool",
          "name": "",
          "type": "bool"
        }
      ],
      "stateMutability": "view",
      "type": "function"
    },
    {
      "inputs": [
        {
          "internalType": "bytes32",
          "name": "role",
          "type": "bytes32"
        },
        {
          "internalType": "address",
          "name": "account",
          "type": "address"
        }
      ],
      "name": "revokeRole",
      "outputs": [],
      "stateMutability": "nonpayable",
      "type": "function"
    },
    {
      "inputs": [
        {
          "internalType": "address",
          "name": "from",
          "type": "address"
        },
        {
          "internalType": "address",
          "name": "to",
          "type": "address"
        },
        {
          "internalType": "uint256",
          "name": "tokenId",
          "type": "uint256"
        }
      ],
      "name": "safeTransferFrom",
      "outputs": [],
      "stateMutability": "nonpayable",
      "type": "function"
    },
    {
      "inputs": [
        {
          "internalType": "address",
          "name": "from",
          "type": "address"
        },
        {
          "internalType": "address",
          "name": "to",
          "type": "address"
        },
        {
          "internalType": "uint256",
          "name": "tokenId",
          "type": "uint256"
        },
        {
          "internalType": "bytes",
          "name": "_data",
          "type": "bytes"
        }
      ],
      "name": "safeTransferFrom",
      "outputs": [],
      "stateMutability": "nonpayable",
      "type": "function"
    },
    {
      "inputs": [
        {
          "internalType": "address",
          "name": "operator",
          "type": "address"
        },
        {
          "internalType": "bool",
          "name": "approved",
          "type": "bool"
        }
      ],
      "name": "setApprovalForAll",
      "outputs": [],
      "stateMutability": "nonpayable",
      "type": "function"
    },
    {
      "inputs": [
        {
          "internalType": "address",
          "name": "postalCodeProviderAddress",
          "type": "address"
        }
      ],
      "name": "setPostalCodeProvider",
      "outputs": [],
      "stateMutability": "nonpayable",
      "type": "function"
    },
    {
      "inputs": [
        {
          "internalType": "bytes4",
          "name": "interfaceId",
          "type": "bytes4"
        }
      ],
      "name": "supportsInterface",
      "outputs": [
        {
          "internalType": "bool",
          "name": "",
          "type": "bool"
        }
      ],
      "stateMutability": "view",
      "type": "function"
    },
    {
      "inputs": [],
      "name": "symbol",
      "outputs": [
        {
          "internalType": "string",
          "name": "",
          "type": "string"
        }
      ],
      "stateMutability": "view",
      "type": "function"
    },
    {
      "inputs": [
        {
          "internalType": "uint256",
          "name": "index",
          "type": "uint256"
        }
      ],
      "name": "tokenByIndex",
      "outputs": [
        {
          "internalType": "uint256",
          "name": "",
          "type": "uint256"
        }
      ],
      "stateMutability": "view",
      "type": "function"
    },
    {
      "inputs": [
        {
          "internalType": "address",
          "name": "owner",
          "type": "address"
        },
        {
          "internalType": "uint256",
          "name": "index",
          "type": "uint256"
        }
      ],
      "name": "tokenOfOwnerByIndex",
      "outputs": [
        {
          "internalType": "uint256",
          "name": "",
          "type": "uint256"
        }
      ],
      "stateMutability": "view",
      "type": "function"
    },
    {
      "inputs": [
        {
          "internalType": "uint256",
          "name": "tokenId",
          "type": "uint256"
        }
      ],
      "name": "tokenURI",
      "outputs": [
        {
          "internalType": "string",
          "name": "",
          "type": "string"
        }
      ],
      "stateMutability": "view",
      "type": "function"
    },
    {
      "inputs": [],
      "name": "totalSupply",
      "outputs": [
        {
          "internalType": "uint256",
          "name": "",
          "type": "uint256"
        }
      ],
      "stateMutability": "view",
      "type": "function"
    },
    {
      "inputs": [
        {
          "internalType": "address",
          "name": "from",
          "type": "address"
        },
        {
          "internalType": "address",
          "name": "to",
          "type": "address"
        },
        {
          "internalType": "uint256",
          "name": "tokenId",
          "type": "uint256"
        }
      ],
      "name": "transferFrom",
      "outputs": [],
      "stateMutability": "nonpayable",
      "type": "function"
    },
    {
      "inputs": [
        {
          "internalType": "address",
          "name": "newOwner",
          "type": "address"
        }
      ],
      "name": "transferOwnership",
      "outputs": [],
      "stateMutability": "nonpayable",
      "type": "function"
    },
    {
      "inputs": [],
      "name": "unpause",
      "outputs": [],
      "stateMutability": "nonpayable",
      "type": "function"
    },
    {
      "inputs": [
        {
          "internalType": "string",
          "name": "_newBaseURI",
          "type": "string"
        }
      ],
      "name": "updateBaseURI",
      "outputs": [],
      "stateMutability": "nonpayable",
      "type": "function"
    },
    {
      "inputs": [
        {
          "internalType": "uint256",
          "name": "_startTime",
          "type": "uint256"
        }
      ],
      "name": "updatePresaleStart",
      "outputs": [],
      "stateMutability": "nonpayable",
      "type": "function"
    },
    {
      "inputs": [
        {
          "internalType": "uint256",
          "name": "_startTime",
          "type": "uint256"
        }
      ],
      "name": "updatePublicSaleStart",
      "outputs": [],
      "stateMutability": "nonpayable",
      "type": "function"
    },
    {
      "inputs": [
        {
          "internalType": "address",
          "name": "_owner",
          "type": "address"
        }
      ],
      "name": "walletOfOwner",
      "outputs": [
        {
          "internalType": "uint256[]",
          "name": "",
          "type": "uint256[]"
        }
      ],
      "stateMutability": "view",
      "type": "function"
    },
    {
      "inputs": [
        {
          "internalType": "address",
          "name": "_owner",
          "type": "address"
        }
      ],
      "name": "walletOfOwnerShuffled",
      "outputs": [
        {
          "internalType": "uint32[]",
          "name": "",
          "type": "uint32[]"
        }
      ],
      "stateMutability": "view",
      "type": "function"
    },
    {
      "inputs": [
        {
          "internalType": "address",
          "name": "",
          "type": "address"
        }
      ],
      "name": "whitelistedPartners",
      "outputs": [
        {
          "internalType": "bool",
          "name": "",
          "type": "bool"
        }
      ],
      "stateMutability": "view",
      "type": "function"
    },
    {
      "inputs": [],
      "name": "withdrawToTreasury",
      "outputs": [],
      "stateMutability": "nonpayable",
      "type": "function"
    }
  ],
  "transactionHash": "0x313635bfdd2cea4e3cf41d1fe0709bc3cc88dc620353a42dd9cc6e5fc18ab578",
  "args": [],
  "solcInputHash": "7e4b6383ecfaa5291dc6ee5b3d8b4437",
  "bytecode": "0x608060405234801561001057600080fd5b50615370806100206000396000f3fe6080604052600436106103e45760003560e01c80637620de2f11610208578063a22cb46511610118578063d547cfb7116100ab578063eb4f847b1161007a578063eb4f847b14610b8b578063ed1088a414610ba0578063f1269acf14610bc0578063f2fde38b14610bed578063f9cc060514610c0d57600080fd5b8063d547cfb714610af7578063e41ee46a14610b0c578063e821f77214610b21578063e985e9c514610b4157600080fd5b8063c87b56dd116100e7578063c87b56dd14610a82578063ca15c87314610aa2578063d2e2a4ff14610ac2578063d547741f14610ad757600080fd5b8063a22cb46514610a11578063a4a482cb14610a31578063aa592f2514610a4d578063b88d4fde14610a6257600080fd5b80639010d07c1161019b57806394985ddd1161016a57806394985ddd1461098957806395d89b41146109a95780639616a05f146109be5780639b11503e146109e5578063a217fddf146109fc57600080fd5b80639010d07c1461090957806391d1485414610929578063931688cb1461094957806393ce660d1461096957600080fd5b8063858e83b5116101d7578063858e83b5146108985780638967112c146108ab5780638da5cb5b146108cb5780638db2333a146108e957600080fd5b80637620de2f1461081d5780637e80c186146108345780638456cb5914610849578063857b3f031461085e57600080fd5b80632f745c5911610303578063472e7eb4116102965780636352211e116102655780636352211e1461079357806370a08231146107b3578063715018a6146107d357806372250380146107e8578063729ad39e146107fd57600080fd5b8063472e7eb4146107135780634f6ccce71461074057806351830227146107605780635c975abb1461077b57600080fd5b80633f4ba83a116102d25780633f4ba83a14610680578063419c2d731461069557806342842e0e146106c6578063438b6300146106e657600080fd5b80632f745c591461060a57806332cb6b0c1461062a57806336568abe146106405780633a74f0321461066057600080fd5b806318160ddd1161037b578063248a9ca31161034a578063248a9ca31461057957806326e8a929146105a95780632d2c5565146105c95780632f2ff15d146105ea57600080fd5b806318160ddd146105175780631a6949e31461052d578063233a51671461054657806323b872dd1461055957600080fd5b8063081812fc116103b7578063081812fc1461048c578063095ea7b3146104c45780630d10702c146104e4578063177819501461050457600080fd5b80630149d825146103e957806301ffc9a71461040b5780630214aef01461044057806306fdde031461046a575b600080fd5b3480156103f557600080fd5b50610409610404366004614706565b610c22565b005b34801561041757600080fd5b5061042b6104263660046147d4565b610dd8565b60405190151581526020015b60405180910390f35b34801561044c57600080fd5b5061045c67011c37937e08000081565b604051908152602001610437565b34801561047657600080fd5b5061047f610e1e565b6040516104379190614849565b34801561049857600080fd5b506104ac6104a736600461485c565b610eb1565b6040516001600160a01b039091168152602001610437565b3480156104d057600080fd5b506104096104df366004614875565b610f48565b3480156104f057600080fd5b5061047f6104ff36600461485c565b61105e565b61040961051236600461489f565b611112565b34801561052357600080fd5b506101615461045c565b34801561053957600080fd5b506101c95442101561042b565b610409610554366004614913565b6113b8565b34801561056557600080fd5b50610409610574366004614997565b611794565b34801561058557600080fd5b5061045c61059436600461485c565b60009081526065602052604090206001015490565b3480156105b557600080fd5b506104096105c43660046149f6565b6117c5565b3480156105d557600080fd5b506101ca546104ac906001600160a01b031681565b3480156105f657600080fd5b50610409610605366004614a9e565b61184b565b34801561061657600080fd5b5061045c610625366004614875565b61186d565b34801561063657600080fd5b5061045c61177081565b34801561064c57600080fd5b5061040961065b366004614a9e565b611904565b34801561066c57600080fd5b5061045c61067b366004614aca565b611926565b34801561068c57600080fd5b5061040961195b565b3480156106a157600080fd5b5061042b6106b0366004614ae5565b6101c76020526000908152604090205460ff1681565b3480156106d257600080fd5b506104096106e1366004614997565b611972565b3480156106f257600080fd5b50610706610701366004614ae5565b61198d565b6040516104379190614b00565b34801561071f57600080fd5b5061073361072e366004614b44565b611a2e565b6040516104379190614b78565b34801561074c57600080fd5b5061045c61075b36600461485c565b611ad0565b34801561076c57600080fd5b506101cd5461042b9060ff1681565b34801561078757600080fd5b5060c95460ff1661042b565b34801561079f57600080fd5b506104ac6107ae36600461485c565b611b53565b3480156107bf57600080fd5b5061045c6107ce366004614ae5565b611bcb565b3480156107df57600080fd5b50610409611c53565b3480156107f457600080fd5b5061047f611cb9565b34801561080957600080fd5b50610409610818366004614bac565b611d48565b34801561082957600080fd5b5061045c6101c85481565b34801561084057600080fd5b50610409611d94565b34801561085557600080fd5b50610409611e05565b34801561086a57600080fd5b5061045c610879366004614ae5565b6001600160a01b031660009081526101d1602052604090205460ff1690565b6104096108a6366004614aca565b611e19565b3480156108b757600080fd5b506104096108c636600461485c565b612112565b3480156108d757600080fd5b5060fb546001600160a01b03166104ac565b3480156108f557600080fd5b50610409610904366004614ae5565b612125565b34801561091557600080fd5b506104ac610924366004614c38565b612155565b34801561093557600080fd5b5061042b610944366004614a9e565b612174565b34801561095557600080fd5b50610409610964366004614b44565b61219f565b34801561097557600080fd5b5061040961098436600461485c565b6121c7565b34801561099557600080fd5b506104096109a4366004614c38565b6121da565b3480156109b557600080fd5b5061047f61223c565b3480156109ca57600080fd5b506109d3601081565b60405160ff9091168152602001610437565b3480156109f157600080fd5b5061045c6101c95481565b348015610a0857600080fd5b5061045c600081565b348015610a1d57600080fd5b50610409610a2c366004614c68565b61224c565b348015610a3d57600080fd5b5061045c67013fbe85edc9000081565b348015610a5957600080fd5b5061045c60c881565b348015610a6e57600080fd5b50610409610a7d366004614c9f565b612312565b348015610a8e57600080fd5b5061047f610a9d36600461485c565b61234a565b348015610aae57600080fd5b5061045c610abd36600461485c565b61254b565b348015610ace57600080fd5b5061045c612562565b348015610ae357600080fd5b50610409610af2366004614a9e565b612668565b348015610b0357600080fd5b5061047f612672565b348015610b1857600080fd5b506109d3600881565b348015610b2d57600080fd5b50610409610b3c366004614cfa565b612680565b348015610b4d57600080fd5b5061042b610b5c366004614cfa565b6001600160a01b0391821660009081526101326020908152604080832093909416825291909152205460ff1690565b348015610b9757600080fd5b5061042b6126b0565b348015610bac57600080fd5b5061045c610bbb36600461485c565b6126cc565b348015610bcc57600080fd5b50610be0610bdb366004614ae5565b6126ee565b6040516104379190614d24565b348015610bf957600080fd5b50610409610c08366004614ae5565b612821565b348015610c1957600080fd5b50610be06128e9565b600054610100900460ff1680610c3b575060005460ff16155b610c605760405162461bcd60e51b8152600401610c5790614d62565b60405180910390fd5b600054610100900460ff16158015610c82576000805461ffff19166101011790555b610c8a61297b565b610c92612a06565b610c9a612a6d565b610ce16040518060400160405280600b81526020016a141c9bdc195c9d1e53919560aa1b81525060405180604001604052806002815260200161050560f41b815250612ad4565b610ce9612b6b565b610cf38686612680565b610cfe600033612bc9565b610d0960008a61184b565b8a51610d1d906101cc9060208e019061453c565b506101ca80546001600160a01b0319166001600160a01b038b161790556101c88890556101c98790556040805160608101825267011c37937e0800008152670101925daa374000602082015266e6ed27d666800091810191909152610d87906101c69060036145bc565b506101ce8490556101cf8390556101d380546001600160a01b0319166001600160a01b038416179055610db98a612821565b8015610dcb576000805461ff00191690555b5050505050505050505050565b60006001600160e01b03198216635a05180f60e01b1480610e0957506001600160e01b0319821663780e9d6360e01b145b80610e185750610e1882612bd3565b92915050565b606061012d8054610e2e90614db0565b80601f0160208091040260200160405190810160405280929190818152602001828054610e5a90614db0565b8015610ea75780601f10610e7c57610100808354040283529160200191610ea7565b820191906000526020600020905b815481529060010190602001808311610e8a57829003601f168201915b5050505050905090565b600081815261012f60205260408120546001600160a01b0316610f2b5760405162461bcd60e51b815260206004820152602c60248201527f4552433732313a20617070726f76656420717565727920666f72206e6f6e657860448201526b34b9ba32b73a103a37b5b2b760a11b6064820152608401610c57565b50600090815261013160205260409020546001600160a01b031690565b6000610f5382611b53565b9050806001600160a01b0316836001600160a01b03161415610fc15760405162461bcd60e51b815260206004820152602160248201527f4552433732313a20617070726f76616c20746f2063757272656e74206f776e656044820152603960f91b6064820152608401610c57565b336001600160a01b0382161480610fdd5750610fdd8133610b5c565b61104f5760405162461bcd60e51b815260206004820152603860248201527f4552433732313a20617070726f76652063616c6c6572206973206e6f74206f7760448201527f6e6572206e6f7220617070726f76656420666f7220616c6c00000000000000006064820152608401610c57565b6110598383612bf8565b505050565b6101d7546040516314ff5ea360e01b8152600481018390526060916000916001600160a01b03909116906314ff5ea39060240160206040518083038186803b1580156110a957600080fd5b505afa1580156110bd573d6000803e3d6000fd5b505050506040513d601f19601f820116820180604052508101906110e19190614deb565b6040805160e09290921b6001600160e01b031916602083015280516004818403018152602490920190529392505050565b3332146111315760405162461bcd60e51b8152600401610c5790614e04565b60c95460ff16156111545760405162461bcd60e51b8152600401610c5790614e33565b61115c6126b0565b6111785760405162461bcd60e51b8152600401610c5790614e5d565b6101d2826040516111899190614ea0565b9081526040519081900360200190205460ff16156111e95760405162461bcd60e51b815260206004820152601b60248201527f50726f70657274794e46543a204e6f6e636520776173207573656400000000006044820152606401610c57565b6101d354611208903390849084906001600160a01b0316600080612c67565b6112545760405162461bcd60e51b815260206004820152601e60248201527f50726f70657274794e46543a20496e76616c6964207369676e617475726500006044820152606401610c57565b3360009081526101c7602052604090205460ff16156112c35760405162461bcd60e51b815260206004820152602560248201527f50726f70657274794e46543a20596f75206861766520616c7265616479206d696044820152646e7465642160d81b6064820152608401610c57565b67011c37937e08000034146112ea5760405162461bcd60e51b8152600401610c5790614ebc565b6117706112f76101615490565b611302906001614f09565b11156113205760405162461bcd60e51b8152600401610c5790614f21565b6101ca546040516000916001600160a01b03169034908381818185875af1925050503d806000811461136e576040519150601f19603f3d011682016040523d82523d6000602084013e611373565b606091505b50509050806113945760405162461bcd60e51b8152600401610c5790614f65565b3360008181526101c760205260409020805460ff1916600117905561105990612cc6565b3332146113d75760405162461bcd60e51b8152600401610c5790614e04565b60c95460ff16156113fa5760405162461bcd60e51b8152600401610c5790614e33565b6114026126b0565b61141e5760405162461bcd60e51b8152600401610c5790614e5d565b6101d28260405161142f9190614ea0565b9081526040519081900360200190205460ff161561148f5760405162461bcd60e51b815260206004820152601b60248201527f50726f70657274794e46543a204e6f6e636520776173207573656400000000006044820152606401610c57565b6101d3546114b3903390849084906001600160a01b031660ff808a16908916612c67565b6114ff5760405162461bcd60e51b815260206004820152601e60248201527f50726f70657274794e46543a20496e76616c6964207369676e617475726500006044820152606401610c57565b60008360ff16116115525760405162461bcd60e51b815260206004820181905260248201527f50726f70657274794e46543a2057686974656c6973742054696572203c20312e6044820152606401610c57565b60038360ff1611156115a65760405162461bcd60e51b815260206004820181905260248201527f50726f70657274794e46543a2057686974656c6973742054696572203e20332e6044820152606401610c57565b3360009081526101d1602052604090205460ff808516916115c991879116614fb8565b60ff1611156116265760405162461bcd60e51b8152602060048201526024808201527f50726f70657274794e46543a2050726573616c65204c696d69742045786365656044820152636465642160e01b6064820152608401610c57565b60ff84166101c6611638600186614fdd565b60ff168154811061164b5761164b615000565b90600052602060002001546116609190615016565b341461167e5760405162461bcd60e51b8152600401610c5790614ebc565b6117708460ff1661168f6101615490565b6116999190614f09565b11156116b75760405162461bcd60e51b8152600401610c5790614f21565b6101ca546040516000916001600160a01b03169034908381818185875af1925050503d8060008114611705576040519150601f19603f3d011682016040523d82523d6000602084013e61170a565b606091505b505090508061172b5760405162461bcd60e51b8152600401610c5790614f65565b60005b8560ff1681101561178c573360009081526101d160205260408120805460ff169161175883615035565b91906101000a81548160ff021916908360ff1602179055505061177a33612cc6565b8061178481615055565b91505061172e565b505050505050565b61179e3382612dab565b6117ba5760405162461bcd60e51b8152600401610c5790615070565b611059838383612ea0565b60006117d1813361304e565b60005b8251811015611059576101d48382815181106117f2576117f2615000565b60209081029190910181015182546001810184556000938452919092206008820401805460079092166004026101000a63ffffffff8181021990931692909316929092021790558061184381615055565b9150506117d4565b61185582826130b2565b600082815260976020526040902061105990826130d8565b600061187883611bcb565b82106118da5760405162461bcd60e51b815260206004820152602b60248201527f455243373231456e756d657261626c653a206f776e657220696e646578206f7560448201526a74206f6620626f756e647360a81b6064820152608401610c57565b506001600160a01b0391909116600090815261015f60209081526040808320938352929052205490565b61190e82826130ed565b60008281526097602052604090206110599082613167565b60006101c6611936600184614fdd565b60ff168154811061194957611949615000565b90600052602060002001549050919050565b6000611967813361304e565b61196f61317c565b50565b61105983838360405180602001604052806000815250612312565b6060600061199a83611bcb565b90506000816001600160401b038111156119b6576119b6614635565b6040519080825280602002602001820160405280156119df578160200160208202803683370190505b50905060005b82811015611a26576119f7858261186d565b828281518110611a0957611a09615000565b602090810291909101015280611a1e81615055565b9150506119e5565b509392505050565b611a36614602565b604051806080016040528083600081518110611a5457611a54615000565b0160209081015160f81c8252845191019084906001908110611a7857611a78615000565b0160209081015160f81c8252845191019084906002908110611a9c57611a9c615000565b0160209081015160f81c8252845191019084906003908110611ac057611ac0615000565b016020015160f81c905292915050565b6000611adc6101615490565b8210611b3f5760405162461bcd60e51b815260206004820152602c60248201527f455243373231456e756d657261626c653a20676c6f62616c20696e646578206f60448201526b7574206f6620626f756e647360a01b6064820152608401610c57565b610161828154811061194957611949615000565b600081815261012f60205260408120546001600160a01b031680610e185760405162461bcd60e51b815260206004820152602960248201527f4552433732313a206f776e657220717565727920666f72206e6f6e657869737460448201526832b73a103a37b5b2b760b91b6064820152608401610c57565b60006001600160a01b038216611c365760405162461bcd60e51b815260206004820152602a60248201527f4552433732313a2062616c616e636520717565727920666f7220746865207a65604482015269726f206164647265737360b01b6064820152608401610c57565b506001600160a01b03166000908152610130602052604090205490565b60fb546001600160a01b03163314611cad5760405162461bcd60e51b815260206004820181905260248201527f4f776e61626c653a2063616c6c6572206973206e6f7420746865206f776e65726044820152606401610c57565b611cb7600061320f565b565b6101cc8054611cc790614db0565b80601f0160208091040260200160405190810160405280929190818152602001828054611cf390614db0565b8015611d405780601f10611d1557610100808354040283529160200191611d40565b820191906000526020600020905b815481529060010190602001808311611d2357829003601f168201915b505050505081565b6000611d54813361304e565b60005b825181101561105957611d82838281518110611d7557611d75615000565b6020026020010151612cc6565b80611d8c81615055565b915050611d57565b6000611da0813361304e565b6101ca546040516000916001600160a01b03169047908381818185875af1925050503d8060008114611dee576040519150601f19603f3d011682016040523d82523d6000602084013e611df3565b606091505b5050905080611e0157600080fd5b5050565b6000611e11813361304e565b61196f613261565b333214611e385760405162461bcd60e51b8152600401610c5790614e04565b60c95460ff1615611e5b5760405162461bcd60e51b8152600401610c5790614e33565b6101c954421015611ec05760405162461bcd60e51b815260206004820152602960248201527f50726f70657274794e46543a205075626c69632073616c6520686173206e6f7460448201526820737461727465642160b81b6064820152608401610c57565b3360009081526101d06020526040902054601090611ee290839060ff16614fb8565b60ff161115611f4a5760405162461bcd60e51b815260206004820152602e60248201527f50726f70657274794e46543a204d6178696d756d20616d6f756e74206f66206d60448201526d696e74732065786365656465642160901b6064820152608401610c57565b600860ff82161115611fc45760405162461bcd60e51b815260206004820152603a60248201527f50726f70657274794e46543a204d6178696d756d206d696e7420616d6f756e7460448201527f20706572207472616e73616374696f6e206578636565646564210000000000006064820152608401610c57565b611fd160c86117706150c1565b8160ff16611fdf6101615490565b611fe99190614f09565b11156120075760405162461bcd60e51b8152600401610c5790614f21565b61201c60ff821667013fbe85edc90000615016565b341461203a5760405162461bcd60e51b8152600401610c5790614ebc565b6101ca546040516000916001600160a01b03169034908381818185875af1925050503d8060008114612088576040519150601f19603f3d011682016040523d82523d6000602084013e61208d565b606091505b50509050806120ae5760405162461bcd60e51b8152600401610c5790614f65565b3360009081526101d06020526040812080548492906120d190849060ff16614fb8565b92506101000a81548160ff021916908360ff16021790555060005b8260ff168110156110595761210033612cc6565b8061210a81615055565b9150506120ec565b600061211e813361304e565b506101c855565b6000612131813361304e565b506101d780546001600160a01b0319166001600160a01b0392909216919091179055565b600082815260976020526040812061216d90836132b9565b9392505050565b60009182526065602090815260408084206001600160a01b0393909316845291905290205460ff1690565b60006121ab813361304e565b6121be6101cd805460ff19166001179055565b611e01826132c5565b60006121d3813361304e565b506101c955565b610192546001600160a01b031633146122355760405162461bcd60e51b815260206004820152601f60248201527f4f6e6c7920565246436f6f7264696e61746f722063616e2066756c66696c6c006044820152606401610c57565b6101d65550565b606061012e8054610e2e90614db0565b6001600160a01b0382163314156122a55760405162461bcd60e51b815260206004820152601960248201527f4552433732313a20617070726f766520746f2063616c6c6572000000000000006044820152606401610c57565b336000818152610132602090815260408083206001600160a01b03871680855290835292819020805460ff191686151590811790915590519081529192917f17307eab39ab6107e8899845ad3d59bd9653f200f220920489ca2b5937696c31910160405180910390a35050565b61231c3383612dab565b6123385760405162461bcd60e51b8152600401610c5790615070565b612344848484846132d9565b50505050565b600081815261012f60205260409020546060906001600160a01b03166123ca5760405162461bcd60e51b815260206004820152602f60248201527f4552433732314d657461646174613a2055524920717565727920666f72206e6f60448201526e3732bc34b9ba32b73a103a37b5b2b760891b6064820152608401610c57565b60006123d461330c565b6101d7546040516314ff5ea360e01b8152600481018690529192506000916001600160a01b03909116906314ff5ea39060240160206040518083038186803b15801561241f57600080fd5b505afa158015612433573d6000803e3d6000fd5b505050506040513d601f19601f820116820180604052508101906124579190614deb565b6101cd5490915060ff166124fa576101cc805461247390614db0565b80601f016020809104026020016040519081016040528092919081815260200182805461249f90614db0565b80156124ec5780601f106124c1576101008083540402835291602001916124ec565b820191906000526020600020905b8154815290600101906020018083116124cf57829003601f168201915b505050505092505050919050565b60008251116125185760405180602001604052806000815250612543565b816125228261331c565b6040516020016125339291906150d8565b6040516020818303038152906040525b949350505050565b6000818152609760205260408120610e1890613419565b60008061256f813361304e565b6101cf54610191546040516370a0823160e01b81523060048201526001600160a01b03909116906370a082319060240160206040518083038186803b1580156125b757600080fd5b505afa1580156125cb573d6000803e3d6000fd5b505050506040513d601f19601f820116820180604052508101906125ef9190614deb565b10156126515760405162461bcd60e51b815260206004820152602b60248201527f4e6f7420656e6f756768204c494e4b202d2066696c6c20636f6e74726163742060448201526a1dda5d1a0819985d58d95d60aa1b6064820152608401610c57565b6126616101ce546101cf54613423565b91505b5090565b61190e8282613571565b6101cb8054611cc790614db0565b61019280546001600160a01b039384166001600160a01b0319918216179091556101918054929093169116179055565b60006101c85442101580156126c757506101c95442105b905090565b6101c681815481106126dd57600080fd5b600091825260209091200154905081565b606060006126fb83611bcb565b90506000816001600160401b0381111561271757612717614635565b604051908082528060200260200182016040528015612740578160200160208202803683370190505b50905060005b82811015611a2657600061275a868361186d565b6101d7546040516314ff5ea360e01b8152600481018390529192506000916001600160a01b03909116906314ff5ea39060240160206040518083038186803b1580156127a557600080fd5b505afa1580156127b9573d6000803e3d6000fd5b505050506040513d601f19601f820116820180604052508101906127dd9190614deb565b9050808484815181106127f2576127f2615000565b602002602001019063ffffffff16908163ffffffff16815250505050808061281990615055565b915050612746565b60fb546001600160a01b0316331461287b5760405162461bcd60e51b815260206004820181905260248201527f4f776e61626c653a2063616c6c6572206973206e6f7420746865206f776e65726044820152606401610c57565b6001600160a01b0381166128e05760405162461bcd60e51b815260206004820152602660248201527f4f776e61626c653a206e6577206f776e657220697320746865207a65726f206160448201526564647265737360d01b6064820152608401610c57565b61196f8161320f565b606060006128f7813361304e565b6101d480548060200260200160405190810160405280929190818152602001828054801561297057602002820191906000526020600020906000905b82829054906101000a900463ffffffff1663ffffffff16815260200190600401906020826003010492830192600103820291508084116129335790505b505050505091505090565b600054610100900460ff1680612994575060005460ff16155b6129b05760405162461bcd60e51b8152600401610c5790614d62565b600054610100900460ff161580156129d2576000805461ffff19166101011790555b6129da613597565b6129e2613597565b6129ea613597565b6129f2613597565b801561196f576000805461ff001916905550565b600054610100900460ff1680612a1f575060005460ff16155b612a3b5760405162461bcd60e51b8152600401610c5790614d62565b600054610100900460ff16158015612a5d576000805461ffff19166101011790555b612a65613597565b6129f2613601565b600054610100900460ff1680612a86575060005460ff16155b612aa25760405162461bcd60e51b8152600401610c5790614d62565b600054610100900460ff16158015612ac4576000805461ffff19166101011790555b612acc613597565b6129f2613661565b600054610100900460ff1680612aed575060005460ff16155b612b095760405162461bcd60e51b8152600401610c5790614d62565b600054610100900460ff16158015612b2b576000805461ffff19166101011790555b8251612b3f9061012d90602086019061453c565b508151612b549061012e90602085019061453c565b508015611059576000805461ff0019169055505050565b600054610100900460ff1680612b84575060005460ff16155b612ba05760405162461bcd60e51b8152600401610c5790614d62565b600054610100900460ff161580156129da576000805461ffff19166101011790556129e2613597565b61185582826136d6565b60006001600160e01b0319821663780e9d6360e01b1480610e185750610e18826136e0565b60008181526101316020526040902080546001600160a01b0319166001600160a01b0384169081179091558190612c2e82611b53565b6001600160a01b03167f8c5be1e5ebec7d5bd14f71427d1e84f3dd0314c0f7b2291e5b200ac8c7c3b92560405160405180910390a45050565b60008087878585604051602001612c819493929190615107565b60408051601f1981840301815291905280516020909101209050612ca58187613720565b6001600160a01b0316856001600160a01b0316149150509695505050505050565b6101d454612d275760405162461bcd60e51b815260206004820152602860248201527f50726f70657274794e46543a204e6f206d6f726520617661696c61626c652050604482015267726f70657274797360c01b6064820152608401610c57565b6000612d346101d561373c565b6101d48054919250600091612d499084615161565b81548110612d5957612d59615000565b90600052602060002090600891828204019190066004029054906101000a900463ffffffff1663ffffffff169050612da16101d48054905083612d9c9190615161565b6137e4565b61105983826138c4565b600081815261012f60205260408120546001600160a01b0316612e255760405162461bcd60e51b815260206004820152602c60248201527f4552433732313a206f70657261746f7220717565727920666f72206e6f6e657860448201526b34b9ba32b73a103a37b5b2b760a11b6064820152608401610c57565b6000612e3083611b53565b9050806001600160a01b0316846001600160a01b03161480612e6b5750836001600160a01b0316612e6084610eb1565b6001600160a01b0316145b8061254357506001600160a01b038082166000908152610132602090815260408083209388168352929052205460ff16612543565b826001600160a01b0316612eb382611b53565b6001600160a01b031614612f1b5760405162461bcd60e51b815260206004820152602960248201527f4552433732313a207472616e73666572206f6620746f6b656e2074686174206960448201526839903737ba1037bbb760b91b6064820152608401610c57565b6001600160a01b038216612f7d5760405162461bcd60e51b8152602060048201526024808201527f4552433732313a207472616e7366657220746f20746865207a65726f206164646044820152637265737360e01b6064820152608401610c57565b612f88838383613a15565b612f93600082612bf8565b6001600160a01b038316600090815261013060205260408120805460019290612fbd9084906150c1565b90915550506001600160a01b038216600090815261013060205260408120805460019290612fec908490614f09565b9091555050600081815261012f602052604080822080546001600160a01b0319166001600160a01b0386811691821790925591518493918716917fddf252ad1be2c89b69c2b068fc378daa952ba7f163c4a11628f55a4df523b3ef91a4505050565b6130588282612174565b611e0157613070816001600160a01b03166014613a43565b61307b836020613a43565b60405160200161308c929190615175565b60408051601f198184030181529082905262461bcd60e51b8252610c5791600401614849565b6000828152606560205260409020600101546130ce813361304e565b6110598383613bde565b600061216d836001600160a01b038416613c64565b6001600160a01b038116331461315d5760405162461bcd60e51b815260206004820152602f60248201527f416363657373436f6e74726f6c3a2063616e206f6e6c792072656e6f756e636560448201526e103937b632b9903337b91039b2b63360891b6064820152608401610c57565b611e018282613cb3565b600061216d836001600160a01b038416613d1a565b60c95460ff166131c55760405162461bcd60e51b815260206004820152601460248201527314185d5cd8589b194e881b9bdd081c185d5cd95960621b6044820152606401610c57565b60c9805460ff191690557f5db9ee0a495bf2e6ff9c91a7834c1ba4fdd244a5e8aa4e537bd38aeae4b073aa335b6040516001600160a01b03909116815260200160405180910390a1565b60fb80546001600160a01b038381166001600160a01b0319831681179093556040519116919082907f8be0079c531659141344cd1fd0a4f28419497f9722a3daafe3b4186f6b6457e090600090a35050565b60c95460ff16156132845760405162461bcd60e51b8152600401610c5790614e33565b60c9805460ff191660011790557f62e78cea01bee320cd4e420270b5ea74000d11b0c9f74754ebdbfc544b05a2586131f23390565b600061216d8383613e0d565b8051611e01906101cb90602084019061453c565b6132e4848484612ea0565b6132f084848484613e37565b6123445760405162461bcd60e51b8152600401610c57906151ea565b60606101cb8054610e2e90614db0565b6060816133405750506040805180820190915260018152600360fc1b602082015290565b8160005b811561336a578061335481615055565b91506133639050600a8361523c565b9150613344565b6000816001600160401b0381111561338457613384614635565b6040519080825280601f01601f1916602001820160405280156133ae576020820181803683370190505b5090505b8415612543576133c36001836150c1565b91506133d0600a86615161565b6133db906030614f09565b60f81b8183815181106133f0576133f0615000565b60200101906001600160f81b031916908160001a905350613412600a8661523c565b94506133b2565b6000610e18825490565b6101915461019254604080516020810186905260008183018190528251808303840181526060830193849052630200057560e51b909352936001600160a01b0390811693634000aea093613481939290911691879190606401615250565b602060405180830381600087803b15801561349b57600080fd5b505af11580156134af573d6000803e3d6000fd5b505050506040513d601f19601f820116820180604052508101906134d39190615280565b5060008381526101936020818152604080842054815180840189905280830186905230606082015260808082018390528351808303909101815260a090910190925281519183019190912093879052919052613530906001614f09565b600085815261019360205260409020556125438482604080516020808201949094528082019290925280518083038201815260609092019052805191012090565b60008281526065602052604090206001015461358d813361304e565b6110598383613cb3565b600054610100900460ff16806135b0575060005460ff16155b6135cc5760405162461bcd60e51b8152600401610c5790614d62565b600054610100900460ff161580156129f2576000805461ffff1916610101179055801561196f576000805461ff001916905550565b600054610100900460ff168061361a575060005460ff16155b6136365760405162461bcd60e51b8152600401610c5790614d62565b600054610100900460ff16158015613658576000805461ffff19166101011790555b6129f23361320f565b600054610100900460ff168061367a575060005460ff16155b6136965760405162461bcd60e51b8152600401610c5790614d62565b600054610100900460ff161580156136b8576000805461ffff19166101011790555b60c9805460ff19169055801561196f576000805461ff001916905550565b611e018282613bde565b60006001600160e01b031982166380ac58cd60e01b148061371157506001600160e01b03198216635b5e139f60e01b145b80610e185750610e1882613f44565b600080600061372f8585613f69565b91509150611a2681613fd9565b600033325a845460018601546040516bffffffffffffffffffffffff19606096871b811660208301529490951b90931660348501526048840191909152606883015260888201524260a88201524360c88201819052804060e883015260631901406101088201526101280160408051601f198184030181528282528051602091820120908301520160408051601f198184030181529190528051602090910120918290555090565b6101d45481106137f357600080fd5b6101d48054613804906001906150c1565b8154811061381457613814615000565b90600052602060002090600891828204019190066004029054906101000a900463ffffffff166101d4828154811061384e5761384e615000565b90600052602060002090600891828204019190066004026101000a81548163ffffffff021916908363ffffffff1602179055506101d48054806138935761389361529d565b600082815260209020600860001990920191820401805463ffffffff600460078516026101000a0219169055905550565b6001600160a01b03821661391a5760405162461bcd60e51b815260206004820181905260248201527f4552433732313a206d696e7420746f20746865207a65726f20616464726573736044820152606401610c57565b600081815261012f60205260409020546001600160a01b0316156139805760405162461bcd60e51b815260206004820152601c60248201527f4552433732313a20746f6b656e20616c7265616479206d696e746564000000006044820152606401610c57565b61398c60008383613a15565b6001600160a01b0382166000908152610130602052604081208054600192906139b6908490614f09565b9091555050600081815261012f602052604080822080546001600160a01b0319166001600160a01b03861690811790915590518392907fddf252ad1be2c89b69c2b068fc378daa952ba7f163c4a11628f55a4df523b3ef908290a45050565b60c95460ff1615613a385760405162461bcd60e51b8152600401610c5790614e33565b611059838383614194565b60606000613a52836002615016565b613a5d906002614f09565b6001600160401b03811115613a7457613a74614635565b6040519080825280601f01601f191660200182016040528015613a9e576020820181803683370190505b509050600360fc1b81600081518110613ab957613ab9615000565b60200101906001600160f81b031916908160001a905350600f60fb1b81600181518110613ae857613ae8615000565b60200101906001600160f81b031916908160001a9053506000613b0c846002615016565b613b17906001614f09565b90505b6001811115613b8f576f181899199a1a9b1b9c1cb0b131b232b360811b85600f1660108110613b4b57613b4b615000565b1a60f81b828281518110613b6157613b61615000565b60200101906001600160f81b031916908160001a90535060049490941c93613b88816152b3565b9050613b1a565b50831561216d5760405162461bcd60e51b815260206004820181905260248201527f537472696e67733a20686578206c656e67746820696e73756666696369656e746044820152606401610c57565b613be88282612174565b611e015760008281526065602090815260408083206001600160a01b03851684529091529020805460ff19166001179055613c203390565b6001600160a01b0316816001600160a01b0316837f2f8788117e7eff1d82e926ec794901d17c78024a50270940304540a733656f0d60405160405180910390a45050565b6000818152600183016020526040812054613cab57508154600181810184556000848152602080822090930184905584548482528286019093526040902091909155610e18565b506000610e18565b613cbd8282612174565b15611e015760008281526065602090815260408083206001600160a01b0385168085529252808320805460ff1916905551339285917ff6391f5c32d9c69d2a47ea670b442974b53935d1edc7fd64eb21e047a839171b9190a45050565b60008181526001830160205260408120548015613e03576000613d3e6001836150c1565b8554909150600090613d52906001906150c1565b9050818114613db7576000866000018281548110613d7257613d72615000565b9060005260206000200154905080876000018481548110613d9557613d95615000565b6000918252602080832090910192909255918252600188019052604090208390555b8554869080613dc857613dc861529d565b600190038181906000526020600020016000905590558560010160008681526020019081526020016000206000905560019350505050610e18565b6000915050610e18565b6000826000018281548110613e2457613e24615000565b9060005260206000200154905092915050565b60006001600160a01b0384163b15613f3957604051630a85bd0160e11b81526001600160a01b0385169063150b7a0290613e7b9033908990889088906004016152ca565b602060405180830381600087803b158015613e9557600080fd5b505af1925050508015613ec5575060408051601f3d908101601f19168201909252613ec291810190615307565b60015b613f1f573d808015613ef3576040519150601f19603f3d011682016040523d82523d6000602084013e613ef8565b606091505b508051613f175760405162461bcd60e51b8152600401610c57906151ea565b805181602001fd5b6001600160e01b031916630a85bd0160e11b149050612543565b506001949350505050565b60006001600160e01b03198216635a05180f60e01b1480610e185750610e188261424e565b600080825160411415613fa05760208301516040840151606085015160001a613f9487828585614283565b94509450505050613fd2565b825160401415613fca5760208301516040840151613fbf868383614370565b935093505050613fd2565b506000905060025b9250929050565b6000816004811115613fed57613fed615324565b1415613ff65750565b600181600481111561400a5761400a615324565b14156140585760405162461bcd60e51b815260206004820152601860248201527f45434453413a20696e76616c6964207369676e617475726500000000000000006044820152606401610c57565b600281600481111561406c5761406c615324565b14156140ba5760405162461bcd60e51b815260206004820152601f60248201527f45434453413a20696e76616c6964207369676e6174757265206c656e677468006044820152606401610c57565b60038160048111156140ce576140ce615324565b14156141275760405162461bcd60e51b815260206004820152602260248201527f45434453413a20696e76616c6964207369676e6174757265202773272076616c604482015261756560f01b6064820152608401610c57565b600481600481111561413b5761413b615324565b141561196f5760405162461bcd60e51b815260206004820152602260248201527f45434453413a20696e76616c6964207369676e6174757265202776272076616c604482015261756560f01b6064820152608401610c57565b6001600160a01b0383166141f1576141ec816101618054600083815261016260205260408120829055600182018355919091527fafbb1c043347995df017ce3291b765e028ad5f784d2aa00c3f5e073760a4de8b0155565b614214565b816001600160a01b0316836001600160a01b03161461421457614214838261439f565b6001600160a01b03821661422b5761105981614441565b826001600160a01b0316826001600160a01b0316146110595761105982826144f6565b60006001600160e01b03198216637965db0b60e01b1480610e1857506301ffc9a760e01b6001600160e01b0319831614610e18565b6000807f7fffffffffffffffffffffffffffffff5d576e7357a4501ddfe92f46681b20a08311156142ba5750600090506003614367565b8460ff16601b141580156142d257508460ff16601c14155b156142e35750600090506004614367565b6040805160008082526020820180845289905260ff881692820192909252606081018690526080810185905260019060a0016020604051602081039080840390855afa158015614337573d6000803e3d6000fd5b5050604051601f1901519150506001600160a01b03811661436057600060019250925050614367565b9150600090505b94509492505050565b6000806001600160ff1b03831660ff84901c601b0161439187828885614283565b935093505050935093915050565b600060016143ac84611bcb565b6143b691906150c1565b6000838152610160602052604090205490915080821461440c576001600160a01b038416600090815261015f60209081526040808320858452825280832054848452818420819055835261016090915290208190555b506000918252610160602090815260408084208490556001600160a01b03909416835261015f81528383209183525290812055565b61016154600090614454906001906150c1565b60008381526101626020526040812054610161805493945090928490811061447e5761447e615000565b906000526020600020015490508061016183815481106144a0576144a0615000565b600091825260208083209091019290925582815261016290915260408082208490558582528120556101618054806144da576144da61529d565b6001900381819060005260206000200160009055905550505050565b600061450183611bcb565b6001600160a01b03909316600090815261015f6020908152604080832086845282528083208590559382526101609052919091209190915550565b82805461454890614db0565b90600052602060002090601f01602090048101928261456a57600085556145b0565b82601f1061458357805160ff19168380011785556145b0565b828001600101855582156145b0579182015b828111156145b0578251825591602001919060010190614595565b50612664929150614620565b8280548282559060005260206000209081019282156145b0579160200282015b828111156145b057825182906001600160401b03169055916020019190600101906145dc565b60405180608001604052806004906020820280368337509192915050565b5b808211156126645760008155600101614621565b634e487b7160e01b600052604160045260246000fd5b604051601f8201601f191681016001600160401b038111828210171561467357614673614635565b604052919050565b600082601f83011261468c57600080fd5b81356001600160401b038111156146a5576146a5614635565b6146b8601f8201601f191660200161464b565b8181528460208386010111156146cd57600080fd5b816020850160208301376000918101602001919091529392505050565b80356001600160a01b038116811461470157600080fd5b919050565b6000806000806000806000806000806101408b8d03121561472657600080fd5b8a356001600160401b0381111561473c57600080fd5b6147488d828e0161467b565b9a505061475760208c016146ea565b985061476560408c016146ea565b975060608b0135965060808b0135955061478160a08c016146ea565b945061478f60c08c016146ea565b935060e08b013592506101008b013591506147ad6101208c016146ea565b90509295989b9194979a5092959850565b6001600160e01b03198116811461196f57600080fd5b6000602082840312156147e657600080fd5b813561216d816147be565b60005b8381101561480c5781810151838201526020016147f4565b838111156123445750506000910152565b600081518084526148358160208601602086016147f1565b601f01601f19169290920160200192915050565b60208152600061216d602083018461481d565b60006020828403121561486e57600080fd5b5035919050565b6000806040838503121561488857600080fd5b614891836146ea565b946020939093013593505050565b600080604083850312156148b257600080fd5b82356001600160401b03808211156148c957600080fd5b6148d58683870161467b565b935060208501359150808211156148eb57600080fd5b506148f88582860161467b565b9150509250929050565b803560ff8116811461470157600080fd5b6000806000806080858703121561492957600080fd5b61493285614902565b935061494060208601614902565b925060408501356001600160401b038082111561495c57600080fd5b6149688883890161467b565b9350606087013591508082111561497e57600080fd5b5061498b8782880161467b565b91505092959194509250565b6000806000606084860312156149ac57600080fd5b6149b5846146ea565b92506149c3602085016146ea565b9150604084013590509250925092565b60006001600160401b038211156149ec576149ec614635565b5060051b60200190565b60006020808385031215614a0957600080fd5b82356001600160401b03811115614a1f57600080fd5b8301601f81018513614a3057600080fd5b8035614a43614a3e826149d3565b61464b565b81815260059190911b82018301908381019087831115614a6257600080fd5b928401925b82841015614a9357833563ffffffff81168114614a845760008081fd5b82529284019290840190614a67565b979650505050505050565b60008060408385031215614ab157600080fd5b82359150614ac1602084016146ea565b90509250929050565b600060208284031215614adc57600080fd5b61216d82614902565b600060208284031215614af757600080fd5b61216d826146ea565b6020808252825182820181905260009190848201906040850190845b81811015614b3857835183529284019291840191600101614b1c565b50909695505050505050565b600060208284031215614b5657600080fd5b81356001600160401b03811115614b6c57600080fd5b6125438482850161467b565b60808101818360005b6004811015614ba357815160ff16835260209283019290910190600101614b81565b50505092915050565b60006020808385031215614bbf57600080fd5b82356001600160401b03811115614bd557600080fd5b8301601f81018513614be657600080fd5b8035614bf4614a3e826149d3565b81815260059190911b82018301908381019087831115614c1357600080fd5b928401925b82841015614a9357614c29846146ea565b82529284019290840190614c18565b60008060408385031215614c4b57600080fd5b50508035926020909101359150565b801515811461196f57600080fd5b60008060408385031215614c7b57600080fd5b614c84836146ea565b91506020830135614c9481614c5a565b809150509250929050565b60008060008060808587031215614cb557600080fd5b614cbe856146ea565b9350614ccc602086016146ea565b92506040850135915060608501356001600160401b03811115614cee57600080fd5b61498b8782880161467b565b60008060408385031215614d0d57600080fd5b614d16836146ea565b9150614ac1602084016146ea565b6020808252825182820181905260009190848201906040850190845b81811015614b3857835163ffffffff1683529284019291840191600101614d40565b6020808252602e908201527f496e697469616c697a61626c653a20636f6e747261637420697320616c72656160408201526d191e481a5b9a5d1a585b1a5e995960921b606082015260800190565b600181811c90821680614dc457607f821691505b60208210811415614de557634e487b7160e01b600052602260045260246000fd5b50919050565b600060208284031215614dfd57600080fd5b5051919050565b60208082526015908201527450726f70657274794e46543a204f6e6c7920454f4160581b604082015260600190565b60208082526010908201526f14185d5cd8589b194e881c185d5cd95960821b604082015260600190565b60208082526023908201527f50726f70657274794e46543a2050726573616c65204d696e74206e6f74206f70604082015262656e2160e81b606082015260800190565b60008251614eb28184602087016147f1565b9190910192915050565b6020808252601e908201527f50726f70657274794e46543a20496e73756666696369656e7420455448210000604082015260600190565b634e487b7160e01b600052601160045260246000fd5b60008219821115614f1c57614f1c614ef3565b500190565b60208082526024908201527f50726f70657274794e46543a204d6178696d756d20537570706c7920526561636040820152636865642160e01b606082015260800190565b60208082526033908201527f50726f70657274794e46543a20556e61626c6520746f20666f7277617264206d60408201527265737361676520746f2074726561737572792160681b606082015260800190565b600060ff821660ff84168060ff03821115614fd557614fd5614ef3565b019392505050565b600060ff821660ff841680821015614ff757614ff7614ef3565b90039392505050565b634e487b7160e01b600052603260045260246000fd5b600081600019048311821515161561503057615030614ef3565b500290565b600060ff821660ff81141561504c5761504c614ef3565b60010192915050565b600060001982141561506957615069614ef3565b5060010190565b60208082526031908201527f4552433732313a207472616e736665722063616c6c6572206973206e6f74206f6040820152701ddb995c881b9bdc88185c1c1c9bdd9959607a1b606082015260800190565b6000828210156150d3576150d3614ef3565b500390565b600083516150ea8184602088016147f1565b8351908301906150fe8183602088016147f1565b01949350505050565b6bffffffffffffffffffffffff198560601b168152600084516151318160148501602089016147f1565b909101601481019390935250603482015260540192915050565b634e487b7160e01b600052601260045260246000fd5b6000826151705761517061514b565b500690565b7f416363657373436f6e74726f6c3a206163636f756e74200000000000000000008152600083516151ad8160178501602088016147f1565b7001034b99036b4b9b9b4b733903937b6329607d1b60179184019182015283516151de8160288401602088016147f1565b01602801949350505050565b60208082526032908201527f4552433732313a207472616e7366657220746f206e6f6e20455243373231526560408201527131b2b4bb32b91034b6b83632b6b2b73a32b960711b606082015260800190565b60008261524b5761524b61514b565b500490565b60018060a01b0384168152826020820152606060408201526000615277606083018461481d565b95945050505050565b60006020828403121561529257600080fd5b815161216d81614c5a565b634e487b7160e01b600052603160045260246000fd5b6000816152c2576152c2614ef3565b506000190190565b6001600160a01b03858116825284166020820152604081018390526080606082018190526000906152fd9083018461481d565b9695505050505050565b60006020828403121561531957600080fd5b815161216d816147be565b634e487b7160e01b600052602160045260246000fdfea26469706673582212204437fc7f31db4d80b23e2887c128f770eb2cae481c0d94818df431c151c6690364736f6c63430008090033",
  "devdoc": {
    "kind": "dev",
    "methods": {
      "airdrop(address[])": {
        "details": "Reserve some NFTS"
      },
      "approve(address,uint256)": {
        "details": "See {IERC721-approve}."
      },
      "balanceOf(address)": {
        "details": "See {IERC721-balanceOf}."
      },
      "getApproved(uint256)": {
        "details": "See {IERC721-getApproved}."
      },
      "getPostalCode(uint256)": {
        "details": "Parse token id into bytes form"
      },
      "getRoleAdmin(bytes32)": {
        "details": "Returns the admin role that controls `role`. See {grantRole} and {revokeRole}. To change a role's admin, use {_setRoleAdmin}."
      },
      "getRoleMember(bytes32,uint256)": {
        "details": "Returns one of the accounts that have `role`. `index` must be a value between 0 and {getRoleMemberCount}, non-inclusive. Role bearers are not sorted in any particular way, and their ordering may change at any point. WARNING: When using {getRoleMember} and {getRoleMemberCount}, make sure you perform all queries on the same block. See the following https://forum.openzeppelin.com/t/iterating-over-elements-on-enumerableset-in-openzeppelin-contracts/2296[forum post] for more information."
      },
      "getRoleMemberCount(bytes32)": {
        "details": "Returns the number of accounts that have `role`. Can be used together with {getRoleMember} to enumerate all bearers of a role."
      },
      "getWhitelistPrice(uint8)": {
        "details": "Get Whitelist Price"
      },
      "grantRole(bytes32,address)": {
        "details": "Overload {grantRole} to track enumerable memberships"
      },
      "hasRole(bytes32,address)": {
        "details": "Returns `true` if `account` has been granted `role`."
      },
      "initializeRandomness()": {
        "details": "Initialize Randomness using chainlink"
      },
      "isApprovedForAll(address,address)": {
        "details": "See {IERC721-isApprovedForAll}."
      },
      "isPresaleOpen()": {
        "details": "Check if Presale is Open"
      },
      "isPublicSaleOpen()": {
        "details": "Check if Public Sale is Open"
      },
      "name()": {
        "details": "See {IERC721Metadata-name}."
      },
      "owner()": {
        "details": "Returns the address of the current owner."
      },
      "ownerOf(uint256)": {
        "details": "See {IERC721-ownerOf}."
      },
      "parsePostalCode(bytes)": {
        "details": "Parse Bytes postal code form into array"
      },
      "partnerMint(bytes,bytes)": {
        "details": "partner Mint"
      },
      "pause()": {
        "details": "Pauses all token transfers."
      },
      "paused()": {
        "details": "Returns true if the contract is paused, and false otherwise."
      },
      "presaleMint(uint8,uint8,bytes,bytes)": {
        "details": "Presale Mint"
      },
      "privateSaleMintCount(address)": {
        "details": "Returns mint count during private sale"
      },
      "publicMint(uint8)": {
        "details": "Public sale"
      },
      "pushAvailable(uint32[])": {
        "details": "Set Available mints"
      },
      "renounceOwnership()": {
        "details": "Leaves the contract without owner. It will not be possible to call `onlyOwner` functions anymore. Can only be called by the current owner. NOTE: Renouncing ownership will leave the contract without an owner, thereby removing any functionality that is only available to the owner."
      },
      "renounceRole(bytes32,address)": {
        "details": "Overload {renounceRole} to track enumerable memberships"
      },
      "revokeRole(bytes32,address)": {
        "details": "Overload {revokeRole} to track enumerable memberships"
      },
      "safeTransferFrom(address,address,uint256)": {
        "details": "See {IERC721-safeTransferFrom}."
      },
      "safeTransferFrom(address,address,uint256,bytes)": {
        "details": "See {IERC721-safeTransferFrom}."
      },
      "setApprovalForAll(address,bool)": {
        "details": "See {IERC721-setApprovalForAll}."
      },
      "setPostalCodeProvider(address)": {
        "details": "Set PostalCodeProvider"
      },
      "symbol()": {
        "details": "See {IERC721Metadata-symbol}."
      },
      "tokenByIndex(uint256)": {
        "details": "See {IERC721Enumerable-tokenByIndex}."
      },
      "tokenOfOwnerByIndex(address,uint256)": {
        "details": "See {IERC721Enumerable-tokenOfOwnerByIndex}."
      },
      "tokenURI(uint256)": {
        "details": "See {IERC721Metadata-tokenURI}."
      },
      "totalSupply()": {
        "details": "See {IERC721Enumerable-totalSupply}."
      },
      "transferFrom(address,address,uint256)": {
        "details": "See {IERC721-transferFrom}."
      },
      "transferOwnership(address)": {
        "details": "Transfers ownership of the contract to a new account (`newOwner`). Can only be called by the current owner."
      },
      "unpause()": {
        "details": "Unpauses all token transfers."
      },
      "updatePresaleStart(uint256)": {
        "details": "Updates presale Start Time"
      },
      "updatePublicSaleStart(uint256)": {
        "details": "Emergency Function to withdraw ETH from this contract"
      },
      "withdrawToTreasury()": {
        "details": "Emergency Function to withdraw ETH from this contract"
      }
    },
    "version": 1
  },
  "userdoc": {
    "kind": "user",
    "methods": {},
    "version": 1
  },
  "storageLayout": {
    "storage": [
      {
        "astId": 1039,
        "contract": "contracts/PropertyNFT.sol:PropertyNFT",
        "label": "_initialized",
        "offset": 0,
        "slot": "0",
        "type": "t_bool"
      },
      {
        "astId": 1042,
        "contract": "contracts/PropertyNFT.sol:PropertyNFT",
        "label": "_initializing",
        "offset": 1,
        "slot": "0",
        "type": "t_bool"
      },
      {
        "astId": 2884,
        "contract": "contracts/PropertyNFT.sol:PropertyNFT",
        "label": "__gap",
        "offset": 0,
        "slot": "1",
        "type": "t_array(t_uint256)50_storage"
      },
      {
        "astId": 3574,
        "contract": "contracts/PropertyNFT.sol:PropertyNFT",
        "label": "__gap",
        "offset": 0,
        "slot": "51",
        "type": "t_array(t_uint256)50_storage"
      },
      {
        "astId": 524,
        "contract": "contracts/PropertyNFT.sol:PropertyNFT",
        "label": "_roles",
        "offset": 0,
        "slot": "101",
        "type": "t_mapping(t_bytes32,t_struct(RoleData)519_storage)"
      },
      {
        "astId": 809,
        "contract": "contracts/PropertyNFT.sol:PropertyNFT",
        "label": "__gap",
        "offset": 0,
        "slot": "102",
        "type": "t_array(t_uint256)49_storage"
      },
      {
        "astId": 311,
        "contract": "contracts/PropertyNFT.sol:PropertyNFT",
        "label": "_roleMembers",
        "offset": 0,
        "slot": "151",
        "type": "t_mapping(t_bytes32,t_struct(AddressSet)4211_storage)"
      },
      {
        "astId": 474,
        "contract": "contracts/PropertyNFT.sol:PropertyNFT",
        "label": "__gap",
        "offset": 0,
        "slot": "152",
        "type": "t_array(t_uint256)49_storage"
      },
      {
        "astId": 1100,
        "contract": "contracts/PropertyNFT.sol:PropertyNFT",
        "label": "_paused",
        "offset": 0,
        "slot": "201",
        "type": "t_bool"
      },
      {
        "astId": 1191,
        "contract": "contracts/PropertyNFT.sol:PropertyNFT",
        "label": "__gap",
        "offset": 0,
        "slot": "202",
        "type": "t_array(t_uint256)49_storage"
      },
      {
        "astId": 919,
        "contract": "contracts/PropertyNFT.sol:PropertyNFT",
        "label": "_owner",
        "offset": 0,
        "slot": "251",
        "type": "t_address"
      },
      {
        "astId": 1032,
        "contract": "contracts/PropertyNFT.sol:PropertyNFT",
        "label": "__gap",
        "offset": 0,
        "slot": "252",
        "type": "t_array(t_uint256)49_storage"
      },
      {
        "astId": 1221,
        "contract": "contracts/PropertyNFT.sol:PropertyNFT",
        "label": "_name",
        "offset": 0,
        "slot": "301",
        "type": "t_string_storage"
      },
      {
        "astId": 1223,
        "contract": "contracts/PropertyNFT.sol:PropertyNFT",
        "label": "_symbol",
        "offset": 0,
        "slot": "302",
        "type": "t_string_storage"
      },
      {
        "astId": 1227,
        "contract": "contracts/PropertyNFT.sol:PropertyNFT",
        "label": "_owners",
        "offset": 0,
        "slot": "303",
        "type": "t_mapping(t_uint256,t_address)"
      },
      {
        "astId": 1231,
        "contract": "contracts/PropertyNFT.sol:PropertyNFT",
        "label": "_balances",
        "offset": 0,
        "slot": "304",
        "type": "t_mapping(t_address,t_uint256)"
      },
      {
        "astId": 1235,
        "contract": "contracts/PropertyNFT.sol:PropertyNFT",
        "label": "_tokenApprovals",
        "offset": 0,
        "slot": "305",
        "type": "t_mapping(t_uint256,t_address)"
      },
      {
        "astId": 1241,
        "contract": "contracts/PropertyNFT.sol:PropertyNFT",
        "label": "_operatorApprovals",
        "offset": 0,
        "slot": "306",
        "type": "t_mapping(t_address,t_mapping(t_address,t_bool))"
      },
      {
        "astId": 2037,
        "contract": "contracts/PropertyNFT.sol:PropertyNFT",
        "label": "__gap",
        "offset": 0,
        "slot": "307",
        "type": "t_array(t_uint256)44_storage"
      },
      {
        "astId": 2211,
        "contract": "contracts/PropertyNFT.sol:PropertyNFT",
        "label": "_ownedTokens",
        "offset": 0,
        "slot": "351",
        "type": "t_mapping(t_address,t_mapping(t_uint256,t_uint256))"
      },
      {
        "astId": 2215,
        "contract": "contracts/PropertyNFT.sol:PropertyNFT",
        "label": "_ownedTokensIndex",
        "offset": 0,
        "slot": "352",
        "type": "t_mapping(t_uint256,t_uint256)"
      },
      {
        "astId": 2218,
        "contract": "contracts/PropertyNFT.sol:PropertyNFT",
        "label": "_allTokens",
        "offset": 0,
        "slot": "353",
        "type": "t_array(t_uint256)dyn_storage"
      },
      {
        "astId": 2222,
        "contract": "contracts/PropertyNFT.sol:PropertyNFT",
        "label": "_allTokensIndex",
        "offset": 0,
        "slot": "354",
        "type": "t_mapping(t_uint256,t_uint256)"
      },
      {
        "astId": 2537,
        "contract": "contracts/PropertyNFT.sol:PropertyNFT",
        "label": "__gap",
        "offset": 0,
        "slot": "355",
        "type": "t_array(t_uint256)46_storage"
      },
      {
        "astId": 13334,
        "contract": "contracts/PropertyNFT.sol:PropertyNFT",
        "label": "LINK",
        "offset": 0,
        "slot": "401",
        "type": "t_contract(LinkTokenInterface)265"
      },
      {
        "astId": 13336,
        "contract": "contracts/PropertyNFT.sol:PropertyNFT",
        "label": "vrfCoordinator",
        "offset": 0,
        "slot": "402",
        "type": "t_address"
      },
      {
        "astId": 13340,
        "contract": "contracts/PropertyNFT.sol:PropertyNFT",
        "label": "nonces",
        "offset": 0,
        "slot": "403",
        "type": "t_mapping(t_bytes32,t_uint256)"
      },
      {
        "astId": 13344,
        "contract": "contracts/PropertyNFT.sol:PropertyNFT",
        "label": "______gap",
        "offset": 0,
        "slot": "404",
        "type": "t_array(t_uint256)50_storage"
      },
      {
        "astId": 10887,
        "contract": "contracts/PropertyNFT.sol:PropertyNFT",
        "label": "PRIVATE_SALE_PRICES",
        "offset": 0,
        "slot": "454",
        "type": "t_array(t_uint256)dyn_storage"
      },
      {
        "astId": 10900,
        "contract": "contracts/PropertyNFT.sol:PropertyNFT",
        "label": "whitelistedPartners",
        "offset": 0,
        "slot": "455",
        "type": "t_mapping(t_address,t_bool)"
      },
      {
        "astId": 10902,
        "contract": "contracts/PropertyNFT.sol:PropertyNFT",
        "label": "PRIVATE_SALE_START",
        "offset": 0,
        "slot": "456",
        "type": "t_uint256"
      },
      {
        "astId": 10904,
        "contract": "contracts/PropertyNFT.sol:PropertyNFT",
        "label": "PUBLIC_SALE_START",
        "offset": 0,
        "slot": "457",
        "type": "t_uint256"
      },
      {
        "astId": 10906,
        "contract": "contracts/PropertyNFT.sol:PropertyNFT",
        "label": "TREASURY",
        "offset": 0,
        "slot": "458",
        "type": "t_address_payable"
      },
      {
        "astId": 10908,
        "contract": "contracts/PropertyNFT.sol:PropertyNFT",
        "label": "baseTokenURI",
        "offset": 0,
        "slot": "459",
        "type": "t_string_storage"
      },
      {
        "astId": 10910,
        "contract": "contracts/PropertyNFT.sol:PropertyNFT",
        "label": "notRevealedURI",
        "offset": 0,
        "slot": "460",
        "type": "t_string_storage"
      },
      {
        "astId": 10912,
        "contract": "contracts/PropertyNFT.sol:PropertyNFT",
        "label": "revealed",
        "offset": 0,
        "slot": "461",
        "type": "t_bool"
      },
      {
        "astId": 10914,
        "contract": "contracts/PropertyNFT.sol:PropertyNFT",
        "label": "keyHash",
        "offset": 0,
        "slot": "462",
        "type": "t_bytes32"
      },
      {
        "astId": 10916,
        "contract": "contracts/PropertyNFT.sol:PropertyNFT",
        "label": "fee",
        "offset": 0,
        "slot": "463",
        "type": "t_uint256"
      },
      {
        "astId": 10920,
        "contract": "contracts/PropertyNFT.sol:PropertyNFT",
        "label": "publicSaleMintedAmount",
        "offset": 0,
        "slot": "464",
        "type": "t_mapping(t_address,t_uint8)"
      },
      {
        "astId": 10924,
        "contract": "contracts/PropertyNFT.sol:PropertyNFT",
        "label": "privateSaleMintedAmount",
        "offset": 0,
        "slot": "465",
        "type": "t_mapping(t_address,t_uint8)"
      },
      {
        "astId": 10928,
        "contract": "contracts/PropertyNFT.sol:PropertyNFT",
        "label": "_nonceUsed",
        "offset": 0,
        "slot": "466",
        "type": "t_mapping(t_bytes_memory_ptr,t_bool)"
      },
      {
        "astId": 10930,
        "contract": "contracts/PropertyNFT.sol:PropertyNFT",
        "label": "signerAddress",
        "offset": 0,
        "slot": "467",
        "type": "t_address"
      },
      {
        "astId": 10933,
        "contract": "contracts/PropertyNFT.sol:PropertyNFT",
        "label": "available",
        "offset": 0,
        "slot": "468",
        "type": "t_array(t_uint32)dyn_storage"
      },
      {
        "astId": 10936,
        "contract": "contracts/PropertyNFT.sol:PropertyNFT",
        "label": "random",
        "offset": 0,
        "slot": "469",
        "type": "t_struct(Random)13642_storage"
      },
      {
        "astId": 10939,
        "contract": "contracts/PropertyNFT.sol:PropertyNFT",
        "label": "POSTAL_CODE_PROVIDER",
        "offset": 0,
        "slot": "471",
        "type": "t_contract(IPostalCodeProvider)13543"
      },
      {
        "astId": 10943,
        "contract": "contracts/PropertyNFT.sol:PropertyNFT",
        "label": "______gap",
        "offset": 0,
        "slot": "472",
        "type": "t_array(t_uint256)49_storage"
      }
    ],
    "types": {
      "t_address": {
        "encoding": "inplace",
        "label": "address",
        "numberOfBytes": "20"
      },
      "t_address_payable": {
        "encoding": "inplace",
        "label": "address payable",
        "numberOfBytes": "20"
      },
      "t_array(t_bytes32)dyn_storage": {
        "base": "t_bytes32",
        "encoding": "dynamic_array",
        "label": "bytes32[]",
        "numberOfBytes": "32"
      },
      "t_array(t_uint256)44_storage": {
        "base": "t_uint256",
        "encoding": "inplace",
        "label": "uint256[44]",
        "numberOfBytes": "1408"
      },
      "t_array(t_uint256)46_storage": {
        "base": "t_uint256",
        "encoding": "inplace",
        "label": "uint256[46]",
        "numberOfBytes": "1472"
      },
      "t_array(t_uint256)49_storage": {
        "base": "t_uint256",
        "encoding": "inplace",
        "label": "uint256[49]",
        "numberOfBytes": "1568"
      },
      "t_array(t_uint256)50_storage": {
        "base": "t_uint256",
        "encoding": "inplace",
        "label": "uint256[50]",
        "numberOfBytes": "1600"
      },
      "t_array(t_uint256)dyn_storage": {
        "base": "t_uint256",
        "encoding": "dynamic_array",
        "label": "uint256[]",
        "numberOfBytes": "32"
      },
      "t_array(t_uint32)dyn_storage": {
        "base": "t_uint32",
        "encoding": "dynamic_array",
        "label": "uint32[]",
        "numberOfBytes": "32"
      },
      "t_bool": {
        "encoding": "inplace",
        "label": "bool",
        "numberOfBytes": "1"
      },
      "t_bytes32": {
        "encoding": "inplace",
        "label": "bytes32",
        "numberOfBytes": "32"
      },
      "t_bytes_memory_ptr": {
        "encoding": "bytes",
        "label": "bytes",
        "numberOfBytes": "32"
      },
      "t_contract(IPostalCodeProvider)13543": {
        "encoding": "inplace",
        "label": "contract IPostalCodeProvider",
        "numberOfBytes": "20"
      },
      "t_contract(LinkTokenInterface)265": {
        "encoding": "inplace",
        "label": "contract LinkTokenInterface",
        "numberOfBytes": "20"
      },
      "t_mapping(t_address,t_bool)": {
        "encoding": "mapping",
        "key": "t_address",
        "label": "mapping(address => bool)",
        "numberOfBytes": "32",
        "value": "t_bool"
      },
      "t_mapping(t_address,t_mapping(t_address,t_bool))": {
        "encoding": "mapping",
        "key": "t_address",
        "label": "mapping(address => mapping(address => bool))",
        "numberOfBytes": "32",
        "value": "t_mapping(t_address,t_bool)"
      },
      "t_mapping(t_address,t_mapping(t_uint256,t_uint256))": {
        "encoding": "mapping",
        "key": "t_address",
        "label": "mapping(address => mapping(uint256 => uint256))",
        "numberOfBytes": "32",
        "value": "t_mapping(t_uint256,t_uint256)"
      },
      "t_mapping(t_address,t_uint256)": {
        "encoding": "mapping",
        "key": "t_address",
        "label": "mapping(address => uint256)",
        "numberOfBytes": "32",
        "value": "t_uint256"
      },
      "t_mapping(t_address,t_uint8)": {
        "encoding": "mapping",
        "key": "t_address",
        "label": "mapping(address => uint8)",
        "numberOfBytes": "32",
        "value": "t_uint8"
      },
      "t_mapping(t_bytes32,t_struct(AddressSet)4211_storage)": {
        "encoding": "mapping",
        "key": "t_bytes32",
        "label": "mapping(bytes32 => struct EnumerableSetUpgradeable.AddressSet)",
        "numberOfBytes": "32",
        "value": "t_struct(AddressSet)4211_storage"
      },
      "t_mapping(t_bytes32,t_struct(RoleData)519_storage)": {
        "encoding": "mapping",
        "key": "t_bytes32",
        "label": "mapping(bytes32 => struct AccessControlUpgradeable.RoleData)",
        "numberOfBytes": "32",
        "value": "t_struct(RoleData)519_storage"
      },
      "t_mapping(t_bytes32,t_uint256)": {
        "encoding": "mapping",
        "key": "t_bytes32",
        "label": "mapping(bytes32 => uint256)",
        "numberOfBytes": "32",
        "value": "t_uint256"
      },
      "t_mapping(t_bytes_memory_ptr,t_bool)": {
        "encoding": "mapping",
        "key": "t_bytes_memory_ptr",
        "label": "mapping(bytes => bool)",
        "numberOfBytes": "32",
        "value": "t_bool"
      },
      "t_mapping(t_uint256,t_address)": {
        "encoding": "mapping",
        "key": "t_uint256",
        "label": "mapping(uint256 => address)",
        "numberOfBytes": "32",
        "value": "t_address"
      },
      "t_mapping(t_uint256,t_uint256)": {
        "encoding": "mapping",
        "key": "t_uint256",
        "label": "mapping(uint256 => uint256)",
        "numberOfBytes": "32",
        "value": "t_uint256"
      },
      "t_string_storage": {
        "encoding": "bytes",
        "label": "string",
        "numberOfBytes": "32"
      },
      "t_struct(AddressSet)4211_storage": {
        "encoding": "inplace",
        "label": "struct EnumerableSetUpgradeable.AddressSet",
        "members": [
          {
            "astId": 4210,
            "contract": "contracts/PropertyNFT.sol:PropertyNFT",
            "label": "_inner",
            "offset": 0,
            "slot": "0",
            "type": "t_struct(Set)3910_storage"
          }
        ],
        "numberOfBytes": "64"
      },
      "t_struct(Random)13642_storage": {
        "encoding": "inplace",
        "label": "struct RandomLib.Random",
        "members": [
          {
            "astId": 13639,
            "contract": "contracts/PropertyNFT.sol:PropertyNFT",
            "label": "lastRandom",
            "offset": 0,
            "slot": "0",
            "type": "t_uint256"
          },
          {
            "astId": 13641,
            "contract": "contracts/PropertyNFT.sol:PropertyNFT",
            "label": "initialRandom",
            "offset": 0,
            "slot": "1",
            "type": "t_uint256"
          }
        ],
        "numberOfBytes": "64"
      },
      "t_struct(RoleData)519_storage": {
        "encoding": "inplace",
        "label": "struct AccessControlUpgradeable.RoleData",
        "members": [
          {
            "astId": 516,
            "contract": "contracts/PropertyNFT.sol:PropertyNFT",
            "label": "members",
            "offset": 0,
            "slot": "0",
            "type": "t_mapping(t_address,t_bool)"
          },
          {
            "astId": 518,
            "contract": "contracts/PropertyNFT.sol:PropertyNFT",
            "label": "adminRole",
            "offset": 0,
            "slot": "1",
            "type": "t_bytes32"
          }
        ],
        "numberOfBytes": "64"
      },
      "t_struct(Set)3910_storage": {
        "encoding": "inplace",
        "label": "struct EnumerableSetUpgradeable.Set",
        "members": [
          {
            "astId": 3905,
            "contract": "contracts/PropertyNFT.sol:PropertyNFT",
            "label": "_values",
            "offset": 0,
            "slot": "0",
            "type": "t_array(t_bytes32)dyn_storage"
          },
          {
            "astId": 3909,
            "contract": "contracts/PropertyNFT.sol:PropertyNFT",
            "label": "_indexes",
            "offset": 0,
            "slot": "1",
            "type": "t_mapping(t_bytes32,t_uint256)"
          }
        ],
        "numberOfBytes": "64"
      },
      "t_uint256": {
        "encoding": "inplace",
        "label": "uint256",
        "numberOfBytes": "32"
      },
      "t_uint32": {
        "encoding": "inplace",
        "label": "uint32",
        "numberOfBytes": "4"
      },
      "t_uint8": {
        "encoding": "inplace",
        "label": "uint8",
        "numberOfBytes": "1"
      }
    }
  }
}